:020000040800F2
:1000000000800020E9090008FD080008FF0800083A
:1000100001090008030900080509000800000000A4
:1000200000000000000000000000000007090008B8
:1000300009090008000000000B0900080D0900086C
:10004000390A0008390A0008390A0008390A000884
:10005000390A0008390A0008390A0008390A000874
:10006000390A0008390A0008390A0008390A000864
:10007000390A0008390A0008390A0008390A000854
:10008000390A000800000000390A0008390A00088F
:10009000150900082509000835090008390A000873
:1000A000390A0008390A0008390A0008390A000824
:1000B000390A0008390A0008390A0008390A000814
:1000C000390A0008390A0008390A0008390A000804
:1000D000390A0008390A0008390A0008390A0008F4
:1000E000390A0008390A0008390A0008390A0008E4
:1000F000390A0008390A0008390A0008000000001F
:1001000000000000390A000800000000390A000859
:10011000390A000800000000390A000845090008F3
:10012000390A0008390A0008390A0008390A0008A3
:10013000390A00080000000000000000390A000829
:10014000390A0008390A0008000000000000000019
:10015000000000000000000000000000000000009F
:10016000000000000000000000000000390A000844
:10017000390A000800000000000000000000000034
:1001800000000000390A0008000000000000000024
:10019000000000000000000000000000000000005F
:1001A0000000000000000000390A0008390A0008B9
:1001B000390A0008390A0008390A0008000000005E
:1001C00000000000390A00080000000000000000E4
:0801D000390A0008390A000891
:1001D80010B5054C237833B9044B13B10448AFF379
:1001E80000800123237010BDB4050020000000002A
:1001F800C067000808B5034B1BB103490348AFF3B8
:10020800008008BD00000000B8050020C067000895
:1002180080F0004002E000BF81F0004142001FBFB3
:100228005FEA410392EA030F7FEA226C7FEA236CBC
:100238006AD04FEA1262D2EB1363C1BFD2184140B1
:1002480048404140B8BF5B42192B88BF704710F047
:10025800004F40F4000020F07F4018BF404211F0EA
:10026800004F41F4000121F07F4118BF494292EA52
:10027800030F3FD0A2F1010241FA03FC10EB0C007E
:10028800C3F1200301FA03F100F0004302D549420B
:1002980060EB4000B0F5000F13D3B0F1807F06D3B8
:1002A80040084FEA310102F10102FE2A51D2B1F1B0
:1002B800004F40EBC25008BF20F0010040EA0300A5
:1002C8007047490040EB0000013A28BFB0F5000F25
:1002D800EDD2B0FA80FCACF1080CB2EB0C0200FADB
:1002E8000CF0AABF00EBC25052421843BCBFD0402A
:1002F8001843704792F0000F81F4000106BF80F4A4
:1003080000000132013BB5E74FEA41037FEA226C66
:1003180018BF7FEA236C21D092EA030F04D092F031
:10032800000F08BF0846704790EA010F1CBF002065
:10033800704712F07F4F04D1400028BF40F00040C2
:10034800704712F100723CBF00F50000704700F0E2
:10035800004343F0FE4040F4000070477FEA226209
:1003680016BF08467FEA23630146420206BF5FEADA
:10037800412390EA010F40F4800070474FF00003DA
:1003880004E000BF10F0004348BF40425FEA000CA1
:1003980008BF704743F0964301464FF000001CE049
:1003A80050EA010208BF70474FF000030AE000BF9F
:1003B80050EA010208BF704711F0004302D54042DD
:1003C80061EB41015FEA010C02BF8446014600204F
:1003D80043F0B64308BFA3F18053A3F50003BCFA6A
:1003E8008CF2083AA3EBC25310DB01FA02FC634417
:1003F80000FA02FCC2F12002BCF1004F20FA02F21E
:1004080043EB020008BF20F00100704702F1200210
:1004180001FA02FCC2F1200250EA4C0021FA02F271
:1004280043EB020008BF20EADC70704710B51248A1
:10043800124B0360002343604FF440728260C36034
:10044800012202744374837408214161022181618D
:100458000F24C46104240462446282620724C462D3
:10046800016342638363C36301F05AFB00B910BDA3
:1004780000F068F9FBE700BFD005002000640040E9
:1004880010B598B004460021139114911591169156
:100498001791442202A806F0CDF82268224B9A420E
:1004A80001D018B010BD4FF4805302934FF0007381
:1004B8000E9302A803F0B0FC002831D11B4B9A6DB3
:1004C80042F000729A659A6D02F000720092009AEA
:1004D800DA6C42F00202DA64DB6C03F00203019387
:1004E800019B4FF440731393022314930024159433
:1004F80016940923179313A90D4801F06FFE22469D
:100508000521152001F03CFA152001F071FA224668
:100518000521162001F034FA162001F069FAC0E727
:1005280000F010F9CAE700BF006400400010024064
:100538000004004830B58BB0002405940694079455
:10054800089409941C4BDA6C42F00402DA64DA6C01
:1005580002F004020192019ADA6C42F02002DA6495
:10056800DA6C02F020020292029ADA6C42F001027E
:10057800DA64DA6C02F001020392039ADA6C42F050
:100588000202DA64DB6C03F002030493049B0B4D54
:1005980022464FF40051284601F09CFF4FF40053C7
:1005A8000593012306930794089405A9284601F0AA
:1005B80015FE0BB030BD00BF001002400008004817
:1005C80008B50848084B03600323436040F6FF73EF
:1005D800C360836001F08CFF00B908BD00F0B2F879
:1005E800FBE700BF340600200030004030B587B07C
:1005F800002401940294039404940594134BDA6C38
:1006080042F00102DA64DB6C03F001030093009B03
:1006180022464FF480514FF0904001F05BFF4FF4B9
:1006280080550195112302930394049401A94FF076
:10063800904001F0D3FD642001F07CF929464FF089
:10064800904001F0B9FE07B030BD00BF0010024075
:10065800F0B583B045F20133ADF804302F4C304B80
:1006680001AA0621204600F0E5F92E4D2E4B01AADD
:100678000721284600F0DEF92C49204600F02EFA22
:100688002B49284600F02AFA2A4E3146204600F027
:1006980097FA204600F060FA3118284600F090FAE0
:1006A800002412E0651C244E204B33F91400FFF798
:1006B80069FE46F8250004F109071D4B33F91400BB
:1006C800FFF760FE46F827002C46072CEADD0024D9
:1006D80012E01A4E04F11107174D305DFFF74EFE78
:1006E80045F8270004F10E0304F11F07F05CFFF73B
:1006F80045FE45F8270001340D2CEADD104B1B7828
:1007080043B9064800F028FA41000A4805F056FDAA
:1007180003B0F0BD01F0BAF8FAE700BFA407002063
:10072800600A0020B80700206C0B00203408002065
:100738004408002044060020C40C002018080020AB
:10074800BE0C002072B6FEE700B595B03822002135
:1007580006A805F06FFF0020019002900390049016
:10076800059002F0EDFE292306934FF4803307939A
:1007780001220B920C9202230D9303210E910F92EA
:100788002822109211931293139306A802F092FF55
:1007980080B90F2301930323029300230393049347
:1007A800059304210DEB010003F03AFA20B915B0C6
:1007B8005DF804FBFFF7C6FFFFF7C4FF08B501F0BB
:1007C80097F8FFF713FFFFF7BFFFFFF7B3FEFFF739
:1007D8002DFEFFF7F5FE00F0BBF805F095FC2B4861
:1007E80003F08CFC00F0D2FC0221002000F024FD74
:1007F8000A21012000F020FD4FF47A71022000F058
:100808001BFD00F00FFB4FF480722149214800F0D6
:10081800B7FB4FF480722049204800F0B1FB4FF439
:1008280080721F491F4800F0ABFB4FF480721E49CD
:100838001E4800F0A5FB1E4B002283F8002183F818
:100848000121802283F802217F2283F803210020DE
:1008580000F008FD01280FD0012000F003FD012859
:100868000DD0022000F0FEFC0128F0D14FF4005119
:10087800104801F034FEEAE7FFF7EAFEECE700F083
:10088800A7FF0D4B1B78022BF9D0EAE7440700209D
:10089800600800205408002060090020600A002039
:1008A8006C0A00206C0B0020780B0020780C0020CC
:1008B800C40C002000080048BF0C002000B583B01D
:1008C8000B4B1A6E42F001021A661A6E02F0010210
:1008D8000092009A9A6D42F080529A659B6D03F0DF
:1008E80080530193019B02F0B1FE03B05DF804FB55
:1008F80000100240FEE7FEE7FEE7FEE7FEE770476E
:100908007047704708B501F003F808BD08B50248FC
:1009180002F0CEFB08BD00BFA01A002008B50248AF
:1009280001F097FB08BD00BFD005002008B50248BC
:1009380001F08FFB08BD00BFD005002008B50248B4
:1009480003F022FC08BD00BF4407002070470000E8
:1009580000B585B000230193029303930E480F4A14
:1009680002609F22426083604FF47A72C2608361A2
:1009780003F064FD50B900230193039301A90648CD
:1009880003F08CFD28B905B05DF804FBFFF7DAFE2B
:10099800F1E7FFF7D7FEF6E7440700200014004010
:1009A80002680E4B9A4200D0704700B583B003F539
:1009B800FE339A6D42F020029A659B6D03F0200386
:1009C8000193019B00220121372000F0D9FF372035
:1009D80001F00EF803B05DF804FB00BF00140040FE
:1009E8000D488546FFF7B2FF0C480D490D4A002314
:1009F80002E0D458C4500433C4188C42F9D30A4ACC
:100A08000A4C002301E013600432A242FBD305F034
:100A1800EDFDFFF7D3FEFEE7008000200000002078
:100A2800B405002050680008B4050020A01F00206D
:100A3800FEE70000F8B50446184623610227277030
:100A4800FD2363700F23E3700023A37021711378D3
:100A580063710125A571204E3388C3F307212172E4
:100A680063725378A37203236373FC23A37300F0A8
:100A78004EFB3A462146206900F0F3FA2A46E1196E
:100A8800206900F0EEFA2A46E11C206900F0E9FA34
:100A98002A46211D206900F0E4FA2A46611D2069D2
:100AA80000F0DFFA2A46A11D206900F0DAFA2A468A
:100AB800E11D206900F0D5FA3A4604F108012069E1
:100AC80000F0CFFA2A4604F10A01206900F0C9FAB9
:100AD80033882B443380F8BD0400002070B582B001
:100AE80005460E4600240FE036F81430ADF8003005
:100AF80001220DEB0201286900F0B3FA01226946D0
:100B0800286900F0AEFA0134072CEDDD2B79062BAD
:100B18000BD00E2412E001220E492144286900F06E
:100B2800A0FA01340D2CF6DD0AE00024FAE70122D0
:100B380008492144286900F094FA01341B2CF6DD99
:100B48000023ADF80430022201A9286900F089FACF
:100B580002B070BD1808002008B5006900F096FAC8
:100B680008BD10B582B004468DF807202022006920
:100B780000F077FA01220DF10701206900F071FAFF
:100B880002B010BD00B586464FF0000C4FF6FF705E
:100B98000DE040080133072B07DC10F0010FF8D0F7
:100BA8004AF2010282EA5000F4E70CF1010C6145B7
:100BB80004DD1EF8013B58400023ECE75DF804FB18
:100BC80070B5A2B004460E46006900F05FFAADF8B1
:100BD8008400021D92B2ADF88420120A0221206915
:100BE80000F0ADFA9DF884200321206900F0A7FAEF
:100BF800206900F04BFA0546024601A9206900F079
:100C0800F5F9294601A8FFF7BDFFADF884000222D7
:100C180021A9206900F025FA022204F10D012069BA
:100C280000F01FFA2469204600F030FA02463146E7
:100C3800204600F0DBF922B070BD000010B500239B
:100C48000EE0C468022C13D10C7864F3070E4C78BC
:100C580064F30F2E254C24F813E009E00133DBB2CE
:100C6800062B17D81A4603F2011C04686445E8D01D
:100C780002F2111C04686445F0D1C468022CEDD15D
:100C88000C7864F3070E4C7864F30F2E184C24F894
:100C980012E0E3E70368B3F5847F03D0B3F58C7FF4
:100CA80010D010BDC2680A2AF8D18A7B0F4BDA81AE
:100CB800002304E0C85C0F4AD0540133DBB20D2B8B
:100CC800F8D9EEE7C3680A2BEBD18A7B084BDA81A7
:100CD800002308E003F10E0211F803C0054800F8EC
:100CE80002C00133DBB20D2BF4D9DAE73408002057
:100CF80044080020180800208389052B39D182B0C8
:100D08000023ADF800300B788DF800304A788DF864
:100D18000120022B1ED1FD2A1FD10023ADF804307B
:100D2800CB788DF804300A798DF80520032B16D17D
:100D3800FC2A16D18B78012B07D0022B13D0032B5A
:100D480013D0042B13D0022005E00B4B01221A709C
:100D5800022000E0032002B070470320FBE70420D4
:100D6800F9E70420F7E70020F5E70720F3E7082074
:100D7800F1E70020704700BFC20C002000B583B027
:100D88000368B32B08D8134B0093134B134AFFF790
:100D980055FF03B05DF804FBFFF7AEFF02280CD047
:100DA80007280ED0082810D0C31E012B01D900280F
:100DB800EFD10B4B01221A70EBE70A4B01221A7094
:100DC800E7E7094B01221A70E3E7084B01221A7082
:100DD800DFE700BF1808002044080020340800207E
:100DE800C00C0020C20C0020C10C0020BD0C00204B
:100DF80000B587B000230093019301220392029368
:100E080004934FF6FF7305936946054800F072FF97
:100E180010B907B05DF804FBFFF794FCF9E700BFD1
:100E2800D005002010B5FFF7E3FF054C0022012193
:100E3800204601F081F8204600F08CFF10BD00BF6D
:100E4800D005002008B5104B186000205860986045
:100E5800DA604FF000421A614FF480125A614FF481
:100E680000129A61D8611862084B1B68D3F8C43025
:100E780013F4001F01D0002008BD0A4602490348A8
:100E880000F07FFFF8E700BFF4070020D00500203E
:100E9800164B984200D0704730B591B0044611F017
:100EA800010504D111F0020F18D111B030BD104D59
:100EB8006B462A46402100F08DFF69462846FFF719
:100EC8005DFF00220121204601F036F8EDE76B4670
:100ED800074A4021204600F07DFF0135012DF6D953
:100EE80000220221014801F027F8DEE7D0050020A2
:100EF800CC07002000687047F8B505460F4616462F
:100F0800002406E02846FFF7F5FF47F824000435DB
:100F18000134B442F6D3F8BD024668B143889BB2A7
:100F28000133818893FBF1F001FB1033128892B2F0
:100F3800934203D00020704700207047012070477B
:100F4800C0B138B50C460546B1B1FFF7E5FF012839
:100F580014D0AA686B889BB22178D1546B889BB255
:100F68000133AA8893FBF2F102FB11339BB26B8029
:100F7800012038BD002070470020FAE70020F8E77C
:100F8800034628B121B10020188058809A809960C2
:100F9800704738B1028892B243889BB29A4203D014
:100FA800002070470020704701207047C0B138B555
:100FB8000C460546B1B1FFF7ECFF012814D0AA682A
:100FC8002B889BB2D35C23702B889BB20133AA88F1
:100FD80093FBF2F102FB11339BB22B80012038BD49
:100FE800002070470020FAE70020F8E7F0B170B55C
:100FF8000D4616460446D9B1FFF7CBFF012819D094
:1010080023889BB200220DE0A168CB5CAB542388F7
:1010180012FA83F30133A188B3FBF1F001FB10331B
:101028009BB201329642EFD8012070BD0020704774
:101038000020FAE70020F8E778B1F8B50D46164623
:10104800074661B1002404E029193846FFF7AEFFCE
:101058000134A642F8DC0120F8BD002070470020CA
:10106800FAE778B1F8B50D461646074661B100248F
:1010780004E029193846FFF763FF0134A642F8DC7B
:101088000120F8BD002070470020FAE70346B0B100
:10109800418889B2028892B2914209D240889A88DE
:1010A80012FA80F080B21B889BB2C01A80B27047D7
:1010B800408880B21B889BB2C01A80B2704700205B
:1010C800704710B50446FFF727FF01280BD0238887
:1010D8009BB20133A28893FBF2F102FB11339BB25E
:1010E8002380012010BD0020FCE770B506460D46A0
:1010F800002400E00134A54206DD3046FFF7E1FF99
:1011080003460028F6D100E00123184670BD438845
:101118009BB203807047024668B1808888420CD928
:10112800138811FA83F191FBF0F300FB1311936814
:1011380089B2585C70470020704700207047844689
:1011480080B1808888420FD9BCF8003011FA83F149
:1011580091FBF0F300FB1311DCF8083089B25A5404
:1011680001207047002070470020704743684BB14A
:101178004368013B43602BB9012343700378DBB21A
:10118800012B00D0704783684360FBE700230FE022
:10119800094803EB43018A00024400215160916031
:1011A800517003EB430C4FEA8C0281540133DBB2DC
:1011B800032BEDD9704700BF8C0C00200268194B37
:1011C8009A4200D0704710B500F0A2FB002407E057
:1011D80004EB4400144B03EB8000FFF7C7FF013416
:1011E800032CF5D9114B1A6801321A601A686FF08E
:1011F80000439A420AD00E4A138801331BB2138067
:1012080013881BB2B3F57A7F04D010BD074B0022B8
:101218001A60F0E7134600221A80064801F09CF98C
:10122800F3E700BF001400408C0C0020840C002061
:10123800880C002034060020032800D9FEE772B687
:10124800074A00EB400302EB8303596099600021D1
:10125800597000EB400083000121D15462B67047F9
:101268008C0C00200346032811D800EB40020949E2
:1012780001EB82025078C0B2012801D000207047EB
:1012880003EB430301EB830300225A7070470020ED
:10129800704700BF8C0C002000B583B010238DF878
:1012A8000730037823B1012B0BD003B05DF804FBA2
:1012B800407801220DF1070140F40070FFF7C2FDEC
:1012C800F3E7407801220DF1070140F40470FFF7BD
:1012D800B9FDEAE700B583B011238DF8073003782C
:1012E80023B1012B0BD003B05DF804FB4078012239
:1012F8000DF1070140F40070FFF7A4FDF3E7407813
:1013080001220DF1070140F40470FFF79BFDEAE7A5
:1013180000B583B001238DF80730037823B1012B82
:101328000BD003B05DF804FB407801220DF10701F2
:1013380040F40070FFF786FDF3E7407801220DF1D5
:10134800070140F40470FFF77DFDEAE730B583B08C
:10135800BB238DF8073000250BE005F5007001224E
:101368000DF107012044FFF76DFD0134082CF4DD71
:101378000135012D01DC0124F8E703B030BD00B5CB
:1013880083B0BB238DF80730037823B1012B0BD032
:1013980003B05DF804FB407801220DF1070140F429
:1013A8000070FFF74FFDF3E7407801220DF10701C8
:1013B80040F40470FFF746FDEAE7000070B59AB004
:1013C800054600240A943C2221460BA805F032F970
:1013D8000294039404940594069407940894099439
:1013E80040F20313ADF804302B78002B46D16E7809
:1013F800314C324B01AA01212046FFF71BFB324634
:1014080002A92046FFF7ADFB0AA92046FFF7D8FB43
:101418000E220AA940F22220FFF714FD284B1B7860
:10142800002BFBD0274C02238DF80530224D234B8F
:1014380001AA01212846FFF7FDFA08220DEB020157
:101448002046FFF759FD324602A92846FFF789FBD7
:101458000AA92846FFF7B4FB0E220AA940F2222067
:10146800FFF7F0FC2034184B9C420BD8174B1B7825
:10147800002BFBD0154B00221A70D4E76E7846F08B
:101488001006B5E703238DF805300C4B01AA01219E
:101498002846FFF7CFFA324602A92846FFF761FB34
:1014A8000AA92846FFF78CFB0E220AA940F222203F
:1014B800FFF7C8FC1AB070BD900700205408002040
:1014C800C10C002000000108FFFF0108C20C002029
:1014D80070B59AB0054600240A943C2221460BA810
:1014E80005F0A8F8029403940494059406940794CC
:1014F8000894099440F20313ADF804302B78002BBC
:101508003CD16D786D4B1B78F02B00F0D2806C4C81
:101518006C4B01AA01212046FFF78CFA2A4602A942
:101528002046FFF71EFB0AA92046FFF749FB0E22BB
:101538000AA940F22220FFF785FC634B1B780BBBFE
:10154800624B1B78012BF8D15D4C5E4B01AA01213F
:101558002046FFF76FFA2A4602A92046FFF701FB4B
:101568000AA92046FFF72CFB0E220AA940F22220E6
:10157800FFF768FC544B00221A70DEE76D7845F0DF
:101588001005BFE7524C45E003238DF805304D4B5D
:1015980001AA01213046FFF74DFA2A4602A9304632
:1015A800FFF7DFFA0AA93046FFF70AFB0E220AA95D
:1015B80040F22220FFF746FC0135EDB2424B0022F3
:1015C8001A70444B1B78002B9CD1404B1B78012B85
:1015D80003D0404B00221A70F3E703238DF805303F
:1015E800374C384B01AA01212046FFF723FA2A4637
:1015F80002A92046FFF7B5FA0AA92046FFF7E0FA44
:101608000E220AA940F22220FFF71CFCD9E7324B30
:1016180000221A7002238DF80530294E294B01AAA1
:1016280001213046FFF706FA08220DEB0201204699
:10163800FFF762FC2A4602A93046FFF792FA0AA988
:101648003046FFF7BDFA0E220AA940F22220FFF722
:10165800F9FB2034214B9C4296D81F4B1B78002B5A
:10166800D5D11A4B1B78012BF7D1203C02238DF8DA
:101678000530134E134B01AA01213046FFF7DAF962
:1016880008220DEB02012046FFF736FC2A4602A984
:101698003046FFF766FA0AA93046FFF791FA0E229C
:1016A8000AA940F22220FFF7CDFB074B00221A704F
:1016B800D3E7024B00221A701AB070BDBC0C002090
:1016C8009007002054080020C10C0020C00C002006
:1016D80000000108BD0C0020C20C0020FFFF01081B
:1016E80030B583B01048FFF7D1FC012819D9054659
:1016F800002407E001210C48FFF7F7FC10F0FF0F6A
:101708000FD00134A5420CD9022201A90648FFF7DF
:101718006DFC9DF80430EB2BECD19DF80530092BBE
:10172800E8D103B030BD00BF780C0020054B1B7812
:101738001BB9044B01221A707047024B00221A7021
:10174800704700BFBE0C002008B510F8023B0F2BF5
:101758000ED85AB2BAB1013B0E2B14D8DFE803F009
:1017680011141317131313131313201323131A002D
:10177800DD2B12D0FF2B19D0BB2B04D1FFF71EFE97
:1017880001E0FFF789FD08BDFFF7A4FDFBE7FFF7C0
:10179800CDFFF8E7FFF7BCFDF5E7FFF7D7FDF2E768
:1017A800FFF7EDFDEFE7FFF793FEECE7BFF34F8F91
:1017B8000549CA6802F4E062044B1343CB60BFF3E7
:1017C8004F8F00BFFDE700BF00ED00E00400FA0501
:1017D80030B5C3B02B48FFF759FC042804D82A4B6E
:1017E80000221A7043B030BD044604220DEB0201FA
:1017F8002448FFF7FBFB9DF80430EB2B03D19DF841
:101808000530092B05D0FFF76BFF1F4B03221A7019
:10181800E8E79DF807500635EDB2A54203D91A4B03
:1018280000221A70DEE7691E89B21648FFF773FCBA
:101838000A2809D002211348FFF757FCFFF750FF89
:10184800114B05221A70CDE7A91E89B20D48FFF782
:1018580062FC0D28EED10B4C02212046FFF745FC17
:101868002A1F92B202A92046FFF7E6FB0221204672
:10187800FFF73BFC02A8FFF767FF034B02221A7031
:10188800B0E700BF780C0020BF0C002008B54FF46B
:101898008271024804F092FC08BD00BFC40C00200D
:1018A800104B1B680BB90120704710B504464FF464
:1018B8007A70B0FBF3F30C4A1068B0FBF3F000F059
:1018C800A5F868B90F2C01D901200AE000222146A9
:1018D8004FF0FF3000F054F8044B1C60002000E08B
:1018E800012010BD08000020000000200C0000208E
:1018F80010B5032000F032F80F20FFF7D1FF10B128
:101908000124204610BD0446FEF7D8FFF9E7000081
:10191800034A1368034909680B441360704700BF02
:10192800C80D002008000020014B1868704700BF50
:10193800C80D002038B50446FFF7F6FF0546B4F198
:10194800FF3F02D0044B1B681C44FFF7EDFF401B10
:10195800A042FAD338BD00BF08000020074AD36868
:1019680023F4E0631B041B0C000200F4E060034353
:1019780043F0BF6343F40033D360704700ED00E0E9
:1019880000B5194BDB68C3F30223C3F1070CBCF1A4
:10199800040F28BF4FF0040C03F1040EBEF1060F2C
:1019A80018D9033B4FF0FF3E0EFA0CFC21EA0C015C
:1019B80099400EFA03F322EA0303194300280BDBCC
:1019C8000901C9B200F1604000F5614080F80013D8
:1019D8005DF804FB0023E5E700F00F000901C9B238
:1019E800024B1954F4E700BF00ED00E014ED00E0ED
:1019F800002807DB00F01F02400901239340024A38
:101A080042F82030704700BF00E100E00138B0F133
:101A1800807F0BD24FF0E0235861054AF02182F80D
:101A280023100020986107221A617047012070472F
:101A380000ED00E0144B03640168D1F8802022F423
:101A4800F812D0F834C042EA0C42C1F880200F4A9C
:101A580042640168D1F8802022F07062D0F838C062
:101A680042EA0C62C1F88020094A8264D832C26412
:101A7800D83202651832426502E0002243F8042B8E
:101A8800044A9342F9D9704700A4004070A400406A
:101A9800B0A400404FA7004070B54C68ECB90D6980
:101AA8008C6825430C6845EA8445CC690E6A44EA8B
:101AB80006648E6934434E693443CE6844EA06446A
:101AC800406D03EBC30300EBC30E40F83350CEF870
:101AD80004400EF1080E002019E00C698D682543BA
:101AE8000C68254345F08045DFE702EB000C9CF8C5
:101AF80003409CF802301B0443EA04639CF801404D
:101B080043EA0423145C23434EF8043B0430CB68B7
:101B1800024CE35C8342E8D870BD00BFE867000868
:101B2800002800F0E38038B5044690F85C30D3B163
:101B38002268936923F010039361FFF7F5FE0546C9
:101B480023689A6912F0080F12D0FFF7EDFE401BC8
:101B58000A28F5D9236E43F001032366032384F88A
:101B68005C30012038BD80F85D30FEF789FCDFE786
:101B78009A6942F001029A61FFF7D6FE054623688A
:101B88009A6912F0010F0DD1FFF7CEFE401B0A280B
:101B9800F5D9236E43F001032366032384F85C30F0
:101BA8000120DFE79A6942F002029A612268504BED
:101BB8009A4242D0237C012B45D02268936943F096
:101BC80040039361637C012B43D02268936923F41B
:101BD80080439361A37C012B41D02268936943F42D
:101BE800805393612268936923F44073A1680B437F
:101BF80093612268936923F0A403936122681369AF
:101C080023F010031361E368012B2ED0002B31D091
:101C1800022B54D02268936943F0800393612268B1
:101C2800136943F010031361E368032B22D1226880
:101C3800936943F0200393611CE06268A3F5806315
:101C4800C3F80025B6E72268936923F0400393613F
:101C5800B8E72268936943F480439361BAE722683E
:101C6800936923F480539361BCE72268936943F036
:101C780004039361A3695A1EE369013B1B0243EA0B
:101C88004263226A013A13436269013A216843EACE
:101C98000243CB61A368B3F5407F16D02268D2F81F
:101CA800C030E16B0B43C2F8C0302046FFF7C2FEDC
:101CB8000020A0652066012384F85C3052E7226882
:101CC800936943F020039361D4E7A36A013BE26A76
:101CD800013A43EA0223226B013A43EA0213626A99
:101CE800013A216843EA0243CB60D7E701207047F5
:101CF8000064004090F85C30013BDBB2012B05D951
:101D0800036E43F002030366012070470B687BB93A
:101D18008A68CB68DB0643EA82730A6943EA0243AE
:101D28004A691343026C496842F821300020704721
:101D3800CA680B6943EA42724B69D1F808C043EAA2
:101D48008C73406C496800EBC10C40F83120CCF82A
:101D58000430EBE790F85C30DBB2012B05D0036E62
:101D680043F00403036601207047022380F85C30C7
:101D78000268936923F00103936100230366184600
:101D8800704738B5044690F85C30DBB2022B1BD1A3
:101D98000368D3F8C40010F4001F05D0236E43F481
:101DA80000732366012014E0D3F8C450C5F301453D
:101DB8002B462046FFF770FE22680123AB40C2F88D
:101DC800CC30A365002004E0036E43F008030366EB
:101DD800012038BD70B590F85C40E4B2022C40F0A8
:101DE800A28040290BD00468D4F8985015F00F0F42
:101DF8002DD1036E43F480730366012098E00468D4
:101E0800D4F8905015F00F0F05D1036E43F480738A
:101E1800036601208CE0D4F89050C5F3006C15F0EF
:101E2800807F08D0D4F88050C5F3402C15F4007F8B
:101E380001D04FF0010CD4F89040C4F301240CEB0E
:101E48000405846C05EBC50C04EBCC0C1AE0D4F843
:101E58009850C5F3006C15F0807F08D0D4F88050F6
:101E6800C5F3002C15F4807F01D04FF0010CD4F895
:101E78009840C4F301240CEB0405C46C05EBC50CB5
:101E880004EBCC0CDCF8004004F08044546074BBD4
:101E9800DCF80040C4F38A441460DCF8004004F025
:101EA80000549460DCF8004004F000441461BCF86D
:101EB8000440D461BCF8064004F00F04D460DCF898
:101EC800044004F480145461DCF8044004F4001461
:101ED80094619CF8074004F07F041462DCF8044025
:101EE800E40F54620CF1080E4FF0000C0BE0DCF824
:101EF800004024F060441460CFE71EF80C4003F85B
:101F08000C400CF1010C0B4CD668A45D6445F4D868
:101F1800402904D00368C3F89C50002008E00368F7
:101F2800C3F89450F9E7036E43F0080303660120F1
:101F380070BD00BFE867000890F85C30013BDBB279
:101F4800012B05D9036E43F0020303660120704795
:101F580070B40468A36D11F0070602D013F0010FE6
:101F680023D011F0380F02D013F0020F1DD011F456
:101F7800E07F02D013F0040F17D011F4F05F02D005
:101F880013F0080F11D011F4604F02D013F0100FA6
:101F98000BD011F4403F02D013F0200F05D011F4FC
:101FA8007C0F06D013F0400F03D1E56D45F0010515
:101FB800E56516B113F0010F23D111F0380F02D0E7
:101FC80013F0020F1DD111F4E07F02D013F0040FBB
:101FD80017D111F4F05F02D013F0080F11D111F4EA
:101FE800604F02D013F0100F0BD111F4403F02D014
:101FF80013F0200F05D111F47C0F07D013F0400F18
:1020080004D00468E36D43F00203E36511F0800F28
:1020180005D00468D4F8DC301343C4F8DC3011F47C
:10202800807F05D00468D4F8E0301A43C4F8E02073
:102038000268536D19435165002070BC70477047A2
:1020480070477047704770477047704770477047D0
:1020580070472DE9F84F044603681A6D02F4E05AF8
:102068005A6D0AEA020A1A6D02F007095A6D09EA5E
:1020780002091A6D02F038085A6D08EA02081E6D46
:1020880006F471065A6D16401F6D07F460275A6DE5
:102098001740D3F854B01D6D15F0400F02D01BF057
:1020A800400F41D115F4807F02D01BF4807F40D1CE
:1020B800BAF1000F4AD1B9F1000F4FD1B8F1000FB2
:1020C80054D115F4007F02D01BF4007F56D115F0CF
:1020D800800F02D01BF0800F58D115F4005F02D09A
:1020E8001BF4005F5ED115F4004F02D01BF4004FC3
:1020F80060D115F4804F0AD01BF4804F07D02368B5
:102108004FF480421A65236E43F080032366002F44
:1021180058D126B123681E65236E1E432666236E9A
:10212800002B56D1BDE8F88F40221A65FFF78EFFC5
:10213800B8E72368D3F8D810D3F8E0204FF48070BC
:10214800186511402046FFF77EFFB1E72368C3F802
:1021580050A051462046FFF772FFACE72368C3F84A
:10216800509049462046FEF793FEA7E72368C3F838
:10217800508041462046FFF763FFA2E723684FF4EB
:1021880000721A652046FFF75CFFA0E72368D3F8C2
:10219800D410D3F8DC208020186511402046FFF7C2
:1021A80051FF9AE723684FF400521A652046FFF75B
:1021B8004BFF98E723684FF400421A652046FFF763
:1021C80044FF96E723681F6539462046FFF740FF1E
:1021D8009FE72046FFF73BFFA4E7000070B582B0F9
:1021E800002365E085685E000324B44025EA040501
:1021F800CC68B4402C438460446824EA0C0C4C68D6
:10220800C4F300149C4044EA0C04446061E0DD0817
:10221800083550F8256003F007044FEA840C0F24B2
:1022280004FA0CF426EA040E0C6904FA0CF444EAE5
:102238000E0440F8254063E0052400E0002404FA79
:102248000EF42C430CF1020C574D45F82C40574C1A
:10225800A568D44325EA0206D1F804C01CF4801FFF
:1022680001D042EA0506514DAE60ED6804EA050664
:10227800D1F804C01CF4001F01D042EA05064B4DFA
:10228800EE606D6804EA0506D1F804C01CF4003F4E
:1022980001D042EA0506454D6E602D682C404E6817
:1022A80016F4803F01D042EA0504404A1460013325
:1022B8000A6832FA03F474D04FF0010C0CFA03FCEC
:1022C8001CEA0202F3D04C6804F00304013C012C20
:1022D80088D94C6804F00304032C0CD0C4685D0052
:1022E8004FF0030C0CFA05FC24EA0C0C8C68AC408B
:1022F80044EA0C04C4604C6804F00304022C86D041
:1023080004684FEA430E4FF0030C0CFA0EFC24EA63
:102318000C0C4C6804F0030404FA0EF444EA0C04B0
:1023280004604C6814F4403FC1D0214C256E45F040
:1023380001052566246E04F001040194019C4FEA0E
:10234800930C0CF10205184C54F8255003F00304C3
:102358004FEA840E0F2404FA0EF425EA0405B0F1BE
:10236800904F3FF46BAF134CA04212D004F5806439
:10237800A04210D004F58064A0420ED004F5806419
:10238800A0420CD004F58064A0423FF455AF062467
:1023980055E7012453E7022451E703244FE70424B7
:1023A8004DE702B070BD00BF0000014000040140CD
:1023B8000010024000040048002331FA03F200F044
:1023C8008180F0B52EE0052500E0002505FA0CFC1B
:1023D800A4455BD004685D004FF0030C0CFA05FCC3
:1023E80044EA0C0404604FEAD30E0EF1080E50F8CC
:1023F8002E4003F00705AE000F25B54024EA05047A
:1024080040F82E40C46824EA0C04C460446824EAF6
:1024180002024260826822EA0C028260013331FAC9
:1024280003F24ED001229A4012EA0107F6D04FEA91
:10243800930E0EF10205244C54F8254003F0030CCA
:102448004FEA8C0C0F2505FA0CF63440B0F1904F8A
:10245800BBD01E4DA84211D005F58065A8420FD00B
:1024680005F58065A8420DD005F58065A8420BD01A
:1024780005F58065A842A6D00625A7E70125A5E7AA
:102488000225A3E70325A1E704259FE7104C25684B
:1024980025EA07052560656825EA07056560E5689A
:1024A80025EA0705E560A56825EA0707A760064F3E
:1024B8000EF1020457F8245025EA060547F824507F
:1024C80088E7F0BD704700BF0000014000040048E5
:1024D800000401400AB18161704781627047436915
:1024E80001EA030221EA030141EA024181617047DE
:1024F80000282FD038B5044603684CF6CC421A6041
:10250800036845F255521A60036842685A600368C6
:1025180082689A60FFF708FA05462368DA6812F0BD
:10252800070F0BD0FFF700FA401B3128F5D92368B5
:10253800DB6813F0070FF0D0032005E01969E268A3
:10254800914202D01A61002038BD4AF6AA221A60C8
:102558000020F9E70120704703684AF6AA221A60AA
:102568000020704738B512F4804F43D00468B4F89F
:10257800503091F800C04FEACC0E1EFA83F3234482
:10258800B3F80244C4F309048B69A34228D31B1B84
:102598008B618B697BB9056835F82C309BB223F4C5
:1025A800804323F0700383F4005343F4004343F063
:1025B800800325F82C3012F0400F0ED002680D78F9
:1025C80032F825309BB223F4E04323F0700343F440
:1025D800004343F0C00322F8253024B9204638BD13
:1025E80000238B61D5E723460A894969006802F010
:1025F800A1FEF3E70468B4F8503091F800C04FEA40
:10260800CC0E1EFA83F32344B3F80644C4F309043A
:102618008B69A3422FD31B1B8B618B697BB9056820
:1026280035F82C309BB223F4804323F0700383F4F5
:10263800005343F4004343F0800325F82C3012F094
:10264800400F0FD1026891F800C032F82C309BB2CD
:1026580023F4E04323F0700343F4004343F0C00342
:1026680022F82C30002CB9D023464A8949690068E1
:1026780002F060FEB2E700238B61CEE7002856D057
:1026880010B5044690F891323BB1032384F8913297
:10269800206801F05DFF002315E080F8903203F018
:1026A8004BFEF2E703EB830204EBC20201215174F3
:1026B80013740021D17411625162013303EB830258
:1026C800D200A150DBB220799842EBD8002316E063
:1026D80003EB830204EBC202002182F8511182F855
:1026E800503182F85311C2F86011C2F8641103EB3B
:1026F800830204EBC202C2F868110133DBB29842CC
:10270800E6D8234653F8040B93E8060001F02AFFA5
:1027180000232373012384F89132A37A012B01D07B
:10272800002010BD204600F0F5FE0020F9E701204A
:10273800704790F89032012B0ED010B50446012353
:1027480080F89032006801F0FAFE206802F00EFB73
:10275800002084F8900210BD0220704770B505462D
:102768000C46164612F0400F00F020810268B2F8BD
:10277800503009784FEAC10C1CFA83F31344B3F8BC
:102788000224C2F30902A36993422CD99B1AA361BC
:10279800A06958B316F4804F0DD0286830F821305E
:1027A8009BB223F4E04323F0700343F4404343F027
:1027B800800320F8213094F82430012B00F08D801C
:1027C8002A68217832F821309BB223F4E04323F0C1
:1027D800400383F0300343F4004343F0800322F8BE
:1027E8002130002070BD0023A361D1E76378002B5E
:1027F80048D12A68B2F8503012FA83F36344B3F828
:102808000224C2F30902A3F80224B3F802246FEAEF
:1028180042426FEA524292B2A3F8022429686278CF
:10282800002A3BD1B1F8503011FA83F3227803EB38
:10283800C203B3F80624C2F30902A3F80624B3F8C6
:1028480006246FEA42426FEA524292B2A3F8062483
:10285800E378022B2FD02178284603F0B1FD16F437
:10286800804FBED02A68217832F821309BB223F4F9
:10287800E04323F0700343F4404343F0800322F81D
:102888002130AEE7012BC9D12A68B2F8503012FACC
:1028980083F363440022A3F80224BFE7012AD7D1B7
:1028A800B1F8503011FA83F3217803EBC103002209
:1028B800A3F80624CCE72A68217832F821309BB2A5
:1028C80023F4E04323F0400383F0200343F4004360
:1028D80043F0800322F82130BDE763691344636144
:1028E800E3691344E361216A236999421DD3C91A34
:1028F80021626278002A44D12968B1F8502011FA7F
:1029080082F2217802EBC102B2F80214C1F3090184
:10291800A2F80214ABB9B2F802146FEA41416FEAA7
:10292800514189B2A2F802142DE021B9002384F89C
:1029380024301346DDE7002384F8243023620B4655
:10294800D7E73E2B0DD8590813F0010F00D00131FD
:10295800B2F8020480B2890289B20143A2F80214D3
:1029680011E0580913F01F0F00D10138B2F8021412
:1029780089B2800280B2014341F40041A2F80214F6
:1029880001E0012A06D09BB222896169286802F019
:10299800FCF915E72968B1F8502011FA82F221787C
:1029A80002EBC10299B2A2F80214ECE70268B2F88D
:1029B80050300978C80010FA83F31344B3F806249A
:1029C800C2F30902A369934246D39B1AA361A36980
:1029D800002B44D016F4804F0DD1286830F82130F0
:1029E8009BB223F4E04323F0700343F4404343F0E5
:1029F800800320F8213094F82430012B7FF4E0AED6
:102A0800636913446361E3691344E361216A2369D9
:102A18009942C0F09C80C91A216229686278002A0C
:102A280040F0C180B1F8502011FA82F2217802EB0F
:102A3800C102B2F80614C1F30901A2F80614002B6A
:102A480040F09180B2F806146FEA41416FEA5141B3
:102A580089B2A2F80614A8E00023A361B7E7637857
:102A6800002B49D12A68B2F8503012FA83F318447F
:102A7800B0F80234C3F30903A0F80234B0F8023402
:102A88006FEA43436FEA53439BB2A0F802342968C4
:102A98006278002A3CD1B1F8503011FA83F32278D9
:102AA80003EBC203B3F80624C2F30902A3F8062411
:102AB800B3F806246FEA42426FEA524292B2A3F890
:102AC8000624E378022B30D02178284603F078FCDE
:102AD80016F4804F7FF485AE2A68217832F82130C9
:102AE8009BB223F4E04323F0700343F4404343F0E4
:102AF800800322F8213074E6012BC8D12A68B2F885
:102B0800503012FA83F318440023A0F80234BEE7C9
:102B1800012AD6D1B1F8503011FA83F3217803EBAA
:102B2800C1030022A3F80624CBE72A68217832F8EB
:102B380021309BB223F4E04323F0400383F02003C9
:102B480043F4004343F0800322F82130BCE721B965
:102B5800002384F8243013465FE70023236284F8B7
:102B680024300B4659E73E2B0DD8590813F0010FB6
:102B780000D00131B2F8060480B2890289B201435B
:102B8800A2F8061411E0580913F01F0F00D10138FC
:102B9800B2F8061489B2800280B2014341F40041C0
:102BA800A2F8061401E0012A06D09BB26289616985
:102BB800286802F0EAF803E6B1F8502011FA82F129
:102BC800227801EBC2019AB2A1F80624EDE72DE9BB
:102BD800F04105462868B0F8443013F4004F00F07F
:102BE8005182B0F84440A3B214F00F0440F09F8023
:102BF80013F0100F4AD003889AB213F4006F75D1FE
:102C080012F4004FE6D0038823F070031B051B0D58
:102C180043F0800303802868B0F8503095F85021BD
:102C2800D20012FA83F30344B3F80634C3F309035A
:102C3800C5F86C318BB1D5F8641171B1B5F856216E
:102C480002F078FBD5F86C21D5F864311344C5F847
:102C580064310021284603F0A7FB2A68138899B23B
:102C680013F4006FB6D101F44051B1F5405FB1D013
:102C780013889BB223F4804323F0700383F44053FA
:102C880043F4004343F080031380A3E703889BB217
:102C980023F4E14323F070036FEA43436FEA53439D
:102CA8009BB203802968B1F850302A7CD20012FA0E
:102CB80083F30B44B3F80234C3F30903EB626A6A83
:102CC80013446B620021284603F07AFB2B7B002B10
:102CD80080D0AB6A002B7FF47DAF2B7B2A6843F052
:102CE8008003A2F84C3000232B7373E7B0F8503000
:102CF80095F85021D20012FA83F30344B3F806344E
:102D0800C3F30903C5F86C31B5F8562105F52671EA
:102D180002F010FB2A68138823F070031B051B0DB3
:102D280043F080031380284603F036FB52E730F85F
:102D380024309EB213F4004F4ED116F0800F3FF4AA
:102D480049AF04EB8401C900103129442A6832F8DC
:102D580024309BB223F4E14323F070036FEA43432A
:102D68006FEA53439BB222F8243004EB840305EB4B
:102D7800C303DB7C012B00F0E98016F4807F40F070
:102D88007C812868B0F8503004EB840205EBC2025D
:102D9800167CF20012FA83F30344B3F80234C3F347
:102DA8000903621C02EB820255F832209A4240F273
:102DB8004B81671C07EB8707D21A45F83720621C3E
:102DC80002EB820255F83220002A40F04481314655
:102DD800284603F0F5FAFDE630F8243023F07003B6
:102DE8001B051B0D43F0800320F8243004EB8401FD
:102DF800C90001F5A87105EB010804EB840305EB94
:102E0800C30393F85C31002B40D12868B0F85030E8
:102E180004EB840205EBC20292F85021D20012FAA8
:102E280083F30344B3F80674C7F3090717BB04EB2D
:102E3800840305EBC303D3F86C213A44C3F86C212F
:102E4800D3F864213A44C3F86421D3F868313BB11C
:102E580004EB840305EBC303D3F860319F4270D2BF
:102E680004EB840305EBC30393F85011284603F0E1
:102E78009BFA62E704EB840105EBC1013B46B1F81C
:102E88005621D1F8641102F055FAD0E704EB840317
:102E980005EBC30393F85331022B33D0296804EBB5
:102EA800840205EBC20292F8500131F820309BB23F
:102EB80023F4E04323F0700343F4004343F0C003DA
:102EC80021F82030286892F8503130F8232012F485
:102ED800804F1ED0B0F85020DB0013FA82F3034471
:102EE800B3F80274C7F30907002FA0D004EB8401DC
:102EF80005EBC1013B46B1F85821D1F8641102F045
:102F080019FA94E7324641462846FFF72BFB074655
:102F18008DE7B0F85020DB0013FA82F30344B3F8CE
:102F28000674C7F30907002F81D004EB840105EB71
:102F3800C1013B46B1F85A21D1F8641102F0FAF9FF
:102F480075E74146286801F033FFF6E6631C03EB9A
:102F58008303DB000022EA5004EB840305EBC30380
:102F68001B7F1BB316F0400F3BD004EB840305EB2B
:102F7800C3035B7C1BBB2A68B2F8503012FA83F398
:102F880004EB840205EBC202127C03EBC203B3F824
:102F98000224C2F30902A3F80224B3F802246FEA58
:102FA80042426FEA524292B2A3F8022404EB84042C
:102FB80005EBC404217C284603F002FA0AE6012B3B
:102FC800F4D12A68B2F8503012FA83F304EB840281
:102FD80005EBC202127C03EBC2030022A3F8022411
:102FE800E4E72A6804EB840305EBC3035B7CD3B9ED
:102FF800B2F8503012FA83F304EB840205EBC202F4
:10300800127C03EBC203B3F80624C2F30902A3F847
:103018000624B3F806246FEA42426FEA524292B29B
:10302800A3F80624C2E7012BC0D1B2F8503012FA37
:1030380083F304EB840205EBC202127C03EBC203A8
:103048000022A3F80624B1E7621C02EB8202D20038
:103058000027AF50B3E604EB840205EBC202566AC0
:103068001E445662013404EB840205EBC202546824
:103078002344536001F09CFEACE532462846FFF736
:103088006DFBA7E50020BDE8F08190F89032012B98
:103098000CD010B50446012380F890320173006803
:1030A80001F05EFE002084F8900210BD02207047F7
:1030B80010B50446006801F064FE10F4004F23D1F7
:1030C80010F4806F24D110F4804F32D110F4005FD7
:1030D80039D110F4805F40D110F4006F67D110F03F
:1030E800800F40F0818010F4007F40F0AD8010F434
:1030F800807F27D02268B2F844309BB223F48073D3
:103108009BB2A2F844301DE02046FFF760FD19E0AD
:103118002268B2F844309BB223F480639BB2A2F8D1
:103128004430204603F05DF900212046FFF7ADFF4B
:1031380008E02268B2F844309BB223F480439BB283
:10314800A2F8443010BD2268B2F844309BB223F490
:1031580000539BB2A2F84430F4E72268B2F840303A
:103168009BB223F004039BB2A2F840302268B2F865
:1031780040309BB223F008039BB2A2F8403094F889
:10318800C832012B0CD0204603F04EF92268B2F861
:1031980044309BB223F480539BB2A2F84430D1E769
:1031A800002184F8C812204603F0F6F9EBE72268FC
:1031B800B2F840309BB243F00803A2F840302268CE
:1031C800B2F844309BB223F400639BB2A2F84430B7
:1031D8002268B2F840309BB243F00403A2F84030B2
:1031E800204603F011F9ADE72268B2F844309BB2EB
:1031F80023F080039BB2A2F8443094F8C832FBB99C
:103208002268B2F840309BB243F00403A2F8403081
:103218002268B2F840309BB243F00803A2F840306D
:10322800012184F8C8122368B3F85430C3F38D031E
:1032380003F03C03C4F8CC32204603F0ADF981E733
:10324800204603F0E1F87DE72268B2F844309BB2EB
:1032580023F400739BB2A2F84430204603F0BBF875
:1032680070E710B50446084611F0800F27D101F029
:10327800070C0CEB8C01C90001F5A87E04EB0E01CC
:103288000CEB8C0C04EBCC0C4FF0000E8CF851E1DD
:1032980000F007000870C2F30A020A61CB70022B23
:1032A8001DD094F89032012B1CD0012384F8903261
:1032B800206801F068F9002084F8900210BD01F040
:1032C800070C0CEB8C01C900103121440CEB8C0C61
:1032D80004EBCC0C4FF0010E8CF811E0D8E700237A
:1032E8000B71DEE70220E9E710B504460A4611F043
:1032F800800F1FD101F0070000EB8003DB0003F50E
:10330800A873E11800EB800004EBC000002380F8EC
:10331800513102F007020A7094F89032012B17D04D
:10332800012384F89032206801F0BCFB002084F867
:10333800900210BD01F0070000EB8003DB001033A2
:10334800E11800EB800004EBC00001234374E0E7C0
:103358000220EEE710B501F0070C0CEB8C01C90058
:1033680001F5A8710CEB8C0E00EBCE0ECEF86421A3
:10337800CEF868310024CEF86C418EF851418EF8B1
:1033880050C10144006801F013FD204610BD01F052
:10339800070101EB810100EBC101D1F86C01704715
:1033A80038B501F0070C0CEB8C01C90010310CEB9F
:1033B8008C0E00EBCE0ECEF824200CF1010202EBAD
:1033C800820440F8343001258EF83450CEF830307D
:1033D80000EBC402002454608EF811508EF810C01F
:1033E8000144006801F0E4FC204638BD0B4601F0BA
:1033F8000702017991422ED310B5044613F0800FCD
:103408001DD103EB8301C90001F5A871014403EB49
:10341800830300EBC303002083F8510101238B7061
:103428000A7094F89032012B17D0012384F8903257
:10343800206801F022FC002084F8900210BD02EB05
:103448008201C9001031014402EB820300EBC3037F
:1034580001205874E2E7012070470220EEE70B468E
:10346800017903F00F02914234D310B5044613F0EA
:10347800800F21D103F0070202EB8201C90001F598
:10348800A871014402EB820200EBC202002082F81C
:10349800510100228A7003F007030B7094F89032F0
:1034A800012B19D0012384F89032206801F00AFC1E
:1034B800002084F8900210BD03F0070202EB82019D
:1034C800C9001031014402EB820200EBC202012064
:1034D8005074DEE7012070470220ECE711F0800FFE
:1034E8000BD001F0070101EB8101C9001031014443
:1034F80052B90A73CB800020704701EB8101C900E3
:1035080001F5A8710144F3E701220A730B811B0C32
:103518004B81F0E7034602680121C0F8D012002071
:1035280083F8C802B2F854309BB20B43A2F8543067
:10353800B2F854309BB243F00203A2F854307047FB
:10354800002836D13E4B1B6803F4C063B3F5806F87
:1035580008D03B4AD2F8803023F48073C2F8803018
:1035680000207047364AD2F8803023F48073C2F8BE
:103578008030136823F4C06343F400731360314B45
:103588001B68322202FB03F32F4AA2FB03239B0C86
:10359800013300E0013B2A4A526912F4806F01D0DE
:1035A800002BF7D1264B5B6913F4806F44D10020C0
:1035B8007047B0F5007F08D0214A136823F4C06330
:1035C80043F480631360002070471D4B1B6803F4AD
:1035D800C063B3F5806F08D0194AD2F8803043F43D
:1035E8008073C2F8803000207047154AD2F88030C6
:1035F80043F48073C2F88030136823F4C06343F443
:10360800007313600F4B1B68322202FB03F30E4A50
:10361800A2FB03239B0C013300E0013B084A5269DB
:1036280012F4806F01D0002BF7D1054B5B6913F4BE
:10363800806F03D100207047032070470320704734
:10364800007000400000002083DE1B43024A93689C
:1036580043F480439360704700700040124BDA686F
:1036680002F00302D868C0F30310431C032A11D0E8
:103678000E48B0FBF3F00C4BDB68C3F3062303FBE7
:1036880000F0094BDB68C3F3416301335B00B0FB17
:10369800F3F070470648B0FBF3F0034BDB68C3F365
:1036A800062303FB00F0ECE7001002400024F400BE
:1036B80000127A00002800F04F8270B582B00446EC
:1036C800036813F0010F37D0A44A936803F00C0382
:1036D800D26802F003020C2B23D0082B23D0636896
:1036E800B3F5803F4ED0B3F5A02F51D09B4B1A684D
:1036F80022F480321A601A6822F480221A60636801
:10370800002B52D0FEF710F90546944B1B6813F4B2
:10371800003F11D1FEF708F9401B6428F5D90320B2
:1037280023E2032AD9D18D4B1B6813F4003F03D041
:103738006368002B00F01282236813F0020F5DD03B
:10374800864A936803F00C03D26802F003020C2B3C
:103758003AD0042B3AD0E368002B75D07F4A13681F
:1037680043F480731360FEF7DFF805467B4B1B6854
:1037780013F4806F5FD1FEF7D7F8401B0228F5D904
:103788000320F2E1754A136843F480331360B6E707
:1037980003F18043A3F53C331A6842F480221A608F
:1037A8001A6842F480321A60A9E7FEF7BDF80546A8
:1037B8006A4B1B6813F4003FBED0FEF7B5F8401BF8
:1037C8006428F5D90320D0E1022AC2D1634B1B68D3
:1037D80013F4806F03D0E368002B00F0C1815F4AC7
:1037E800536823F0FE43216943EA016353605C4B4D
:1037F8001868FEF755F8002840F0B481236813F0E4
:10380800080F4CD063699BB3544AD2F8943043F004
:103818000103C2F89430FEF787F805464F4BD3F8FA
:10382800943013F0020F3AD1FEF77EF8401B0228BD
:10383800F4D9032099E1494A536823F0FE432169EA
:1038480043EA01635360D9E7444A136823F4807359
:103858001360FEF769F80546404B1B6813F4806F48
:10386800CCD0FEF761F8401B0228F5D903207CE193
:103878003A4AD2F8943023F00103C2F89430FEF7A4
:1038880053F80546354BD3F8943013F0020F06D0A1
:10389800FEF74AF8401B0228F4D9032065E12368A3
:1038A80013F0040F00F081802C4B9B6D13F0805FA8
:1038B80036D12A4B9A6D42F080529A659B6D03F07F
:1038C80080530193019B0125264B1B6813F4807FCD
:1038D80028D0A368012B39D0052B45D01F4BD3F82E
:1038E800902022F00102C3F89020D3F8902022F013
:1038F8000402C3F89020A368002B43D0FEF714F805
:103908000646164BD3F8903013F0020F4CD1FEF751
:103918000BF8801B41F288339842F2D9032024E146
:103928000025D1E70F4A136843F480731360FDF74D
:10393800FBFF06460B4B1B6813F4807FC9D1FDF7CC
:10394800F3FF801B0228F5D903200EE1034AD2F8C1
:10395800903043F00103C2F89030CCE700100240E9
:103968000C00002000700040884BD3F8902042F0F3
:103978000402C3F89020D3F8902042F00102C3F863
:103988009020B8E7FDF7D0FF0646804BD3F890307B
:1039980013F0020F08D0FDF7C7FF801B41F28833F0
:1039A8009842F2D90320E0E0E5B9236813F0200F2C
:1039B80035D0A369E3B1754AD2F8983043F00103D2
:1039C800C2F89830FDF7B0FF0546704BD3F8983031
:1039D80013F0020F23D1FDF7A7FF401B0228F4D9EB
:1039E8000320C2E0694A936D23F080539365DCE7B6
:1039F800664AD2F8983023F00103C2F89830FDF7F0
:103A080093FF0546614BD3F8983013F0020F06D0A8
:103A1800FDF78AFF401B0228F4D90320A5E0E369DB
:103A2800002B00F0A180594A926802F00C020C2A7F
:103A380064D0022B13D0554A136823F080731360A7
:103A4800FDF772FF0446514B1B6813F0007F4ED000
:103A5800FDF76AFF001B0228F5D9032085E04B4AD1
:103A6800136823F080731360FDF75EFF0546474B2C
:103A78001B6813F0007F06D0FDF756FF401B022895
:103A8800F5D9032071E0414AD36841491940236AB6
:103A9800606A013843EA0013A06A43EA0023206BF6
:103AA8004008013843EA4053606B4008013843EA54
:103AB8004063E06A43EAC0630B43D360136843F092
:103AC80080731360D36843F08073D360FDF72CFFD5
:103AD80004462E4B1B6813F0007F06D1FDF724FF28
:103AE800001B0228F5D903203FE000203DE0274ACB
:103AF800D168284B0B40D360002036E0012B36D02C
:103B0800224BDB6803F00301226A914231D103F0B2
:103B1800F002616A0139B2EB011F2CD103F4FE42B5
:103B2800A16AB2EB012F28D103F07842E16AB2EB27
:103B3800C16F24D103F4C001226B5208013AB1EBE2
:103B4800425F1ED103F0C063626B5208013AB3EBC7
:103B5800426F18D1002008E001207047012004E0DE
:103B6800012002E0012000E0002002B070BD012029
:103B7800FBE70120F9E70120F7E70120F5E701203D
:103B8800F3E70120F1E70120EFE700BF0010024052
:103B98000C809F01FCFFEEFE1E4B9B6803F00C039C
:103BA800042B33D01B4B9B6803F00C03082B2FD03E
:103BB800184B9B6803F00C030C2B01D000207047B6
:103BC800144BDA6802F00302D868C0F30310431CF0
:103BD800032A11D01048B0FBF3F00E4BDB68C3F397
:103BE800062303FB00F00B4BDB68C3F3416301338F
:103BF8005B00B0FBF3F070470848B0FBF3F0054BEF
:103C0800DB68C3F3062303FB00F0ECE702487047C8
:103C180002487047001002400024F40000127A00A5
:103C2800002800F0E680F8B50C460546744B1B6882
:103C380003F00F038B420BD2714A136823F00F0372
:103C48000B431360136803F00F038B4240F0D380DB
:103C58002E6816F001065FD06B68032B2FD0022B5D
:103C68004DD0684B1B6813F4806F00F0C680FFF7D7
:103C780093FF654B98424DD9624A936823F0F0034D
:103C880043F08003936080265E4A936823F0030321
:103C980069680B439360FDF747FE0746594B9B68DD
:103CA80003F00C036A68B3EB820F35D0FDF73CFED6
:103CB800C01B41F288339842F0D9032078E0514B79
:103CC8001B6813F0007F01D1012071E0FFF7C6FCEB
:103CD8004D4B98421AD94B4B9B6813F0F00F05D007
:103CE8002E6816F00206CFD0AB688BB9454A9368A8
:103CF80023F0F00343F0800393608026C4E7414B30
:103D08001B6813F4003FB2D1012051E00026BBE745
:103D18000026B9E70026B7E72B6813F0020F48D052
:103D280013F0040F04D0374A936843F4E0639360B8
:103D38002B6813F0080F06D0324A936823F47C539B
:103D480043F4E06393602F4A936823F0F003A96873
:103D58000B4393602A4B1B6803F00F03A34230D830
:103D68002B6813F0040F06D0264A936823F4E06307
:103D7800E9680B4393602B6813F0080F07D0214ABA
:103D8800936823F46053296943EAC1039360FFF7FA
:103D980003FF1C4B9B68C3F303131C4AD35C03F05B
:103DA8001F03D8401A4B18601A4B1868FDF778FDA6
:103DB800F8BD802ECED1134A936823F0F0039360A8
:103DC800C8E70F4A136823F00F0323431360FDF776
:103DD800ABFD06460A4B1B6803F00F03A342BFD096
:103DE800FDF7A2FD801B41F288339842F2D90320E7
:103DF800DEE7012070470120DAE70120D8E700BF9D
:103E0800002002400010024000B4C404D867000833
:103E1800000000200C000020F0B583B004460368C1
:103E280013F4002F69D0AE4B9B6D13F0805F1ED149
:103E3800AB4B9A6D42F080529A659B6D03F08053AC
:103E48000193019B0126A74A136843F4807313600A
:103E5800FDF76AFD0546A34B1B6813F4807F08D164
:103E6800FDF762FD401B0228F5D9032502E0002674
:103E7800E9E7002545BB9A4BD3F8903013F440731B
:103E880015D0226C9A4212D0954AD2F8903023F479
:103E98004073D2F8901041F48031C2F89010D2F8F3
:103EA800901021F48031C2F89010C2F8903013F0CD
:103EB800010F10D145B98A4AD2F8903023F44073E3
:103EC800216C0B43C2F89030C6B1854A936D23F03C
:103ED8008053936512E0FDF727FD0746804BD3F822
:103EE800903013F0020FE5D1FDF71EFDC01B41F223
:103EF80088339842F2D90325DCE70025236813F0BC
:103F0800010F08D0764AD2F8883023F0030361689D
:103F18000B43C2F88830236813F0020F08D0704AA8
:103F2800D2F8883023F00C03A1680B43C2F888301C
:103F3800236813F0040F08D0694AD2F8883023F0B8
:103F48003003E1680B43C2F88830236813F0080F88
:103F580008D0634AD2F8883023F0C00321690B43A4
:103F6800C2F88830236813F0200F08D05C4AD2F8D2
:103F7800883023F4406361690B43C2F888302368B2
:103F880013F0400F08D0564AD2F8883023F4405333
:103F9800A1690B43C2F88830236813F0800F08D05A
:103FA8004F4AD2F8883023F44043E1690B43C2F802
:103FB8008830236813F4807F08D0494AD2F88830C3
:103FC80023F44033216A0B43C2F88830236813F482
:103FD800007F08D0424AD2F8883023F44023616A2F
:103FE8000B43C2F88830236813F4806F0CD03C4A26
:103FF800D2F8883023F44013A16A0B43C2F8883002
:10400800A36AB3F5801F57D0236813F4006F0CD050
:10401800334AD2F8883023F44003E16A0B43C2F8EC
:104028008830E36AB3F5800F4BD0236813F4805FC0
:104038000CD02B4AD2F8883023F04073216B0B4305
:10404800C2F88830236BB3F1807F3FD0236813F424
:10405800005F0CD0224AD2F8883023F04063616BAD
:104068000B43C2F88830636BB3F1006F33D0236819
:1040780013F4804F0CD01A4AD2F8883023F04063EA
:10408800A16B0B43C2F88830A36BB3F1006F2BD040
:10409800236813F4004F0CD0114AD2F8883023F06B
:1040A8004053E16B0B43C2F88830E36BB3F1805F98
:1040B8001FD0284603B0F0BDD36843F48013D36003
:1040C800A2E7D36843F48013D360AEE7D36843F420
:1040D8008013D360BAE7D36843F48013D360C6E78C
:1040E8000010024000700040D36843F48013D3608E
:1040F800CEE7D36843F48033D360DAE790F83D30F5
:10410800DBB2012B32D1022380F83D300268D3683C
:1041180043F00103D3600368174A934218D0B3F100
:10412800804F15D0A2F59432934211D002F58062E7
:1041380093420DD002F59632934209D002F54062BF
:10414800934205D01A6842F001021A6000207047B5
:1041580099680A4A0A40062A0AD0B2F5803F09D06F
:104168001A6842F001021A60002070470120704767
:104178000020704700207047002C01400700010014
:10418800704770477047704770B505460368DE682A
:104198001C6914F0020F10D016F0020F0DD06FF04A
:1041A80002021A610123037703689B6913F0030F66
:1041B8007CD0FFF7E6FF00232B7714F0040F12D012
:1041C80016F0040F0FD02B686FF004021A61022357
:1041D8002B772B689B6913F4407F6DD02846FFF737
:1041E800D0FF00232B7714F0080F12D016F0080F19
:1041F8000FD02B686FF008021A6104232B772B6805
:10420800DB6913F0030F5ED02846FFF7BAFF0023DF
:104218002B7714F0100F12D016F0100F0FD02B6858
:104228006FF010021A6108232B772B68DB6913F4EF
:10423800407F4FD02846FFF7A4FF00232B7714F0C8
:10424800010F02D016F0010F4BD114F4025F02D017
:1042580016F0800F4DD114F4807F02D016F0800F35
:104268004FD114F0400F02D016F0400F51D114F086
:10427800200F02D016F0200F53D114F4801F02D063
:1042880016F4801F55D114F4001F02D016F4001F35
:1042980057D114F4800F02D016F4800F59D114F4BA
:1042A800000F02D016F4000F5BD170BDFFF768FF56
:1042B8002846FFF767FF7EE72846FFF761FF284695
:1042C800FFF760FF8DE72846FFF75AFF2846FFF7FC
:1042D80059FF9CE72846FFF753FF2846FFF752FF90
:1042E800ABE72B686FF001021A612846FCF766FFFE
:1042F800ABE72B686FF402521A61284600F019F9EF
:10430800A9E72B686FF480721A61284600F012F949
:10431800A7E72B686FF040021A612846FFF733FFC2
:10432800A5E72B686FF020021A61284600F000F913
:10433800A3E72B686FF480121A61284600F0FBF897
:10434800A1E72B686FF400121A61284600F0F4F810
:104358009FE72B686FF480021A61284600F0EDF899
:104368009DE72B686FF400021A61284600F0E6F812
:104378009BE700000368304A90420ED0B0F1804FAE
:104388000BD0A2F59432904207D002F58062904299
:1043980003D002F59632904203D123F070034A68A5
:1043A8001343254A90421AD0B0F1804F17D0A2F596
:1043B8009432904213D002F5806290420FD002F5F9
:1043C800963290420BD002F54062904207D002F537
:1043D8008062904203D002F58062904203D123F4B8
:1043E8004073CA68134323F080034A691343036088
:1043F8008B68C3620B6883620F4B98420FD003F53A
:10440800006398420BD003F54063984207D003F548
:104418008063984203D003F58063984201D10B6909
:10442800036301234361036913F0010F03D0036998
:1044380023F0010303617047002C014060B310B5FD
:10444800044690F83D3013B3022384F83D302146EA
:1044580051F8040BFFF78EFF012384F8483084F8E5
:104468003E3084F83F3084F8403084F8413084F896
:10447800423084F8433084F8443084F8453084F876
:10448800463084F8473084F83D30002010BD80F86D
:104498003C30FCF785FAD7E70120704790F83C30AC
:1044A800012B40D030B4012380F83C30022380F83F
:1044B8003D300268536894681C4DAA4203D005F544
:1044C8000065AA4203D123F470034D682B4323F0FF
:1044D800007323F070030D682B4353600368134A7D
:1044E800934212D0B3F1804F0FD0A2F59432934289
:1044F8000BD002F58062934207D002F596329342C0
:1045080003D002F54062934204D124F080048A6803
:1045180014439C60012380F83D30002380F83C3030
:10452800184630BC70470220704700BF002C01407D
:104538007047704770477047704770477047034629
:104548000020A3F844004BF68072A3F8402070477F
:10455800B0F8403023F47E535B045B0CA0F8403085
:104568000020704782B0034602A800E90600012235
:10457800A3F840200020A3F84000A3F84400A3F8C3
:10458800500002B0704710B503460A7830F822C0D0
:104598001FFA8CFC2CF4EC4C2CF0700C1FFA8CFCE1
:1045A800C878032862D8DFE800F0565D0259002079
:1045B80048F2800E4CEA0E0C23F822C091F800C095
:1045C80033F82C2012B222F4E04222F070024CEAB6
:1045D800020292B242EA0E0223F82C200A7B002A39
:1045E80040F0DC804A78002A51D0B3F8502013FA02
:1045F80082F20C7802EBC402B1F806C04FEA5C0CF8
:104608004FEA4C0CA2F800C40C7833F8242012F0BE
:10461800400F0CD033F8242092B222F4E04222F06A
:10462800700242F4004242F0C00223F82420CA7803
:10463800012A1DD0097833F8212092B222F4E042F1
:1046480022F0400282F0200242F4004242F080024E
:1046580023F82120C3E14CF4007CA9E74CF4C06C9A
:104668000020A5E74CF4806C0020A1E701209FE71B
:10467800097833F8212092B222F4E04222F0400275
:1046880042F4004242F0800223F82120A7E1B3F867
:10469800502013FA82F20C7802EBC402B1F806C07B
:1046A8004FEA5C0C4FEA4C0CA2F804C4B3F8502053
:1046B80013FA82F20C7802EBC402B2F806C4CCF307
:1046C800090CA2F806C40C6974BBB2F806C46FEAF8
:1046D8004C4C6FEA5C4C1FFA8CFCA2F806C40C78B0
:1046E80033F8242012F4804F0CD033F8242092B2EF
:1046F80022F4E04222F0700242F4404242F080028A
:1047080023F824200978C9BB33F8212092B222F477
:10471800804222F0700282F4405242F4004242F099
:10472800800223F821205AE13E2C12D84FEA540C7B
:1047380014F0010F01D00CF1010CB2F80644A4B238
:104748004FEA8C2C1FFA8CFC44EA0C0CA2F806C425
:10475800C5E74FEA541C14F01F0F01D10CF1FF3CC0
:10476800B2F80644A4B24FEA8C2C1FFA8CFC44EA37
:104778000C0444F40044A2F80644B0E733F82120BE
:1047880092B222F4804222F0700282F4005242F483
:10479800004242F0800223F8212020E1CA78022A50
:1047A80074D091F800C033F82C2092B222F4E2427F
:1047B80022F0700242F4004242F0800223F82C20DA
:1047C800B3F8502013FA82F291F800C002EBCC0241
:1047D800B1F808C04FEA5C0C4FEA4C0CA2F800C4D0
:1047E800B3F8502013FA82F291F800C002EBCC0221
:1047F800B1F80AC04FEA5C0C4FEA4C0CA2F804C4AA
:104808004A78002A40F0F7800C7833F8242012F414
:10481800804F0CD033F8242092B222F4E04222F0E8
:10482800700242F4404242F0800223F824200C78BF
:1048380033F8242012F0400F0CD033F8242092B221
:1048480022F4E04222F0700242F4004242F0C00238
:1048580023F824204A78002A51D1B3F8502013FABB
:1048680082F20C7802EBC402B2F80244C4F30904E1
:10487800A2F802440C69C4B9B2F802446FEA44448D
:104888006FEA5444A4B2A2F802443AE00C7833F830
:10489800242092B222F4E04222F0700242F4014253
:1048A80042F0800223F824208AE73E2C12D84FEAEF
:1048B800540C14F0010F01D00CF1010CB2F80244B1
:1048C800A4B24FEA8C2C1FFA8CFC44EA0C0CA2F818
:1048D80002C416E04FEA541C14F01F0F01D10CF16A
:1048E800FF3CB2F80244A4B24FEA8C2C1FFA8CFCAD
:1048F80044EA0C0444F40044A2F8024401E0012A0A
:104908001BD04A78002A4DD1B3F8502013FA82F20E
:104918000C7802EBC402B2F80644C4F30904A2F806
:1049280006440C69A4B9B2F806446FEA44446FEA35
:104938005444A4B2A2F8064436E0B3F8502013FA5F
:1049480082F20C7802EBC4020C8AA2F80244D8E77F
:104958003E2C12D84FEA540C14F0010F01D00CF180
:10496800010CB2F80644A4B24FEA8C2C1FFA8CFC56
:1049780044EA0C0CA2F806C416E04FEA541C14F0E2
:104988001F0F01D10CF1FF3CB2F80644A4B24FEA64
:104998008C2C1FFA8CFC44EA0C0444F40044A2F862
:1049A800064401E0012A1BD091F800C033F82C20FE
:1049B80092B222F4804222F0700282F4405248F20D
:1049C8008004224323F82C20097833F8212092B25E
:1049D80022F4E04222F04002224323F8212010BDB5
:1049E800B3F8502013FA82F20C7802EBC4020C8A56
:1049F800A2F80644D8E70C7833F8242012F4804F44
:104A08000CD033F8242092B222F4E04222F0700253
:104A180042F4404242F0800223F824200C7833F814
:104A2800242012F0400F0CD033F8242092B222F444
:104A3800E04222F0700242F4004242F0C00223F841
:104A48002420CA78012A1ED00C7833F8242092B288
:104A580022F4E04222F0400282F0200242F40042B6
:104A680042F0800223F82420097833F8212092B2FA
:104A780022F4804222F0700242F4004242F08002A6
:104A880023F82120ABE70C7833F8242092B222F4E3
:104A9800E04222F0400242F4004242F0800223F851
:104AA8002420E1E70B7B002B46D14B7813B30A781F
:104AB80030F8223013F0400F0CD030F822309BB27F
:104AC80023F4E04323F0700343F4004343F0C003AE
:104AD80020F822300A7830F822309BB223F4E043E1
:104AE80023F0400343F4004343F0800320F82230CE
:104AF800002070470A7830F8223013F4804F0CD029
:104B080030F822309BB223F4E04323F0700343F4DF
:104B1800404343F0800320F822300A7830F82230EE
:104B28009BB223F4804323F0700343F4004343F023
:104B3800800320F82230DBE74B78002B4ED10A782F
:104B480030F8223013F4804F0CD030F822309BB26A
:104B580023F4E04323F0700343F4404343F080031D
:104B680020F822300A7830F8223013F0400F0CD0A9
:104B780030F822309BB223F4E04323F0700343F46F
:104B8800004343F0C00320F822300A7830F822307E
:104B98009BB223F4E04323F0700343F4004343F053
:104BA800C00320F822300B7830F8232092B222F488
:104BB800804222F0700248F2800C42EA0C0220F88F
:104BC80023200A7830F822309BB223F4E04323F004
:104BD800400343EA0C0320F8223089E70A7830F8CA
:104BE800223013F4804F0CD030F822309BB223F4DB
:104BF800E04323F0700343F4404343F0800320F87C
:104C080022300A7830F8223013F0400F0CD030F8F8
:104C180022309BB223F4E04323F0700343F40043B3
:104C280043F0C00320F822300A7830F822309BB2D3
:104C380023F4E04323F0700343F4404343F080033C
:104C480020F822300B7830F8232092B222F4E04288
:104C580022F0400248F2800C42EA0C0220F823209D
:104C68000A7830F822309BB223F4804323F0700393
:104C780043EA0C0320F822303AE74B788BB10A78E4
:104C880030F822309BB223F4E04323F0400383F052
:104C9800100343F4004343F0800320F8223000203F
:104CA80070470A7830F822309BB223F4804323F00F
:104CB800700383F4805343F4004343F0800320F8E7
:104CC8002230ECE74B7833B30A7830F8223013F00F
:104CD800400F0CD030F822309BB223F4E04323F08D
:104CE800700343F4004343F0C00320F82230CB782C
:104CF800012B33D00A7830F822309BB223F4E043FA
:104D080023F0400383F0200343F4004343F080037F
:104D180020F8223022E00A7830F8223013F4804F4D
:104D28000CD030F822309BB223F4E04323F0700318
:104D380043F4404343F0800320F822300A7830F8E7
:104D480022309BB223F4804323F0700383F4405352
:104D580043F4004343F0800320F8223000207047DA
:104D680011B98023A0F84C3000207047B0F85830B3
:104D78006FEA43436FEA53439BB2A0F858300020D0
:104D88007047B0F8440080B2704710B45C1C6408E7
:104D9800024402F5806207E00B78487843EA002372
:104DA80022F8023B0231013C002CF5D110BC7047BF
:104DB80070B505460C464B78012B1AD00B7B002B9F
:104DC80040F092828B69002B40F06582CB78002BF3
:104DD80040F061820A7830F822309BB223F4E04335
:104DE80023F0700343F4014343F0800320F822309A
:104DF8005FE28E690A69964200D91646217B41B363
:104E0800E178022947D0226A921B2262227835F87B
:104E1800221011F0400F00F0F681002B40F0E381E2
:104E2800B5F8503015FA83F303EBC202B2F8063432
:104E3800C3F30903A2F80634002E40F0B481B2F897
:104E480006346FEA43436FEA53439BB2A2F8063431
:104E5800D2E1B6B23346E28861692846FFF795FF8A
:104E6800B5F8503015FA83F3227803EBC203A3F8A0
:104E78000264227835F822309BB223F4E04323F011
:104E8800400383F0300343F4004343F0800325F8E4
:104E98002230002024E2236A9A4280F06681227838
:104EA80035F822309BB223F4E04323F0700343F437
:104EB800014343F0800325F82230236A9B1B2362B9
:104EC800237835F8232012F0400F00F0A78062788D
:104ED800B2BBB5F8502015FA82F202EBC303B3F85F
:104EE8000624C2F30902A3F806244EB9B3F806242F
:104EF8006FEA42426FEA524292B2A3F8062421E0D6
:104F08003E2E0DD8720816F0010F00D00132B3F80A
:104F1800061489B2920292B20A43A3F8062411E059
:104F2800710916F01F0F00D10139B3F8062492B2A7
:104F3800890289B20A4342F40042A3F8062401E038
:104F4800012A29D0B3B2628961692846FFF71DFF9B
:104F5800636933446361236A2269934226D99B1BA0
:104F680023626378002B45D1B5F8503015FA83F3E6
:104F7800227803EBC203B3F80224C2F30902A3F8B0
:104F88000224BEB9B3F802246FEA42426FEA5242E1
:104F980092B2A3F802242FE0B5F8502015FA82F255
:104FA80002EBC303B2B2A3F80624CBE700222262C5
:104FB8001E46D6E73E2E0DD8720816F0010F00D017
:104FC8000132B3F8021489B2920292B20A43A3F8EA
:104FD800022411E0710916F01F0F00D10139B3F84E
:104FE800022492B2890289B20A4342F40042A3F829
:104FF800022401E0012B06D0B3B222896169284658
:10500800FFF7C3FE35E7B5F8503015FA83F3227879
:1050180003EBC203B2B2A3F80224EDE76278B2BB95
:10502800B5F8502015FA82F202EBC303B3F8022454
:10503800C2F30902A3F802244EB9B3F802246FEAB6
:1050480042426FEA524292B2A3F8022421E03E2E75
:105058000DD8720816F0010F00D00132B3F802140F
:1050680089B2920292B20A43A3F8022411E07109AC
:1050780016F01F0F00D10139B3F8022492B2890249
:1050880089B20A4342F40042A3F8022401E0012A4B
:1050980029D0B3B2228961692846FFF776FE636991
:1050A80033446361236A2269934226D99B1B236296
:1050B8006378002B45D1B5F8503015FA83F3227880
:1050C80003EBC203B3F80624C2F30902A3F80624CB
:1050D800BEB9B3F806246FEA42426FEA524292B26E
:1050E800A3F806242FE0B5F8502015FA82F202EB57
:1050F800C303B2B2A3F80224CBE7002222621E4601
:10510800D6E73E2E0DD8720816F0010F00D00132F6
:10511800B3F8061489B2920292B20A43A3F806249D
:1051280011E0710916F01F0F00D10139B3F80624F8
:1051380092B2890289B20A4342F40042A3F80624D3
:1051480001E0012B06D0B3B2628961692846FFF7F6
:105158001CFE8EE6B5F8503015FA83F3227803EB7F
:10516800C203B2B2A3F80624EDE7217835F821206E
:1051780092B222F4E24222F0700242F4004242F07B
:10518800800225F82120B5F8502015FA82F22178FE
:1051980002EBC1029BB2A2F8023422896169284657
:1051A800FFF7F3FD65E63E2E0DD8730816F0010FE4
:1051B80000D00133B2F8061489B29B029BB20B43AC
:1051C800A2F8063418E0710916F01F0F00D1013952
:1051D800B2F806349BB2890289B20B4343F4004308
:1051E800A2F8063408E0B5F8503015FA83F303EB5B
:1051F800C202B3B2A2F80634B3B262896169284622
:10520800FFF7C3FD35E6B3BBB5F8503015FA83F3A5
:1052180003EBC202B2F80234C3F30903A2F8023462
:105228004EB9B2F802346FEA43436FEA53439BB274
:10523800A2F8023428E03E2E0DD8730816F0010FAC
:1052480000D00133B2F8021489B29B029BB20B431F
:10525800A2F8023418E0710916F01F0F00D10139C5
:10526800B2F802349BB2890289B20B4343F400437B
:10527800A2F8023408E0B5F8503015FA83F303EBCE
:10528800C202B3B2A2F80234B3B2228961692846D5
:10529800FFF77BFDEDE5227835F822309BB223F449
:1052A800E24323F0700343F4004343F0800325F8FE
:1052B8002230A3692269934213D99B1AA3612278E9
:1052C80035F822309BB223F4804323F0700383F433
:1052D800405343F4004343F0800325F82230002074
:1052E80070BD0023A361EAE7CB78022B04D0012B21
:1052F8001ED100238B61E2E7CB69002BDFD00A784F
:1053080030F8221044F2400303EA01008B4301D035
:105318000028D4D135F822309BB223F4E04323F09F
:10532800700343F4004343F0C00325F82230C6E776
:105338000120D5E710B45C08104400F5806007E050
:1053480030F8022B0A70C2F307224A700231013C7E
:10535800002CF5D113F0010F01D003880B7010BC9D
:10536800704710B5D0F8BC4284B1D0F8C0327BB1D8
:1053780094F80002FF280DD09B6894F8012221467A
:105388009847FF2384F80032002010BD0320FCE773
:105398000020FAE70020F8E743230380004870471D
:1053A8004800002043230380004870478C000020F9
:1053B8004323038000487047DC0000200A23038051
:1053C80000487047D000002038B5D0F8BC5275B1FD
:1053D800044601F0DAF8C5F80C02D4F8C032DB68EC
:1053E80005F50371D5F804029847002038BD03205D
:1053F800FCE710B5D0F8C442D0F8BC3253B301EB87
:10540800810200EB820292694AB101EB810C04EB44
:10541800CC04246AB2FBF4FC04FB1C2272B1002207
:10542800C3F81422D0F8C0221469ACB10A4603F5B7
:105438000471D3F80802A047002010BD01EB8103D6
:1054480000EB830300249C612346224601F08DF87B
:105458002046F2E70320F0E70020EEE7F0B583B03E
:10546800D0F8BC6200238DF80730ADF80430002E68
:105478006CD007460C460B7813F060052AD0202D17
:105488005ED1CA88F2B113F0800F0FD0D0F8C032C5
:105498009B68314660789847E288072A28BF072228
:1054A8003146384600F0EEFD00254CE04B7886F892
:1054B80000328B7986F80132CA88314600F0F7FD50
:1054C800002540E0D0F8C0329B6800224878984711
:1054D800002538E04E780B2E2ED8DFE806F006348B
:1054E8002D2D2D2D2D2D2D2D152490F89C32DBB230
:1054F800032B03D000F08CFA032524E0022201A933
:1055080000F0C0FD35461EE090F89C32DBB2032B5C
:1055180003D000F07DFA032515E001220DF1070103
:1055280000F0B0FD0FE090F89C32DBB2032B0AD0FC
:1055380000F06EFA032506E000F06AFA032502E09F
:1055480000F066FA0325284603B0F0BD0325FAE704
:1055580038B50446812100F0D2FF002525870121B6
:10556800204600F0CCFFA4F878518221204600F0B4
:10557800C6FFA4F84C50A4F84E50D4F8BC324BB136
:10558800D4F8C0325B689847D4F8BC0201F02CF814
:10559800C4F8BC52002038BD70B504464FF40770FB
:1055A80001F01EF8B8B30646C4F8BC02237CBBBBA6
:1055B8004FF4007302228121204600F095FF012557
:1055C80025874FF4007302222946204600F08CFFFD
:1055D800A4F878511023A4F84E300823032282211E
:1055E800204600F081FF0123A4F84C30D4F8C032E3
:1055F8001B6898470023C6F81432C6F81832257C71
:1056080015BB4FF40073D6F804220121204600F0A0
:10561800B4FF284670BD0023C4F8BC320225F8E761
:10562800402302228121204600F05EFF01252587C4
:10563800402302222946204600F056FFA4F878515C
:105648001023A4F84E30C8E74023D6F804220121DD
:10565800204600F092FF0025DBE719B1C0F8C01220
:105668000020704703207047D0F8BC322BB1C3F834
:105678000812C3F810220020704703207047D0F8A2
:10568800BC321BB1C3F804120020704703207047D6
:10569800D0F8BC22A2B108B5D2F814320BB101205F
:1056A80008BD0123C2F81432D2F81032C362D2F80E
:1056B8001032D2F80822812100F057FF0020EFE7CE
:1056C8000320704710B5D0F8BC2292B1047C44B9CD
:1056D8004FF40073D2F80422012100F04EFF204657
:1056E80010BD4023D2F80422012100F046FF002417
:1056F800F5E70324F3E798B108B503460020C3F89B
:10570800B802C3F8C002C3F8CC0209B1C3F8B41296
:10571800012183F89C121A70184600F099FE08BD02
:105728000320704710B582B00023ADF8063061B190
:105738000446C0F8B812CB6A4BB10DF10600984781
:10574800C4F8CC02002002B010BD0320FBE7002003
:10575800F9E708B500F0C0FE08BD08B5D0F8B832C2
:1057680013B11B68984708BD0320FCE708B5D0F8BB
:10577800B8320BB15B689847002008BD38B50446BD
:1057880000F2AA25284600F02FF90123C4F8943224
:10579800B4F8B032C4F8983294F8AA1201F01F0392
:1057A800012B0DD0022B10D02BB101F08001204627
:1057B80000F0ADFE03E02946204600F0E4FA38BDCB
:1057C8002946204600F017FBF9E72946204600F055
:1057D80046FBF4E738B504460D4641BB1346D0F8FE
:1057E8009422032A01D0084638BDD0F85C11D0F8BD
:1057F8006021914209D890F89C32DBB2032B0FD07C
:10580800204600F06BFC2846EEE7891AC0F85C11C8
:105818008A4228BF0A46194600F058FC2846E3E7A2
:10582800D0F8B8321B69002BEAD09847E8E790F81F
:105838009C32DBB2032B01D00020D5E7D0F8B83278
:105848009B690BB19847CFE70020CDE738B50446F0
:105858000D4600294AD11346D0F89422022A05D0D1
:1058680094F8A032012B3CD0284638BDC269016AA1
:105878008A420ED88A4218D094F89C32DBB2032BA5
:1058880027D08021204600F042FE204600F031FC5F
:10589800E6E7521AC261194600F001FC00231A46D5
:1058A8001946204600F069FEDAE783699942E3D891
:1058B800D0F898229342DFD20022114600F0EFFB85
:1058C8000021C4F898120B460A46204600F055FEFF
:1058D800C6E7D4F8B832DB68002BD2D02046984708
:1058E800CFE7002384F8A0322846BEE790F89C3220
:1058F800DBB2032B01D00020B7E7D0F8B8325B69E0
:105908000BB19847B1E70020AFE7012380F89C323C
:105918000023C0F894324360C0F8A432D0F8B832FB
:10592800F3B170B50446D0F8BC221AB15B680BB16C
:1059380000219847402300221146204600F0D4FD5C
:105948000126A4F864614025C4F860512B46002262
:105958008021204600F0C8FDA6842562002070BD85
:105968000320704701740020704790F89C32DBB226
:1059780080F89D32042380F89C320020704790F80C
:105988009C32DBB2042B01D00020704790F89D3286
:10599800DBB280F89C32F7E7D0F8B82262B108B5DC
:1059A80090F89C32DBB2032B01D0002008BDD369EC
:1059B80023B198470020F9E7032070470020F5E756
:1059C8000346002002E00130C0B201331A78002AF1
:1059D800F9D1704708B54B88012B00D008BDC0F835
:1059E800A43200F07BFBF9E70B7803704B78437027
:1059F8008B78CA7843EA022343800B794A7943EAD1
:105A0800022383808B79CA7943EA0223C3807047D3
:105A180010B50446802100F07AFD0021204600F0F0
:105A280076FD10BD30B583B004460D460023ADF8B1
:105A380006304A88130A013B0E2B00F2BC80DFE8CF
:105A480003F0153044BABA9EABBABABABABABABAFF
:105A58000800D0F8B432DB6923B10DF10601007CEF
:105A680098470AE02946FFF7D3FF18E0D0F8B43288
:105A78001B680DF10601007C9847EA88002A00F0AF
:105A8800A380BDF80630002B00F099809A4228BF09
:105A98001A46ADF806200146204600F0F3FA03B096
:105AA80030BD037C43B9D0F8B8329B6A0DF10600CB
:105AB800984702234370E0E7D0F8B832DB6A0DF16B
:105AC8000600984702234370D7E7D2B2052A52D876
