:020000040800F2
:10000000008000205D1400087113000873130008BD
:10001000751300087713000879130008000000002A
:100020000000000000000000000000007B1300083A
:100030007D130008000000007F13000881130008F2
:10004000AD140008AD140008AD140008AD1400088C
:10005000AD140008AD140008AD140008AD1400087C
:10006000AD140008AD140008AD140008AD1400086C
:10007000AD140008AD140008AD140008AD1400085C
:10008000AD14000800000000AD140008AD14000815
:100090008913000899130008A9130008AD1400087B
:1000A000AD140008AD140008AD140008AD1400082C
:1000B000AD140008AD140008AD140008AD1400081C
:1000C000AD140008AD140008AD140008AD1400080C
:1000D000AD140008AD140008AD140008AD140008FC
:1000E000AD140008AD140008AD140008AD140008EC
:1000F000AD140008AD140008AD14000800000000A5
:1001000000000000AD14000800000000AD1400085D
:10011000AD14000800000000AD140008B913000879
:10012000AD140008AD140008AD140008AD140008AB
:10013000AD1400080000000000000000AD1400082D
:10014000AD140008AD14000800000000000000001D
:10015000000000000000000000000000000000009F
:10016000000000000000000000000000AD140008C6
:10017000AD140008000000000000000000000000B6
:1001800000000000AD1400080000000000000000A6
:10019000000000000000000000000000000000005F
:1001A0000000000000000000AD140008AD140008BD
:1001B000AD140008AD140008AD14000800000000E4
:1001C00000000000AD140008000000000000000066
:0801D000AD140008AD14000895
:1001D80010B5054C237833B9044B13B10448AFF379
:1001E80000800123237010BDDC0500200000000002
:1001F800848E000808B5034B1BB103490348AFF3CD
:10020800008008BD00000000E0050020848E000882
:1002180081F0004102E000BF83F0004330B54FEAAF
:1002280041044FEA430594EA050F08BF90EA020F1C
:100238001FBF54EA000C55EA020C7FEA645C7FEAAF
:10024800655C00F0E2804FEA5454D4EB5555B8BFD2
:100258006D420CDD2C4480EA020281EA030382EA43
:10026800000083EA010180EA020281EA0303362DD5
:1002780088BF30BD11F0004F4FEA01314FF4801CA8
:100288004CEA113102D0404261EB410113F0004FBA
:100298004FEA03334CEA133302D0524263EB430371
:1002A80094EA050F00F0A780A4F10104D5F1200E0F
:1002B8000DDB02FA0EFC22FA05F2801841F100016A
:1002C80003FA0EF2801843FA05F359410EE0A5F13E
:1002D80020050EF1200E012A03FA0EFC28BF4CF06F
:1002E800020C43FA05F3C01851EBE37101F0004525
:1002F80007D54FF0000EDCF1000C7EEB00006EEB32
:100308000101B1F5801F1BD3B1F5001F0CD34908BB
:100318005FEA30004FEA3C0C04F101044FEA445212
:1003280012F5800F80F09A80BCF1004F08BF5FEA99
:10033800500C50F1000041EB045141EA050130BD79
:100348005FEA4C0C404141EB0101013C28BFB1F58B
:10035800801FE9D291F0000F04BF01460020B1FAD6
:1003680081F308BF2033A3F10B03B3F120020CDAA9
:100378000C3208DD02F1140CC2F10C0201FA0CF087
:1003880021FA02F10CE002F11402D8BFC2F1200CEC
:1003980001FA02F120FA0CFCDCBF41EA0C019040A2
:1003A800E41AA2BF01EB0451294330BD6FEA0404EB
:1003B8001F3C1CDA0C340EDC04F11404C4F12002D6
:1003C80020FA04F001FA02F340EA030021FA04F3E8
:1003D80045EA030130BDC4F10C04C4F1200220FA3F
:1003E80002F001FA04F340EA0300294630BD21FA7D
:1003F80004F0294630BD94F0000F83F4801306BF43
:1004080081F480110134013D4EE77FEA645C18BF36
:100418007FEA655C29D094EA050F08BF90EA020FCD
:1004280005D054EA000C04BF1946104630BD91EAC5
:10043800030F1EBF0021002030BD5FEA545C05D1C8
:100448004000494128BF41F0004130BD14F5800407
:100458003CBF01F5801130BD01F0004545F0FE417B
:1004680041F470014FF0000030BD7FEA645C1ABFB0
:10047800194610467FEA655C1CBF0B46024650EAE7
:10048800013406BF52EA033591EA030F41F4002113
:1004980030BD00BF90F0000F04BF0021704730B599
:1004A8004FF4806404F132044FF000054FF000016E
:1004B80050E700BF90F0000F04BF0021704730B52F
:1004C8004FF4806404F1320410F0004548BF404204
:1004D8004FF000013EE700BF42004FEAE2014FEA59
:1004E80031014FEA02701FBF12F07F4393F07F4F34
:1004F80081F06051704732F07F4208BF704793F037
:100508007F4F04BF41F40021704730B54FF4607449
:1005180001F0004521F000411CE700BF50EA01024C
:1005280008BF704730B54FF000050AE050EA0102F5
:1005380008BF704730B511F0004502D5404261EB65
:1005480041014FF4806404F132045FEA915C3FF4A6
:10055800D8AE4FF003025FEADC0C18BF03325FEA43
:10056800DC0C18BF033202EBDC02C2F1200300FAF4
:1005780003FC20FA02F001FA03FE40EA0E0021FA19
:1005880002F11444BDE600BF4FEA410212F5001221
:1005980015D211D56FF47873B3EB625212D94FEAC2
:1005A800C12343F0004343EA505311F0004F23FAAC
:1005B80002F018BF404270474FF00000704750EA01
:1005C800013005D111F0004008BF6FF000407047BE
:1005D8004FF00000704700BF80F0004002E000BF0D
:1005E80081F0004142001FBF5FEA410392EA030F16
:1005F8007FEA226C7FEA236C6AD04FEA1262D2EB60
:100608001363C1BFD218414048404140B8BF5B4264
:10061800192B88BF704710F0004F40F4000020F0FD
:100628007F4018BF404211F0004F41F4000121F013
:100638007F4118BF494292EA030F3FD0A2F101025D
:1006480041FA03FC10EB0C00C3F1200301FA03F19B
:1006580000F0004302D5494260EB4000B0F5000FBE
:1006680013D3B0F1807F06D340084FEA310102F17D
:100678000102FE2A51D2B1F1004F40EBC25008BF2F
:1006880020F0010040EA03007047490040EB0000F9
:10069800013A28BFB0F5000FEDD2B0FA80FCACF1FA
:1006A800080CB2EB0C0200FA0CF0AABF00EBC25027
:1006B80052421843BCBFD0401843704792F0000F15
:1006C80081F4000106BF80F400000132013BB5E768
:1006D8004FEA41037FEA226C18BF7FEA236C21D0DE
:1006E80092EA030F04D092F0000F08BF0846704743
:1006F80090EA010F1CBF0020704712F07F4F04D111
:10070800400028BF40F00040704712F100723CBF23
:1007180000F50000704700F0004343F0FE4040F44D
:10072800000070477FEA226216BF08467FEA23630B
:100738000146420206BF5FEA412390EA010F40F4F6
:10074800800070474FF0000304E000BF10F0004342
:1007580048BF40425FEA000C08BF704743F0964329
:1007680001464FF000001CE050EA010208BF704744
:100778004FF000030AE000BF50EA010208BF7047CB
:1007880011F0004302D5404261EB41015FEA010CE0
:1007980002BF84460146002043F0B64308BFA3F1D8
:1007A8008053A3F50003BCFA8CF2083AA3EBC253BA
:1007B80010DB01FA02FC634400FA02FCC2F12002D9
:1007C800BCF1004F20FA02F243EB020008BF20F010
:1007D8000100704702F1200201FA02FCC2F1200276
:1007E80050EA4C0021FA02F243EB020008BF20EA6B
:1007F800DC7070474FF0FF0C1CEAD0521EBF1CEA99
:10080800D15392EA0C0F93EA0C0F6FD01A4480EA86
:10081800010C400218BF5FEA41211ED04FF000636F
:1008280043EA501043EA5111A0FB01310CF000409B
:10083800B1F5000F3EBF490041EAD3715B0040EAC1
:10084800010062F17F02FD2A1DD8B3F1004F40EB91
:10085800C25008BF20F00100704790F0000F0CF064
:10086800004C08BF49024CEA502040EA51207F3A28
:10087800C2BFD2F1FF0340EAC250704740F4000003
:100888004FF00003013A5DDC12F1190FDCBF00F0F4
:1008980000407047C2F10002410021FA02F1C2F1A2
:1008A800200200FA02FC5FEA310040F1000053EA3E
:1008B8004C0308BF20EADC70704792F0000F00F08C
:1008C800004C02BF400010F4000F013AF9D040EA92
:1008D8000C0093F0000F01F0004C02BF490011F426
:1008E800000F013BF9D041EA0C018FE70CEAD15324
:1008F80092EA0C0F18BF93EA0C0F0AD030F0004CA4
:1009080018BF31F0004CD8D180EA010000F0004057
:10091800704790F0000F17BF90F0004F084691F015
:10092800000F91F0004F14D092EA0C0F01D142024F
:100938000FD193EA0C0F03D14B0218BF084608D118
:1009480080EA010000F0004040F0FE4040F4000062
:10095800704740F0FE4040F4400070474FF0FF0CF5
:100968001CEAD0521EBF1CEAD15392EA0C0F93EA3C
:100978000C0F69D0A2EB030280EA010C49024FEA8E
:10098800402037D04FF0805343EA111143EA101347
:100998000CF000408B4238BF5B0042F17D024FF4FF
:1009A800000C8B4224BF5B1A40EA0C00B3EB510FDA
:1009B80024BFA3EB510340EA5C00B3EB910F24BFC3
:1009C800A3EB910340EA9C00B3EBD10F24BFA3EB48
:1009D800D10340EADC001B0118BF5FEA1C1CE0D110
:1009E800FD2A3FF650AF8B4240EBC25008BF20F0C3
:1009F800010070470CF0004C4CEA50207F32C2BF17
:100A0800D2F1FF0340EAC250704740F400004FF0B3
:100A18000003013A37E792F0000F00F0004C02BFE4
:100A2800400010F4000F013AF9D040EA0C0093F0AE
:100A3800000F01F0004C02BF490011F4000F013B08
:100A4800F9D041EA0C0195E70CEAD15392EA0C0F70
:100A580008D142027FF47DAF93EA0C0F7FF470AFA8
:100A6800084676E793EA0C0F04D14B023FF44CAFEB
:100A780008466EE730F0004C18BF31F0004CCAD180
:100A880030F000427FF45CAF31F000437FF43CAFBC
:100A98005FE700BF4FF0FF3C06E000BF4FF0010CDE
:100AA80002E000BF4FF0010C4DF804CD4FEA4002C0
:100AB8004FEA41037FEA226C18BF7FEA236C11D00A
:100AC80001B052EA530C18BF90EA010F58BFB2EBBD
:100AD800030088BFC81738BF6FEAE17018BF40F03D
:100AE800010070477FEA226C02D15FEA402C05D1F1
:100AF8007FEA236CE4D15FEA412CE1D05DF8040B76
:100B0800704700BF844608466146FFE70FB5FFF708
:100B1800C9FF002848BF10F1000F0FBD4DF808EDC0
:100B2800FFF7F4FF0CBF012000205DF808FB00BFB1
:100B38004DF808EDFFF7EAFF34BF012000205DF80B
:100B480008FB00BF4DF808EDFFF7E0FF94BF012058
:100B580000205DF808FB00BF4DF808EDFFF7D2FF55
:100B680094BF012000205DF808FB00BF4DF808ED98
:100B7800FFF7C8FF34BF012000205DF808FB00BF65
:100B88004FEA4002B2F1FE4F0FD34FF09E03B3EB92
:100B980012620DD94FEA002343F0004310F0004FD2
:100BA80023FA02F018BF404270474FF00000704728
:100BB80012F1610F01D1420205D110F0004008BFC7
:100BC8006FF0004070474FF00000704742000ED2AF
:100BD800B2F1FE4F0BD34FF09E03B3EB126209D470
:100BE8004FEA002343F0004323FA02F070474FF026
:100BF8000000704712F1610F01D1420202D14FF09B
:100C0800FF3070474FF00000704700BF10B58CB040
:100C1800002409940A940B942022214601A808F084
:100C28006BF820484FF0A04303604FF44033436013
:100C38008460C46004614461042383610477447759
:100C48000123036280F82440C462046380F83840BA
:100C5800C46380F8404002F06DFAC8B900230993D4
:100C680009A9104802F076FFA8B90F4B0193062393
:100C78000293002303937F22049204220592069391
:100C88000DEB0201074802F073FB38B90CB010BD38
:100C980000F076FAE2E700F073FAE6E700F070FA9F
:100CA800F4E700BFFC0500200200300400B589B05D
:100CB80020220021684608F01FF81B481B4B0360E0
:100CC8004FF44033436000238360C3600361436192
:100CD80004228261037743770122026280F824307C
:100CE800C362036380F83830C36380F8403002F091
:100CF80021FA90B90E4B0093062301930023029327
:100D08007F2203920422049205936946064802F062
:100D18002FFB28B909B05DF804FB00F031FAE9E7C8
:100D280000F02EFAF6E700BF680600200001005028
:100D38000400600810B59AB0044600211591169178
:100D4800179118911991442204A807F0D5FF236838
:100D5800B3F1A04F04D0364A934235D01AB010BD33
:100D68004FF4004304934FF00053139304A805F085
:100D780077FBD8B92F4A136801331360012B18D0B9
:100D88002D4BDA6C42F00102DA64DB6C03F00103EC
:100D98000193019B012315930323169300231793B3
:100DA80015A94FF0904003F03DFDD7E700F0E8F9B2
:100DB800E0E7214BDA6C42F40052DA64DB6C03F4AE
:100DC80000530093009BDBE74FF4004304934FF07C
:100DD8000053139304A805F043FBD8B9154A1368C8
:100DE80001331360012B18D0134BDA6C42F0010267
:100DF800DA64DB6C03F001030393039B022315936E
:100E0800032316930023179315A94FF0904003F07E
:100E180009FDA3E700F0B4F9E0E7074BDA6C42F408
:100E28000052DA64DB6C03F400530293029BDBE7A5
:100E380000010050F80500200010024010B51248CB
:100E4800124B0360002343604FF440728260C3601A
:100E5800012101744374837408224261042282616F
:100E68000F24C46102624262022282620524C462C3
:100E7800026341638363C36302F0D8FF00B910BD06
:100E880000F07EF9FBE700BFD406002000640040B4
:100E980010B598B00446002113911491159116913C
:100EA8001791442202A807F027FF2268224B9A4292
:100EB80001D018B010BD4FF4805302934FF0007367
:100EC8000E9302A805F0CCFA002831D11B4B9A6D7D
:100ED80042F000729A659A6D02F000720092009AD0
:100EE800DA6C42F00202DA64DB6C03F0020301936D
:100EF800019B4FF440731393022314930024159419
:100F080016940923179313A90D4803F08BFC224666
:100F18000521152002F0BAFE152002F0EFFE224648
:100F28000521162002F0B2FE162002F0E7FEC0E707
:100F380000F026F9CAE700BF006400400010024034
:100F48000004004830B58BB000240594069407943B
:100F5800089409941C4BDA6C42F00402DA64DA6CE7
:100F680002F004020192019ADA6C42F02002DA647B
:100F7800DA6C02F020020292029ADA6C42F0010264
:100F8800DA64DA6C02F001020392039ADA6C42F036
:100F98000202DA64DB6C03F002030493049B0B4D3A
:100FA80022464FF40051284603F0B8FD4FF4005391
:100FB8000593012306930794089405A9284603F08E
:100FC80031FC0BB030BD00BF0010024000080048E3
:100FD80008B50848084B03600323436040F6FF73D5
:100FE800C360836003F0A8FD00B908BD00F0C8F82D
:100FF800FBE700BF380700200030004030B587B05D
:10100800002401940294039404940594134BDA6C1D
:1010180042F00102DA64DB6C03F001030093009BE9
:1010280022464FF480514FF0904003F077FD4FF483
:1010380080550195112302930394049401A94FF05C
:10104800904003F0EFFB642002F060F829464FF06F
:10105800904003F0D5FC07B030BD00BF001002403F
:101068002DE9F04182B045F20133ADF80430384C37
:10107800384B01AA0721204600F016FA364D374BA7
:1010880001AA0621284600F00FFA3549204600F04B
:101098005FFA3449284600F05BFA334E3146204661
:1010A80000F0E4FA204600F0ADFA3118284600F0C6
:1010B800DDFA002412E0651C2C4E2A4B33F914008B
:1010C800FFF744FB46F8250004F10907244B33F9E0
:1010D8001400FFF73BFB46F827002C46072CEADDF7
:1010E800002410E0224F04F11106204D385DFFF76F
:1010F80029FB45F8260004F12208B85DFFF722FB1A
:1011080045F828000134102CECDD184C194B1878E0
:10111800FFF718FBC4F8CC00174D2878FFF712FB2F
:10112800C4F8D0006878FFF70DFBC4F8D400134B5F
:101138001B784BB9084800F065FA41000A4807F0E7
:101148009FFB02B0BDE8F08101F0F0FDF9E700BFB8
:10115800BC080020F40C0020A8080020E80B0020A0
:10116800540900204409002048070020500E0020A0
:101178001C0900208609002040090020470E002095
:1011880072B6FEE700B595B03822002106A807F030
:10119800B3FD00200190029003900490059004F0A4
:1011A800F3FC292306934FF48033079301220B9213
:1011B8000C9202230D9303210E910F922822109274
:1011C80011931293139306A804F098FD80B90F2386
:1011D80001930323029300230393049305930421AB
:1011E8000DEB010005F040F820B915B05DF804FBDF
:1011F800FFF7C6FFFFF7C4FF08B501F065FFFFF76B
:10120800FDFEFFF7BFFFFFF79DFEFFF717FEFFF795
:10121800DFFE00F0D7F807F09BFAFFF7F7FCFFF7BF
:1012280045FD354805F08EFA01F0F4F8022100205A
:1012380001F046F90A21012001F042F94FF47A71D0
:10124800022001F03DF900F025FD4FF480722B4992
:101258002B4800F0D9FF4FF480722A492A4800F041
:10126800D3FF4FF480722949294800F0CDFF4FF48D
:1012780080722849284800F0C7FF284B002283F8CD
:10128800002183F80121802283F802217F2483F83A
:10129800034100F077FD224E2146304602F00CFC57
:1012A800204D2146284602F007FC304602F040FB5C
:1012B800284602F03DFB002001F018F901280FD064
:1012C800012001F013F901280DD0022001F00EF9D8
:1012D8000128F0D14FF40051134803F024FCEAE749
:1012E800FFF7BEFEECE701F0C3FC104B1B78022BA6
:1012F800F9D000F009FEE8E748080020E8090020D6
:10130800DC090020E80A0020E80B0020F40B00208C
:10131800F40C0020000D0020000E0020500E0020CC
:10132800FC0500206806002000080048480E002040
:1013380000B583B00B4B1A6E42F001021A661A6EA2
:1013480002F001020092009A9A6D42F080529A656A
:101358009B6D03F080530193019B04F09BFC03B049
:101368005DF804FB00100240FEE7FEE7FEE7FEE73B
:10137800FEE770477047704708B501F0B5FE08BD35
:1013880008B5024804F0B8F908BD00BF40240020A1
:1013980008B5024802F0E3FF08BD00BFD4060020EC
:1013A80008B5024802F0DBFF08BD00BFD4060020E4
:1013B80008B5024805F00CFA08BD00BF480800202F
:1013C8007047000000B585B0002301930293039392
:1013D8000E480F4A02609F22426083604FF47A727F
:1013E800C260836105F04EFB50B90023019303935B
:1013F80001A9064805F076FB28B905B05DF804FB9D
:10140800FFF7BEFEF1E7FFF7BBFEF6E7480800204E
:101418000014004002680E4B9A4200D0704700B595
:1014280083B003F5FE339A6D42F020029A659B6DF6
:1014380003F020030193019B00220121372002F0D1
:1014480025FC372002F05AFC03B05DF804FB00BF0E
:10145800001400400D488546FFF7B2FF0C480D49BF
:101468000D4A002302E0D458C4500433C4188C42F7
:10147800F9D30A4A0A4C002301E013600432A2425D
:10148800FBD307F015FCFFF7B7FEFEE7008000204E
:1014980000000020DC050020D8910008DC050020B1
:1014A80040290020FEE70000F8B5044618462361ED
:1014B80002272770FD2363700F23E3700023A370B6
:1014C8002171137863710125A571204E3388C3F308
:1014D8000721217263725378A37203236373FC2379
:1014E800A37300F058FF3A462146206900F0FDFE3C
:1014F8002A46E119206900F0F8FE2A46E11C206915
:1015080000F0F3FE2A46211D206900F0EEFE2A466F
:10151800611D206900F0E9FE2A46A11D206900F03E
:10152800E4FE2A46E11D206900F0DFFE3A4604F198
:101538000801206900F0D9FE2A4604F10A01206951
:1015480000F0D3FE33882B443380F8BD040000201C
:1015580070B582B005460E4600240FE036F8143008
:10156800ADF8003001220DEB0201286900F0BDFE44
:1015780001226946286900F0B8FE0134072CEDDD28
:101588002B79062B12D0112419E001221949214484
:10159800286900F0AAFE0134102C1ADC0D2CF4D1B5
:1015A80001221549286900F0A0FEF4E70024F3E7BA
:1015B800012210492144286900F097FE0134212CAA
:1015C80007DC1E2CF4D101220C49286900F08DFE9D
:1015D800F4E701220A49286900F087FE4FF4817375
:1015E800ADF80430022201A9286900F07EFE02B09D
:1015F80070BD00BF1C0900204009002041090020DF
:101608008609002008B5006900F084FE08BD10B501
:1016180082B004468DF807202022006900F065FE9C
:1016280001220DF10701206900F05FFE02B010BD34
:1016380000B586464FF0000C4FF6FF700DE04008ED
:101648000133072B07DC10F0010FF8D04AF2010232
:1016580082EA5000F4E70CF1010C614504DD1EF844
:10166800013B58400023ECE75DF804FB70B5A2B0DD
:1016780004460E46006900F04DFEADF88400021DD8
:1016880092B2ADF88420120A0221206900F09BFE74
:101698009DF884200321206900F095FE206900F060
:1016A80039FE0546024601A9206900F0E3FD2946F6
:1016B80001A8FFF7BDFFADF88400022221A9206927
:1016C80000F013FE022204F10D01206900F00DFE66
:1016D8002469204600F01EFE02463146204600F0EE
:1016E800C9FD22B070BD000070B50025AE46104B94
:1016F800AC4603E04FF0000E0CF1010CBCF1090FF1
:1017080015D8B1FBF3F40EF1010604F13002D2B2A0
:1017180000F80E2003FB1411064CA4FB0343DB085E
:10172800302A08BF002DE5D00135B646E4E770BD84
:1017380000CA9A3BCDCCCCCC10B584460378302B6C
:1017480003D000242046234654E04378782B35D034
:10175800582B36D00024204623464BE02401A3F121
:10176800300E5FFA8EFEBEF1090F21D8303B1C44C3
:1017780001300A2815D81CF8003093B1A3F14102B2
:10178800D2B2052AEAD9A3F1610E5FFA8EFEBEF144
:10179800050FE3D9A3F1300E5FFA8EFEBEF1090FF3
:1017A800DCD91CF80030002B3BD10C60012010BDA7
:1017B800052A01D8373BDAE7573BD8E7002402204F
:1017C800D7E700240220D4E76B2A1ED04B2A1CD06E
:1017D8006D2A20D04D2A1ED0A2F1300E5FFA8EFE5F
:1017E800BEF1090FE3D804EB840402EB4402A2F132
:1017F800300401330A2BDAD80028D8D11CF803208A
:10180800002AE1D10C600120F3E7002BE0D0A4020C
:101818000C600120EDE7002BDED024050C600120D0
:10182800E7E70020C3E700B583B00190002101E09D
:10183800013189B2019B5B5C002BF9D101A807F04B
:101848001FF803B05DF804FB00B583B08DF80700FE
:1018580001210DF1070007F013F8C0B203B05DF8DD
:1018680004FB000010B5824A0023137482F821306B
:101878000EE0C268022A13D10A7862F3070C4A788C
:1018880062F30F2C7B4A22F813C009E00133DBB264
:10189800062B17D89E4603F2011204689442E8D03A
:1018A8000EF2111204689442F0D1C268022AEDD1F6
:1018B8000A7862F3070C4A7862F30F2C6E4A22F812
:1018C8001EC0E3E70368B3F5847F29D0B3F58C7FA6
:1018D8003CD0674B5B7B552B52D8654A01219173ED
:1018E8000021D173583BDBB2644A13701D2B02D917
:1018F800134600221A705E4B9B7F552B4DD85C4ACD
:101908000121D177002182F82010583BDBB25B4AD5
:1019180053701D2B02D9134600225A7000234DE044
:10192800C2680B2AD2D1002304E0C85C504AD054C4
:101938000133DBB20D2BF8D98B7B63F3070CCB7B20
:1019480063F30F2C4B4BA3F80EC0C2E7C3680B2BF5
:10195800BFD1002308E003F1110211F803E0444865
:1019680000F802E00133DBB20D2BF4D98B7B63F373
:10197800070CCB7B63F30F2C3F4BA3F80EC0A8E7F3
:101988005B2B05D93A4A002191730121D173A9E74C
:10199800374A00219173D173A4E75B2B06D9344AE7
:1019A8000021D177012182F82010AEE7304A0021CA
:1019B800D17782F82010A8E70133DBB20C2B0BD8C3
:1019C8002F4AD15C2A4AD25C9142F5D0284A01219B
:1019D800117482F82110EFE7112301E00133DBB223
:1019E8001D2B0BD8264AD15C214AD25C9142F5D0F6
:1019F8001F4A0121117482F82110EFE72123212BBE
:101A080001D9002313E01E4AD15C194AD25C9142E5
:101A180004D0174A0121117482F821100133DBB276
:101A2800EDE7134AD15C164AD1540133DBB20C2BD3
:101A3800F7D90E2305E00E4AD15C114AD15401337F
:101A4800DBB20F2BF7D9112305E0094AD15C0C4A08
:101A5800D1540133DBB21D2BF7D91F2305E0044A0B
:101A6800D15C074AD1540133DBB2202BF7D910BD22
:101A78001C090020440900205409002040090020C6
:101A8800640900208389052B39D182B00023ADF881
:101A980000300B788DF800304A788DF80120022B41
:101AA8001ED1FD2A1FD10023ADF80430CB788DF864
:101AB80004300A798DF80520032B16D1FC2A16D19B
:101AC8008B78012B07D0022B13D0032B13D0042BB8
:101AD80013D0022005E00B4B01221A70022000E00F
:101AE800032002B070470320FBE70420F9E7042035
:101AF800F7E70020F5E70720F3E70820F1E70020E3
:101B0800704700BF4B0E002010B582B00446036832
:101B1800B3F5807F07D94A4B00934A4B4A4AFFF7EF
:101B2800A1FE02B010BDFFF7ADFF02280CD00728B8
:101B38000ED0082810D0C31E012B01D90028F0D1DF
:101B4800424B01221A70ECE7414B01221A70E8E778
:101B5800404B01221A70E4E73F4B01221A702368B8
:101B6800112B1FD0122B23D0132B27D0142B2BD0A3
:101B7800152B2FD0162B33D0172B37D0312B3BD02A
:101B8800322B3FD0332B43D0342B47D0352B4BD07F
:101B9800362B4FD0372BC4D1304A138843F4005327
:101BA8001380BEE72D4A138843F001031380B8E77A
:101BB8002A4A138843F002031380B2E7274A13889E
:101BC80043F004031380ACE7244A138843F0080366
:101BD8001380A6E7214A138843F010031380A0E777
:101BE8001E4A138843F0200313809AE71B4A138880
:101BF80043F04003138094E7184A138843F08003A6
:101C080013808EE7154A138843F48073138088E79E
:101C1800124A138843F40073138082E70F4A13882B
:101C280043F4806313807CE70C4A138843F4006311
:101C3800138076E7094A138843F48053138070E7CA
:101C48001C0900205409002044090020490E0020E6
:101C58004B0E00204A0E0020460E0020440E0020A5
:101C680000B587B0002300930193012203920293E9
:101C780004934FF6FF7305936946054802F0C0F9CF
:101C880010B907B05DF804FBFFF77AFAF9E700BF6F
:101C9800D406002010B5FFF7E3FF054C0022012110
:101CA800204602F0CFFA204602F0DAF910BD00BF54
:101CB800D406002008B50F4B1860002058609860C3
:101CC800DA604FF000421A6158614FF400129A61CD
:101CD800D8611862084B1B68D3F8C43013F4001F8E
:101CE80001D0002008BD0A460249034802F0CFF996
:101CF800F8E700BFF8080020D4060020164B9842E9
:101D080000D0704730B591B0044611F0010504D1F8
:101D180011F0020F18D111B030BD104D6B462A4694
:101D2800402102F0DDF969462846FFF7EDFE002262
:101D38000121204602F086FAEDE76B46074A40216A
:101D4800204602F0CDF90135012DF6D900220221F5
:101D5800014802F077FADEE7D4060020D008002018
:101D680000687047F8B505460F461646002406E099
:101D78002846FFF7F5FF47F8240004350134B4423C
:101D8800F6D3F8BD08B502F0D3FB034B13221A6152
:101D980002F0E6FB08BD00BF0020024030B587B066
:101DA80004460025059502F0C3FBC4F1006000F568
:101DB8000030C00A01230293019503902023049365
:101DC80005A901A802F0B8FC044602F0C9FB14B941
:101DD800284607B030BD0120FBE700002DE9F84395
:101DE80004468846914602F0A3FB0025B5EB590F3F
:101DF80017D21E4B9C4214D808EBC50358F835700F
:101E08005E683A4633462146002002F0E7FB40BBB5
:101E180022686368B34208BFBA4224D10834013546
:101E2800E4E719F0010F0FD0666858F835502A46D4
:101E380033462146002002F0D1FB50B9226863687E
:101E4800B34208BFAA4208D102F08AFB0020BDE8CD
:101E5800F88302F085FB0320F9E702F081FB0220FA
:101E6800F5E70320F3E70220F1E700BFF8FF0108D8
:101E78000020704782B00023019311F1090F2CDA7A
:101E880001238DF8053010F1090F2CDA01238DF8A4
:101E980006309DF804009DF8053040EA430040B242
:101EA8009DF8063040EA830040B29DF8073040EACA
:101EB800C300C0B201280ED002280CD0042818D0C4
:101EC800082818D0052806D00A2816D0092816D0C0
:101ED800062816D0002002B070470929D3DD012357
:101EE8008DF80430CFE70928D3DD01238DF80730BA
:101EF800CFE70320EFE70420EDE70620EBE7072014
:101F0800E9E70820E7E7000070B5594D284601F0D9
:101F18000FFD584C204601F00BFD284601F024FA2D
:101F2800FEF710FC5449FEF765FC544DFEF74EFED3
:101F38002860204601F018FAFEF704FC5049FEF725
:101F480059FCFEF743FE04464E4B18602E68304697
:101F5800FEF7F8FB05464C49FEF7EAFD38B1B6F541
:101F6800D57F04D8494B6FF00D021A6031E046491D
:101F78002846FEF7DDFDF0B1B6F5D57F1BD94249FD
:101F88002846FEF7EBFC4249FEF734FC0146404880
:101F9800FEF726FBFEF7A0FA33A3D3E90023FEF7EA
:101FA8003DF902460B46104603F10041FEF7ECFAF4
:101FB800364B18600DE034492846FEF711FB3249CC
:101FC800FEF7CCFC3249FEF715FCFEF7D9FD2F4B86
:101FD80018602046FEF7B6FB05462B49FEF7A8FD1C
:101FE80038B1B4F5DC7F04D82A4B6FF00D021A60C3
:101FF80031E025492846FEF79BFDF0B1B4F5DC7FBA
:102008001BD921492846FEF7A9FC2149FEF7F2FB16
:1020180001461F48FEF7E4FAFEF75EFA12A3D3E979
:102028000023FEF7FBF802460B46104603F1004179
:10203800FEF7AAFA174B18600DE013492846FEF779
:10204800CFFA1149FEF78AFC1149FEF7D3FBFEF7D8
:1020580097FD104B18600D4B19680E4B1868FFF769
:1020680009FF0D4B187070BDC3F5285C8FC209407D
:10207800FC050020680600209721BF3F900900203A
:10208800C36ABD3F9409002000F0FF44880900207E
:10209800000060418C0900208609002000B585B049
:1020A800002301930293CDF80B3000931A48FFF7F1
:1020B800BAFB684600F0F4FE48B1052820D0042891
:1020C80022D0022824D01548FFF7ADFB15E01448AC
:1020D800FFF7A9FB1348FFF7A6FB009901A8FFF734
:1020E80003FB1148FFF79FFB01A8FFF79CFB0F4874
:1020F800FFF799FB0E48FFF796FB05B05DF804FB68
:102108000C48FFF790FBF8E70B48FFF78CFBF4E768
:102118000A48FFF788FBF0E7AC8E0008C88F000874
:10212800E88E00089C090020248F0008308F0008E2
:102138003C8F0008548F0008948F0008B08F000867
:1021480038B5104C2046FFF76EFB0F48FFF76BFBC6
:102158000E4D2846FFF767FB0D48FFF764FB28463E
:10216800FFF761FB0B48FFF75EFB2046FFF75BFBC1
:102178000948FFF758FBFFF77BFE084B1860FFF78D
:102188008DFF38BDE88F0008349000088090000863
:10219800CC90000818910008649100089809002064
:1021A800024668B143889BB20133818893FBF1F002
:1021B80001FB1033128892B2934203D0002070477B
:1021C8000020704701207047C0B138B50C4605465D
:1021D800B1B1FFF7E5FF012814D0AA686B889BB25C
:1021E8002178D1546B889BB20133AA8893FBF2F112
:1021F80002FB11339BB26B80012038BD0020704771
:102208000020FAE70020F8E7034628B121B10020B2
:10221800188058809A809960704738B1028892B2C5
:1022280043889BB29A4203D0002070470020704731
:1022380001207047C0B138B50C460546B1B1FFF76B
:10224800ECFF012814D0AA682B889BB2D35C2370BA
:102258002B889BB20133AA8893FBF2F102FB11335E
:102268009BB22B80012038BD002070470020FAE780
:102278000020F8E7F0B170B50D4616460446D9B10E
:10228800FFF7CBFF012819D023889BB200220DE06D
:10229800A168CB5CAB54238812FA83F30133A1887D
:1022A800B3FBF1F001FB10339BB201329642EFD839
:1022B800012070BD002070470020FAE70020F8E7F1
:1022C80078B1F8B50D461646074661B1002404E01A
:1022D80029193846FFF7AEFF0134A642F8DC012081
:1022E800F8BD002070470020FAE778B1F8B50D4630
:1022F8001646074661B1002404E029193846FFF75D
:1023080063FF0134A642F8DC0120F8BD00207047C5
:102318000020FAE70346B0B1418889B2028892B238
:10232800914209D240889A8812FA80F080B21B88BC
:102338009BB2C01A80B27047408880B21B889BB29B
:10234800C01A80B270470020704710B50446FFF7E6
:1023580027FF01280BD023889BB20133A28893FB67
:10236800F2F102FB11339BB22380012010BD002043
:10237800FCE770B506460D46002400E00134A5428E
:1023880006DD3046FFF7E1FF03460028F6D100E0FE
:102398000123184670BD43889BB2038070470246EC
:1023A80068B1808888420CD9138811FA83F191FBAF
:1023B800F0F300FB1311936889B2585C7047002052
:1023C800704700207047844680B1808888420FD9C2
:1023D800BCF8003011FA83F191FBF0F300FB131104
:1023E800DCF8083089B25A54012070470020704741
:1023F8000020704743684BB14368013B43602BB9E9
:10240800012343700378DBB2012B00D07047836847
:102418004360FBE700230FE0094803EB43018A0010
:102428000244002151609160517003EB430C4FEA64
:102438008C0281540133DBB2032BEDD9704700BF06
:10244800140E00200268194B9A4200D0704710B54C
:1024580000F04AFE002407E004EB4400144B03EBB1
:102468008000FFF7C7FF0134032CF5D9114B1A6818
:1024780001321A601A686FF000439A420AD00E4A75
:10248800138801331BB2138013881BB2B3F57A7F0C
:1024980004D010BD074B00221A60F0E71346002253
:1024A8001A80064802F07CFBF3E700BF00140040E6
:1024B800140E00200C0E0020100E002038070020FB
:1024C800032800D9FEE772B6074A00EB400302EB87
:1024D8008303596099600021597000EB4000830024
:1024E8000121D15462B67047140E00200346032818
:1024F80011D800EB4002094901EB82025078C0B2C2
:10250800012801D00020704703EB430301EB83034C
:1025180000225A7070470020704700BF140E002038
:1025280000B583B010238DF80730037823B1012B51
:102538000BD003B05DF804FB407801220DF10701D0
:1025480040F40070FFF7B6FBF3E7407801220DF185
:10255800070140F40470FFF7ADFBEAE700B583B06C
:1025680011238DF80730037823B1012B0BD003B06A
:102578005DF804FB407801220DF1070140F400707A
:10258800FFF798FBF3E7407801220DF1070140F4CB
:102598000470FFF78FFBEAE700B583B001238DF8DD
:1025A8000730037823B1012B0BD003B05DF804FB8F
:1025B800407801220DF1070140F40070FFF77AFB23
:1025C800F3E7407801220DF1070140F40470FFF7AA
:1025D80071FBEAE700B583B0BB238DF807300378B9
:1025E80023B1012B0BD003B05DF804FB4078012226
:1025F8000DF1070140F40070FFF75CFBF3E740784A
:1026080001220DF1070140F40470FFF753FBEAE7DC
:1026180010B582B0BB238DF8073001240AE00122EF
:102628000DF1070144F40070FFF744FB322000F07D
:102638006DFD0134082CF2DD322000F067FD012425
:102648000AE001220DF1070144F40470FFF732FBA0
:10265800322000F05BFD0134082CF2DD322000F05E
:1026680055FD02B010BD000070B59AB005460024B3
:102678000A943C2221460BA806F03EFB02940394E0
:1026880004940594069407940894099440F253130B
:10269800ADF804302B78002B40D16D7800236B4ABD
:1026A80013706B4A13706B4A13706B4A13706B4C40
:1026B8006B4B01AA01212046FEF7F6FE2A4602A925
:1026C8002046FEF7A4FF0AA92046FEF7CFFF0E22F8
:1026D8000AA9644B1868FFF7EDFA5C4B1B780BBB33
:1026E8005B4B1B78012BF8D15C4C5D4B01AA012197
:1026F8002046FEF7D9FE2A4602A92046FEF787FFA4
:102708000AA92046FEF7B2FF0E220AA9554B1868FF
:10271800FFF7D0FA4E4B00221A70DEE76D7845F0CD
:102728001005BBE7504C3FE003238DF805304C4BB8
:1027380001AA01213046FEF7B7FE2A4602A9304613
:10274800FEF765FF0AA93046FEF790FF0E220AA998
:10275800444B1868FFF7AEFA3E4B1B78002B72D13A
:102768003B4B1B78012BF7D103238DF805303B4CED
:102778003B4B01AA01212046FEF796FE2A4602A9F4
:102788002046FEF744FF0AA92046FEF76FFF0E22F7
:102798000AA9344B1868FFF78DFA2D4B00221A70DE
:1027A800DAE72D4B00221A7002238DF805302B4EE4
:1027B8002B4B01AA01213046FEF776FE08220DEBCD
:1027C80002012046FFF7CEFA2A4602A93046FEF754
:1027D8001EFF0AA93046FEF749FF0E220AA9214B1F
:1027E8001868FFF767FA2034204B9C429CD81A4B94
:1027F8001B78002BD5D1164B1B78012BF7D1203C29
:1028080002238DF80530154E154B01AA01213046DB
:10281800FEF74AFE08220DEB02012046FFF7A2FA56
:102828002A4602A93046FEF7F2FE0AA93046FEF70C
:102838001DFF0E220AA90B4B1868FFF73BFA044B41
:1028480000221A70D3E71AB070BD00BF4A0E0020EC
:10285800490E0020460E00204B0E00209408002050
:10286800DC0900200800002000000108FFFF010823
:1028780070B59AB0054600240A943C2221460BA85C
:1028880006F03AFA02940394049405940694079483
:102898000894099440F25313ADF804302B7823B907
:1028A8006D787B4B00221A80A2E06D7845F0100508
:1028B800F7E7784C4AE003238DF80530764B01AAF8
:1028C80001213046FEF7F0FD2A4602A93046FEF700
:1028D8009EFE0AA93046FEF7C9FE0E220AA96F4BD2
:1028E8001868FFF7E7F90135EDB2082D1DD111255C
:1028F8001BE003238DF80530694C674B01AA0121C1
:102908002046FEF7D1FD2A4602A92046FEF77FFEA3
:102918000AA92046FEF7AAFE0E220AA95F4B1868EC
:10292800FFF7C8F95F4B00221A705F4B1B78002B2A
:102938005BD15C4B1B78012BF7D1013DEDB2102D1B
:10294800D7D10825D5E7594B00221A7002238DF8F4
:102958000530534E504B01AA01213046FEF7A4FD25
:1029680008220DEB02012046FFF7FCF92A4602A9CE
:102978003046FEF74CFE0AA93046FEF777FE0E22D7
:102988000AA9464B1868FFF795F92034484B9C4232
:1029980091D8464B1B78002BD5D1424B1B78012B85
:1029A800F7D1203C02238DF805303D4E3A4B01AA61
:1029B80001213046FEF778FD08220DEB0201204682
:1029C800FFF7D0F92A4602A93046FEF720FE0AA9E9
:1029D8003046FEF74BFE0E220AA9304B1868FFF767
:1029E80069F9304B00221A70D3E7304B00221A7075
:1029F800274B1A8843F6FF739A4243D000232D4A87
:102A08001370284A1370284A1370284A137001213A
:102A18008DF80510224C204B01AA2046FEF744FDF4
:102A28002A4602A92046FEF7F2FD0AA92046FEF72B
:102A38001DFE0E220AA9194B1868FFF73BF91D4B1A
:102A48001B78002B7FF435AF164B1B78012BF6D182
:102A5800134C114B01AA01212046FEF725FD2A46F9
:102A680002A92046FEF7D3FD0AA92046FEF7FEFD7F
:102A78000E220AA9094B1868FFF71CF9094B002216
:102A88001A70DCE7024B00221A801AB070BD00BF32
:102A9800440E002000000108DC0900200800002086
:102AA80094080020490E0020460E00204B0E0020FE
:102AB800FFFF01084A0E002008B5FFF741FB08BDDB
:102AC80030B583B01048FFF725FC012819D9054611
:102AD800002407E001210C48FFF74BFC10F0FF0F22
:102AE8000FD00134A5420CD9022201A90648FFF7EC
:102AF800C1FB9DF80430EB2BECD19DF80530092B78
:102B0800E8D103B030BD00BF000E0020054B1B7894
:102B18001BB9044B01221A707047024B00221A702D
:102B2800704700BF470E002010B582B055238DF8BE
:102B3800073001240AE001220DF1070104F50070B5
:102B4800FFF7B8F80A2000F0E1FA0134082CF2DDAA
:102B580001240AE001220DF1070104F50470FFF7D2
:102B6800A9F80A2000F0D2FA0134082CF2DD02B0EC
:102B780010BD10B582B056238DF8073001240AE045
:102B880001220DF1070104F50070FFF793F80A2000
:102B980000F0BCFA0134082CF2DD01240AE001221D
:102BA8000DF1070104F50470FFF784F80A2000F01E
:102BB800ADFA0134082CF2DD02B010BD10B510F8E2
:102BC800023B102B0ED85AB2EAB1013B0F2B1AD890
:102BD800DFE803F01A1D19201919191919192919EB
:102BE8002C19233FBB2B1BD004D9DD2B09D1FFF7B0
:102BF8000FFD08E0552B29D0562B04D1FFF7B9FF5C
:102C080001E0FF2B15D010BDFFF78AFCFBE7FFF7AB
:102C1800A5FCF8E7FFF77AFFF5E7FFF7BDFCF2E759
:102C2800FFF722FDEFE7FFF7D5FCECE7FFF720FE03
:102C3800E9E7BFF34F8F0B49CA6802F4E0620A4B19
:102C48001343CB60BFF34F8F00BFFDE7FFF76CFF67
:102C5800D9E7064C01232370FFF72EFF00232370CA
:102C6800D1E700BF00ED00E00400FA054C0E00209B
:102C780030B5C3B02B48FFF74DFB042804D82A4BC6
:102C880000221A7043B030BD044604220DEB020145
:102C98002448FFF7EFFA9DF80430EB2B03D19DF899
:102CA8000530092B05D0FFF70BFF1F4B03221A70C5
:102CB800E8E79DF807500635EDB2A54203D91A4B4F
:102CC80000221A70DEE7691E89B21648FFF767FB13
:102CD8000A2809D002211348FFF74BFBFFF7F0FE43
:102CE800114B05221A70CDE7A91E89B20D48FFF7CE
:102CF80056FB0D28EED10B4C02212046FFF739FB7D
:102D08002A1F92B202A92046FFF7DAFA02212046CA
:102D1800FFF72FFB02A8FFF751FF034B02221A709F
:102D2800B0E700BF000E0020480E002008B54FF4A1
:102D38008271024805F0A4FD08BD00BF500E0020B6
:102D480041F4807106E080F4815080F0010011F4B4
:102D5800803F09D14000490011F4807F00D0013044
:102D680010F4803FF3D0EEE780B2704738B50446E0
:102D78004518002004E014F8011B80B2FFF7E0FFBB
:102D8800AC42F8D3002180B2FFF7DAFF0021FFF749
:102D9800D7FF38BDF8B504460D4600230B603C4B01
:102DA8001B7863B93B4B1B78002BF8D141F2883074
:102DB80000F0ACF90121384805F062FDEFE7354B2A
:102DC80001221A70324B00221A70344B1B78182BD0
:102DD80017D85AB26AB35A1E172A0FD8DFE802F07A
:102DE8002C1D0E0C0E0E0E0E0E0E0E0E0E0E0E0ED0
:102DF8000E0E0E0E0E0E0E20002608E001270026ED
:102E080005E0412B1AD0612B1BD102270026237025
:102E18007F2E2BD82E603846F8BD4FF48066F6E733
:102E28001E4A5278182A02D001270026EFE7022608
:102E3800EDE701270026EAE78026E8E702270026D3
:102E4800E5E701270026E2E7013302321349C95CAE
:102E5800A154311D1A469942F6D8A278E378DB438B
:102E6800DBB29A4204D001270026D3E70023F0E71B
:102E7800635CA219577907EB03273146201DFFF73A
:102E880075FFB84202D001270026C3E70027C1E733
:102E980061170020621700206C9100085C13002065
:102EA8002DE9F04F8BB0009000266F4B0193B3468D
:102EB800B2463546B146B9F1000F40F0D080002E39
:102EC80040F0CD80C8464F46A6E0099D3DB1022D91
:102ED8001AD10620FEF7B8FC3D4602269CE0BBF15D
:102EE800000F06D11520FEF7AFFC5D464FF0010B31
:102EF80092E00620FEF7A8FC322000F007F94320F4
:102F0800FEF7A2FCA84687E0584B9B7843450CD1B6
:102F1800B8F1000F60D1554B1B79CBB90620FEF7ED
:102F280093FC45460127B94676E01520FEF78CFC50
:102F38003D4671E001334E4881540132197809B198
:102F48003F2AF7D94A49002088540133424609E00C
:102F58004246484BF2E7013302F12800684400F882
:102F6800181C01321978202901D00F2AF3D902F14F
:102F780028030DEB0302002302F8183C08A904A853
:102F8800FEF7DAFB009B1A6848F201039A4214D84C
:102F98003548FEF703FF089B009A13600620FEF7EA
:102FA80053FC322000F0B2F84320FEF74DFC08F144
:102FB80001083D464FF0010A2EE018238DF80F3026
:102FC80001210DF10F0005F05BFC01210DF10F004F
:102FD80005F056FC0526DBE7AA082649019C204691
:102FE800FEF7FCFE30B9099B1C4401940620FEF74D
:102FF8002BFCDCE71820FEF727FC1820FEF724FC42
:103008000426D4E71820FEF71FFC322000F07EF8D3
:103018001820FEF719FC2646002F7FF44CAF002E2F
:103028007FF449AF4FF47A7209A91048FFF7B2FE4E
:10303800044600283FF449AF0228E3D0BAF1000F54
:1030480000D00135052D06D91820FEF7FDFB182004
:10305800FEF7FAFBE0E74320FEF7F6FBDCE7304635
:103068000BB0BDE8F08F00BF00000108540F00202E
:103078009C090020580F0020104B1B680BB9012039
:10308800704710B504464FF47A70B0FBF3F30C4A5E
:103098001068B0FBF3F000F03FFE68B90F2C01D9BF
:1030A80001200AE0002221464FF0FF3000F0EEFD3B
:1030B800044B1C60002000E0012010BD0C00002023
:1030C800000000201000002010B5032000F0CCFD07
:1030D8000F20FFF7D1FF10B10124204610BD044690
:1030E800FEF726F9F9E70000034A1368034909685F
:1030F8000B441360704700BF641700200C000020C9
:10310800014B1868704700BF6417002038B50446A3
:10311800FFF7F6FF0546B4F1FF3F02D0044B1B68EA
:103128001C44FFF7EDFF401BA042FAD338BD00BF97
:103138000C00002030B583B000230193002800F074
:1031480007810446C36D13B323689A6812F0005FC1
:1031580005D09A6822F0204222F03F029A60226845
:10316800936813F0805F1FD1936823F0104323F016
:103178003F0343F080539360764B1B689B09764A64
:10318800A2FB03239B0901335B00019309E0FDF7D0
:10319800D1FD0023236684F85830D5E7019B013B15
:1031A8000193019B002BF9D12268936813F0805F8B
:1031B80040F09680E36D43F01003E365236E43F01F
:1031C800010323660120936813F0040300D0012350
:1031D800E16D11F0100F40F0B480002B40F0B18089
:1031E800E36D23F4817343F00203E365936813F0FE
:1031F800010F15D14FF0A0439B6813F0010300D0D5
:103208000123564A926812F0010200D001221343AA
:1032180006D1636852498A6822F47C1213438B6092
:10322800627FE36B43EA4233E2681343A2681343C5
:1032380094F8242043EA0243012A53D0E26A22B1D7
:1032480002F47872216B0A4313432168CD68454A1A
:103258002A401343CB602268136923F04063616BF3
:103268000B4313612268936813F0080300D001230D
:103278003BBB217F94F838305B0043EA8131D36847
:1032880023F4804323F002030B43D360236973B311
:103298002268136943F4803313612268D2F8C0307E
:1032A80023F47F5323F03F0321690B43C2F8C03056
:1032B80094F84030012B29D02268136923F00103C8
:1032C80013616369012B33D02268136B23F00F035A
:1032D8001363E36D23F0030343F00103E36535E073
:1032E800002070E7A26A013A43EA4243A6E722684F
:1032F800136923F4803313612268D2F8C03023F4B1
:103308007F5323F03F03C2F8C030D1E721680B692F
:1033180023F4FF6323F00403626CA56C2A43E56C75
:103328002A43256D2A43134343F001030B61C8E781
:1033380021680B6B23F00F03226A013A13430B63D6
:10334800C7E7E36D43F01003E365012003B030BD28
:103358000120FBE700000020632D3E05000100501E
:10336800000300500740F0FF0368186C7047000026
:10337800F0B583B00022019290F85820012A00F09D
:103388005E820346012280F858200568A86810F07C
:10339800040F09D0DA6D42F02002DA65012000221C
:1033A80083F8582003B0F0BD4C683035220A9200EB
:1033B80002F00C02A85804F01F0E1F2404FA0EF4A1
:1033C80020EA04000C68C4F3846C0CFA0EFC40EA92
:1033D8000C00A8501868826812F0040200D001227C
:1033E800846814F0080400D00124002A50D1002C6D
:1033F8004ED18D68B5F1004F00F082800F6814300F
:103408007A0E920002F004028658C7F3045E4FF069
:10341800070C0CFA0EFC26EA0C0C05FA0EF54CEA21
:10342800050585501868426922F0004242614D69DD
:103438001868C268C2F3C102520005FA02F20E69A6
:10344800042E75D0603050F82670A84D3D400F68A6
:1034580007F0F8473A43154345F0004540F8265031
:103468001A680E698869603252F8265025F080750E
:10347800284342F826001A680D69087F012854D0AD
:10348800603252F8250020F00070044342F82540CD
:103498001868826812F0010F17D10A68CD68D0F851
:1034A800B040C2F3120C24EA0C0405F0180C904D3D
:1034B80025FA0CF52A40C2F312022243C0F8B020C4
:1034C800C8688C4A904200F09B800A688A490A4280
:1034D80000F0AD818949896801F0E070884CA2420A
:1034E80000F05C81874CA24200F05881864CA242D1
:1034F80000F07A81854CA24200F0888100204EE7D6
:103508000D6814306A0E920002F004028658C5F362
:103518000455072707FA05F526EA050585501868B2
:10352800426942F00042426181E74FF00074A7E728
:10353800026E046EC4F384640A68C2F3120585BB84
:10354800C2F38462944234D01C68626E606EC0F329
:1035580084600A68C2F3120585BBC2F38462904294
:1035680034D01C68A26EA06EC0F384600A68C2F3EF
:10357800120585BBC2F38462904234D01C68E26EA7
:10358800E06EC0F384600A68C2F3120585BBC2F31B
:10359800846290427FF47CAFE26E22F00042E266E1
:1035A80076E792FAA2F212B1B2FA82F2CAE72022C0
:1035B800C8E7026E22F000420266C5E792FAA2F25C
:1035C80012B1B2FA82F2CAE72022C8E7626E22F08C
:1035D80000426266C5E792FAA2F212B1B2FA82F22A
:1035E800CAE72022C8E7A26E22F00042A266C5E719
:1035F80092FAA2F212B1B2FA82F2CAE72022C8E71E
:103608001C680A68C2F31205002D38D1900E0130EB
:1036180000F01F0009288CBF00200120002877D067
:10362800002D3BD1900E0130800600F0F840002DAF
:1036380040D1960E013606F01F070126BE403043E2
:10364800002D45D1920E013202F01F0202EB420218
:1036580012050243886804F11406550EAD0005F002
:1036680004057459C2F304524FF0070C0CFA02FC1B
:1036780024EA0C0C90404CEA0000705125E792FABD
:10368800A2F048B1B0FA80F0013000F01F0009281C
:103698008CBF00200120C1E72020F5E792FAA2F0B4
:1036A80030B1B0FA80F00130800600F0F840BEE793
:1036B8002020F8E792FAA2F646B1B6FA86F6013665
:1036C80006F01F06012707FA06F6B8E72026F6E7F0
:1036D80092FAA2F242B1B2FA82F2013202F01F0269
:1036E80002EB42021205B4E72022F6E700F0FF03DE
:1036F800FFFF070000007F40000008800003005023
:10370800000021C31000C090000052C7000084CB05
:10371800CDB9900E0130800600F0F840FDB9960E44
:10372800013606F01F070126BE4030432DBB920E1E
:10373800013202F01F0202EB42021E3A120542F069
:103748000072024386E792FAA2F030B1B0FA80F034
:103758000130800600F0F840E0E72020F8E792FA10
:10376800A2F646B1B6FA86F6013606F01F0601271C
:1037780007FA06F6D9E72026F6E792FAA2F25AB136
:10378800B2FA82F2013202F01F0202EB42021E3A42
:10379800120542F00072D4E72022F3E711F4000F7B
:1037A8007FF4A4AE1A68B2F1A04F01D00020F6E56C
:1037B80040F4000023498A6822F0E07210438860D0
:1037C800214A126892092149A1FB02129209013289
:1037D80002EB420292000192019A1AB1019A013A4F
:1037E8000192F9E70020DAE511F0807F7FF482AEDC
:1037F8001968174A91421CD040F0807011498A68B4
:1038080022F0E072104388600020C8E511F4800FB0
:1038180011D119680E4A91420FD040F4800209482C
:10382800816821F0E0710A4382600020B7E500203A
:10383800B5E50020B3E50020B1E50020AFE50220A2
:10384800B0E500BF0003005000000020632D3E05D6
:103858000001005030B583B00023019303689A68D3
:1038680012F0010F58D1044699682D4A114219D116
:103878009A6822F0004222F03F0242F001029A6068
:10388800284B9B6813F4000F1CD0274B1B689B091F
:10389800264AA2FB03239B09013303EB43039B0046
:1038A80001930CE0C36D43F01003C365036E43F04E
:1038B80001030366012030E0019B013B0193019B5A
:1038C800002BF9D1FFF71CFC054623681A6812F093
:1038D800010F1FD19A6812F0010F07D19A6822F0E0
:1038E800004222F03F0242F001029A60FFF708FC12
:1038F800431B022BE9D923681B6813F0010FE4D19D
:10390800E36D43F01003E365236E43F00103236680
:10391800012002E0002000E0002003B030BD00BF1D
:103928003F0000800003005000000020632D3E058A
:1039380038B53A4B9D6803689B6813F0040F69D14A
:10394800044605F01F0590F85830012B64D0012378
:1039580080F85830FFF77EFF002857D1E36D23F435
:10396800706323F0010343F48073E36523682C4AF2
:1039780093422FD01A46934200D01DB9E26D22F42B
:103988008012E265E26D12F4805F26D0226E22F08A
:10399800060222661C221A60002384F85830226826
:1039A8001F4B9A421CD013469A421CD0DDB1052DFC
:1039B80019D0092D17D0E26D42F48012E265DB6858
:1039C80013F0007F27D0E36D23F4405343F4805372
:1039D800E36520E04FF0A042CDE700222266D9E758
:1039E8004FF0A043E0E7D36813F0007F05D0E36D04
:1039F80023F4405343F48053E365936823F0004372
:103A080023F03F0343F00403936004E0002384F8A9
:103A1800583000E0022038BD0220FCE700030050C7
:103A28000001005038B504460268936813F0020399
:103A380000D00123916811F0010F39D0002B39D142
:103A4800936803F00D03012B09D0E36D43F01003D5
:103A5800E365236E43F001032366012029E09368A0
:103A680023F0004323F03F0343F0020393602368ED
:103A780003221A60FFF744FB054623689B6813F08E
:103A8800010F13D0FFF73CFB401B0228F5D9236830
:103A98009B6813F0010FF0D0E36D43F01003E3656A
:103AA800236E43F001032366012002E0002000E0BA
:103AB800002038BD0020FCE730B583B00023019317
:103AC80090F85830012B41D004460D46012380F868
:103AD8005830FFF7A7FF80BBE36D23F4885323F02A
:103AE800020343F00203E3652268936823F040432E
:103AF80023F03F0305F080452B4343F000439360D8
:103B080023689B68002B06DBE36D23F0030343F077
:103B18000103E36515E0019B01330193019A0C4B06
:103B28009A42EDD9E36D23F0120343F01003E365E5
:103B3800002384F85830012006E0E36D43F01003B9
:103B4800E365002384F8583003B030BD0220FBE75A
:103B580001DE040090F85820012A7ED010B49DB0F0
:103B68000346012280F85820002218921992006812
:103B7800B0F1A04F39D000220192019A002A37D023
:103B8800926812F0040200D00122806810F0040F3D
:103B980054D1002A52D10A68002A32D0304CA26887
:103BA80022F46042486893F838C040EA4C30024337
:103BB800A2604FF0A042926812F0010200D00122E8
:103BC8002848806810F0010000D00120024340D14D
:103BD800234CA26822F4716222F00F0208688968F7
:103BE80001430A43A26000202DE01E4A0192C4E767
:103BF800DA6D42F02002DA65002283F858200120AD
:103C080024E017498A6822F460428A604FF0A04293
:103C1800926812F0010200D001221249896811F05D
:103C2800010100D001210A4315D10D498A6822F407
:103C3800716222F00F028A60002004E0DA6D42F01F
:103C48002002DA650120002283F858201DB010BC3C
:103C580070470020F7E70020F5E70220704700BF13
:103C68000003005000010050074AD36823F4E063C2
:103C78001B041B0C000200F4E060034343F0BF6325
:103C880043F40033D360704700ED00E000B5194BF2
:103C9800DB68C3F30223C3F1070CBCF1040F28BF90
:103CA8004FF0040C03F1040EBEF1060F18D9033BC4
:103CB8004FF0FF3E0EFA0CFC21EA0C0199400EFA77
:103CC80003F322EA0303194300280BDB0901C9B2F5
:103CD80000F1604000F5614080F800135DF804FBD6
:103CE8000023E5E700F00F000901C9B2024B19549F
:103CF800F4E700BF00ED00E014ED00E0002807DB6A
:103D080000F01F02400901239340024A42F8203084
:103D1800704700BF00E100E00138B0F1807F0BD2AE
:103D28004FF0E0235861054AF02182F82310002063
:103D3800986107221A6170470120704700ED00E082
:103D4800144B03640168D1F8802022F4F812D0F8EB
:103D580034C042EA0C42C1F880200F4A426401682C
:103D6800D1F8802022F07062D0F838C042EA0C62A4
:103D7800C1F88020094A8264D832C264D832026508
:103D88001832426502E0002243F8042B044A9342A9
:103D9800F9D9704700A4004070A40040B0A40040C6
:103DA8004FA7004070B54C68ECB90D698C68254385
:103DB8000C6845EA8445CC690E6A44EA06648E6953
:103DC80034434E693443CE6844EA0644406D03EBFD
:103DD800C30300EBC30E40F83350CEF804400EF195
:103DE800080E002019E00C698D6825430C682543EE
:103DF80045F08045DFE702EB000C9CF803409CF897
:103E080002301B0443EA04639CF8014043EA04239C
:103E1800145C23434EF8043B0430CB68024CE35C4B
:103E28008342E8D870BD00BF70910008002800F0F8
:103E3800E38038B5044690F85C30D3B122689369C2
:103E480023F010039361FFF75BF9054623689A692D
:103E580012F0080F12D0FFF753F9401B0A28F5D9C2
:103E6800236E43F001032366032384F85C300120AA
:103E780038BD80F85D30FDF70BF8DFE79A6942F04E
:103E880001029A61FFF73CF9054623689A6912F026
:103E9800010F0DD1FFF734F9401B0A28F5D9236E1D
:103EA80043F001032366032384F85C300120DFE735
:103EB8009A6942F002029A612268504B9A4242D0B3
:103EC800237C012B45D02268936943F0400393611A
:103ED800637C012B43D02268936923F48043936168
:103EE800A37C012B41D02268936943F480539361EA
:103EF8002268936923F44073A1680B439361226895
:103F0800936923F0A40393612268136923F01003D3
:103F18001361E368012B2ED0002B31D0022B54D033
:103F28002268936943F0800393612268136943F020
:103F380010031361E368032B22D12268936943F0CD
:103F4800200393611CE06268A3F58063C3F8002531
:103F5800B6E72268936923F040039361B8E72268C3
:103F6800936943F480439361BAE72268936923F421
:103F780080539361BCE72268936943F0040393611B
:103F8800A3695A1EE369013B1B0243EA4263226AA2
:103F9800013A13436269013A216843EA0243CB615B
:103FA800A368B3F5407F16D02268D2F8C030E16B21
:103FB8000B43C2F8C0302046FFF7C2FE0020A065C0
:103FC8002066012384F85C3052E72268936943F045
:103FD80020039361D4E7A36A013BE26A013A43EA0A
:103FE8000223226B013A43EA0213626A013A21680A
:103FF80043EA0243CB60D7E70120704700640040E2
:1040080090F85C30013BDBB2012B05D9036E43F01D
:1040180002030366012070470B687BB98A68CB6886
:10402800DB0643EA82730A6943EA02434A69134397
:10403800026C496842F8213000207047CA680B6951
:1040480043EA42724B69D1F808C043EA8C73406C6A
:10405800496800EBC10C40F83120CCF80430EBE79C
:1040680090F85C30DBB2012B05D0036E43F00403FB
:10407800036601207047022380F85C300268936968
:1040880023F001039361002303661846704738B58F
:10409800044690F85C30DBB2022B1BD10368D3F8DE
:1040A800C40010F4001F05D0236E43F40073236688
:1040B800012014E0D3F8C450C5F301452B4620462F
:1040C800FFF770FE22680123AB40C2F8CC30A3652D
:1040D800002004E0036E43F008030366012038BDA6
:1040E80070B590F85C40E4B2022C40F0A280402900
:1040F8000BD00468D4F8985015F00F0F2DD1036E2B
:1041080043F480730366012098E00468D4F8905063
:1041180015F00F0F05D1036E43F480730366012079
:104128008CE0D4F89050C5F3006C15F0807F08D06F
:10413800D4F88050C5F3402C15F4007F01D04FF01F
:10414800010CD4F89040C4F301240CEB0405846CF2
:1041580005EBC50C04EBCC0C1AE0D4F89850C5F369
:10416800006C15F0807F08D0D4F88050C5F3002C7F
:1041780015F4807F01D04FF0010CD4F89840C4F3B7
:1041880001240CEB0405C46C05EBC50C04EBCC0C4A
:10419800DCF8004004F08044546074BBDCF8004054
:1041A800C4F38A441460DCF8004004F000549460BE
:1041B800DCF8004004F000441461BCF80440D46109
:1041C800BCF8064004F00F04D460DCF8044004F4A2
:1041D80080145461DCF8044004F4001494619CF8E1
:1041E800074004F07F041462DCF80440E40F5462D2
:1041F8000CF1080E4FF0000C0BE0DCF8004024F046
:1042080060441460CFE71EF80C4003F80C400CF132
:10421800010C0B4CD668A45D6445F4D8402904D041
:104228000368C3F89C50002008E00368C3F8945062
:10423800F9E7036E43F008030366012070BD00BF71
:104248007091000890F85C30013BDBB2012B05D976
:10425800036E43F0020303660120704770B40468DC
:10426800A36D11F0070602D013F0010F23D011F04F
:10427800380F02D013F0020F1DD011F4E07F02D0E6
:1042880013F0040F17D011F4F05F02D013F0080FE9
:1042980011D011F4604F02D013F0100F0BD011F4AD
:1042A800403F02D013F0200F05D011F47C0F06D048
:1042B80013F0400F03D1E56D45F00105E56516B132
:1042C80013F0010F23D111F0380F02D013F0020FB1
:1042D8001DD111F4E07F02D013F0040F17D111F4AF
:1042E800F05F02D013F0080F11D111F4604F02D023
:1042F80013F0100F0BD111F4403F02D013F0200F30
:1043080005D111F47C0F07D013F0400F04D00468D6
:10431800E36D43F00203E36511F0800F05D00468F4
:10432800D4F8DC301343C4F8DC3011F4807F05D0B6
:104338000468D4F8E0301A43C4F8E0200268536DEA
:1043480019435165002070BC70477047704770472B
:1043580070477047704770477047704770472DE93E
:10436800F84F044603681A6D02F4E05A5A6D0AEAD7
:10437800020A1A6D02F007095A6D09EA02091A6D54
:1043880002F038085A6D08EA02081E6D06F4710634
:104398005A6D16401F6D07F460275A6D1740D3F801
:1043A80054B01D6D15F0400F02D01BF0400F41D1E5
:1043B80015F4807F02D01BF4807F40D1BAF1000F42
:1043C8004AD1B9F1000F4FD1B8F1000F54D115F40B
:1043D800007F02D01BF4007F56D115F0800F02D069
:1043E8001BF0800F58D115F4005F02D01BF4005F5A
:1043F8005ED115F4004F02D01BF4004F60D115F4C4
:10440800804F0AD01BF4804F07D023684FF48042B6
:104418001A65236E43F080032366002F58D126B116
:1044280023681E65236E1E432666236E002B56D115
:10443800BDE8F88F40221A65FFF78EFFB8E72368BA
:10444800D3F8D810D3F8E0204FF4807018651140E5
:104458002046FFF77EFFB1E72368C3F850A0514616
:104468002046FFF772FFACE72368C3F8509049462F
:104478002046FDF743FCA7E72368C3F85080414670
:104488002046FFF763FFA2E723684FF400721A651E
:104498002046FFF75CFFA0E72368D3F8D410D3F8D1
:1044A800DC208020186511402046FFF751FF9AE76D
:1044B80023684FF400521A652046FFF74BFF98E730
:1044C80023684FF400421A652046FFF744FF96E739
:1044D80023681F6539462046FFF740FF9FE72046BF
:1044E800FFF73BFFA4E7000010B4054C616941F0F9
:1044F800010161610260BFF36F8F436010BC7047B8
:1045080000200240094A536943F480235361EFF3C2
:10451800108C72B6402351F8042B40F8042B013B51
:1045280013F0FF03F7D18CF3108870470020024086
:10453800094B5B69002B01DB00207047064B074ADB
:104548009A6002F188329A605B69002B01DB0020D7
:1045580070470120704700BF0020024023016745D3
:10456800054B5A6942F000425A615B69002B01DB36
:1045780001207047002070470020024038B50546EA
:10458800FEF7BEFD0446134B1B6913F4803F06D0AB
:10459800FEF7B6FD001BA842F5D9032038BD0D4B28
:1045A8001B694CF2FA32134009D10A4B1B6913F00C
:1045B800010F0CD0074B01221A610020EEE70649D3
:1045C8004A681A434A60034A13610120E6E700205B
:1045D800E4E700BF00200240140000202DE9F0416C
:1045E8001646284A1278012A49D004460D469846AC
:1045F800244B01221A704FF47A70FFF7BFFF074669
:1046080008BB204B00225A601F4B1B6813F4806FB5
:104618001FD01D4A136823F480631360194B0222CC
:104628001A77D4B1631E012B1ED900244FF47A7077
:10463800FFF7A4FF074624B1134A536923EA040489
:10464800546100F047F80F4B00221A703846BDE855
:10465800F0810C4B00221A77E3E73246434628469E
:10466800FFF742FF0124E1E731462846FFF74AFFFA
:10467800022C01D00024D9E74FF48024D6E7022782
:10468800E4E700BF140000200020024010F0010FF2
:1046980004D0054A536943F004035361024A53693D
:1046A80043F480335361704700200240084B5A6935
:1046B80022F4FC72C00000F4FF6002435A615A6998
:1046C80042F002025A615A6942F480325A617047D4
:1046D80000200240164B1B7FDBB2012B01D0032BBD
:1046E80010D1144A116821F400711160116841F465
:1046F80000611160116821F400611160116841F4D2
:1047080000711160023BDBB2012B03D9084B002278
:104718001A777047074B1A6842F480521A601A6871
:1047280022F480521A601A6842F480621A60EDE737
:104738001400002000200240F8B5384B1B78012BEC
:1047480069D004460E46354B01221A704FF47A7030
:10475800FFF714FF0746002858D1304B00225A6053
:104768002F4B1B6813F4007F2DD02D4B1B6813F4BF
:10477800806F24D02A4A136823F480631360274B80
:1047880003221A772368012B2FD04FF0FF333360B1
:10479800A568A368E2681344AB4235D96168284626
:1047A800FFF784FF4FF47A70FFF7E8FE1C4A53695D
:1047B80023F4FD735361074628BB0135E9E7174B1E
:1047C80001221A77DEE7164B1B6813F4806F08D0B6
:1047D800134A136823F480631360104B02221A777C
:1047E800D0E70E4B00221A77CCE76068FFF74EFF40
:1047F8004FF47A70FFF7C2FE0746094A536923F05F
:104808000403536100E03560FFF764FF034B0022A7
:104818001A703846F8BD0227FBE700BF14000020D5
:104828000020024070B582B0002365E085685E0014
:104838000324B44025EA0405CC68B4402C438460C2
:10484800446824EA0C0C4C68C4F300149C4044EA05
:104858000C04446061E0DD08083550F8256003F079
:1048680007044FEA840C0F2404FA0CF426EA040E19
:104878000C6904FA0CF444EA0E0440F8254063E09D
:10488800052400E0002404FA0EF42C430CF1020C79
:10489800574D45F82C40574CA568D44325EA0206E5
:1048A800D1F804C01CF4801F01D042EA0506514D1E
:1048B800AE60ED6804EA0506D1F804C01CF4001FD8
:1048C80001D042EA05064B4DEE606D6804EA050624
:1048D800D1F804C01CF4003F01D042EA0506454D5A
:1048E8006E602D682C404E6816F4803F01D042EA75
:1048F8000504404A146001330A6832FA03F474D09C
:104908004FF0010C0CFA03FC1CEA0202F3D04C68CD
:1049180004F00304013C012C88D94C6804F003041A
:10492800032C0CD0C4685D004FF0030C0CFA05FC96
:1049380024EA0C0C8C68AC4044EA0C04C4604C6853
:1049480004F00304022C86D004684FEA430E4FF0AB
:10495800030C0CFA0EFC24EA0C0C4C6804F003045B
:1049680004FA0EF444EA0C0404604C6814F4403F62
:10497800C1D0214C256E45F001052566246E04F052
:1049880001040194019C4FEA930C0CF10205184CA8
:1049980054F8255003F003044FEA840E0F2404FA58
:1049A8000EF425EA0405B0F1904F3FF46BAF134CB9
:1049B800A04212D004F58064A04210D004F58064AF
:1049C800A0420ED004F58064A0420CD004F58064A7
:1049D800A0423FF455AF062455E7012453E70224CB
:1049E80051E703244FE704244DE702B070BD00BF30
:1049F800000001400004014000100240000400488B
:104A0800002331FA03F200F08180F0B52EE005258D
:104A180000E0002505FA0CFCA4455BD004685D00A5
:104A28004FF0030C0CFA05FC44EA0C0404604FEA4E
:104A3800D30E0EF1080E50F82E4003F00705AE0015
:104A48000F25B54024EA050440F82E40C46824EA3E
:104A58000C04C460446824EA02024260826822EAC4
:104A68000C028260013331FA03F24ED001229A40DF
:104A780012EA0107F6D04FEA930E0EF10205244C14
:104A880054F8254003F0030C4FEA8C0C0F2505FA67
:104A98000CF63440B0F1904FBBD01E4DA84211D057
:104AA80005F58065A8420FD005F58065A8420DD0B0
:104AB80005F58065A8420BD005F58065A842A6D00B
:104AC8000625A7E70125A5E70225A3E70325A1E712
:104AD80004259FE7104C256825EA070525606568C9
:104AE80025EA07056560E56825EA0705E560A56824
:104AF80025EA0707A760064F0EF1020457F824506D
:104B080025EA060547F8245088E7F0BD704700BF3E
:104B18000000014000040048000401400AB181611E
:104B2800704781627047436901EA030221EA030181
:104B380041EA02418161704700282FD038B5044608
:104B480003684CF6CC421A60036845F255521A6065
:104B5800036842685A60036882689A60FEF7D0FA70
:104B680005462368DA6812F0070F0BD0FEF7C8FA7B
:104B7800401B3128F5D92368DB6813F0070FF0D004
:104B8800032005E01969E268914202D01A61002009
:104B980038BD4AF6AA221A600020F9E701207047BA
:104BA80003684AF6AA221A600020704738B512F442
:104BB800804F43D00468B4F8503091F800C04FEAF1
:104BC800CC0E1EFA83F32344B3F80244C4F3090459
:104BD8008B69A34228D31B1B8B618B697BB9056842
:104BE80035F82C309BB223F4804323F0700383F410
:104BF800005343F4004343F0800325F82C3012F0AF
:104C0800400F0ED002680D7832F825309BB223F49D
:104C1800E04323F0700343F4004343F0C00322F859
:104C2800253024B9204638BD00238B61D5E72346BB
:104C38000A894969006802F0A1FEF3E70468B4F83C
:104C4800503091F800C04FEACC0E1EFA83F323448B
:104C5800B3F80644C4F309048B69A3422FD31B1B82
:104C68008B618B697BB9056835F82C309BB223F4CE
:104C7800804323F0700383F4005343F4004343F06C
:104C8800800325F82C3012F0400F0FD1026891F8FC
:104C980000C032F82C309BB223F4E04323F07003B9
:104CA80043F4004343F0C00322F82C30002CB9D061
:104CB80023464A894969006802F060FEB2E700238A
:104CC8008B61CEE7002856D010B5044690F8913293
:104CD8003BB1032384F89132206801F05DFF002383
:104CE80015E080F8903203F089FEF2E703EB8302C7
:104CF80004EBC2020121517413740021D1741162B2
:104D08005162013303EB8302D200A150DBB2207958
:104D18009842EBD8002316E003EB830204EBC202AF
:104D2800002182F8511182F8503182F85311C2F8EB
:104D38006011C2F8641103EB830204EBC202C2F8EB
:104D480068110133DBB29842E6D8234653F8040BC6
:104D580093E8060001F02AFF00232373012384F857
:104D68009132A37A012B01D0002010BD204600F01B
:104D7800F5FE0020F9E70120704790F89032012BEA
:104D88000ED010B50446012380F89032006801F077
:104D9800FAFE206802F00EFB002084F8900210BD95
:104DA8000220704770B505460C46164612F0400FB3
:104DB80000F020810268B2F8503009784FEAC10C3F
:104DC8001CFA83F31344B3F80224C2F30902A3695B
:104DD80093422CD99B1AA361A06958B316F4804F4B
:104DE8000DD0286830F821309BB223F4E04323F03B
:104DF800700343F4404343F0800320F8213094F8D3
:104E08002430012B00F08D802A68217832F8213077
:104E18009BB223F4E04323F0400383F0300343F4D0
:104E2800004343F0800322F82130002070BD0023A6
:104E3800A361D1E76378002B48D12A68B2F85030D3
:104E480012FA83F36344B3F80224C2F30902A3F805
:104E58000224B3F802246FEA42426FEA524292B245
:104E6800A3F8022429686278002A3BD1B1F85030AF
:104E780011FA83F3227803EBC203B3F80624C2F3D2
:104E88000902A3F80624B3F806246FEA42426FEA3F
:104E9800524292B2A3F80624E378022B2FD021784D
:104EA800284603F0EFFD16F4804FBED02A6821781B
:104EB80032F821309BB223F4E04323F0700343F42B
:104EC800404343F0800322F82130AEE7012BC9D1DB
:104ED8002A68B2F8503012FA83F363440022A3F828
:104EE8000224BFE7012AD7D1B1F8503011FA83F371
:104EF800217803EBC1030022A3F80624CCE72A6833
:104F0800217832F821309BB223F4E04323F04003A8
:104F180083F0200343F4004343F0800322F8213058
:104F2800BDE7636913446361E3691344E361216A7C
:104F3800236999421DD3C91A21626278002A44D193
:104F48002968B1F8502011FA82F2217802EBC102E7
:104F5800B2F80214C1F30901A2F80214ABB9B2F80D
:104F680002146FEA41416FEA514189B2A2F8021472
:104F78002DE021B9002384F824301346DDE700230F
:104F880084F8243023620B46D7E73E2B0DD8590806
:104F980013F0010F00D00131B2F8020480B2890287
:104FA80089B20143A2F8021411E0580913F01F0F47
:104FB80000D10138B2F8021489B2800280B20143EC
:104FC80041F40041A2F8021401E0012A06D09BB284
:104FD80022896169286802F0FCF915E72968B1F8A7
:104FE800502011FA82F2217802EBC10299B2A2F89C
:104FF8000214ECE70268B2F850300978C80010FAD9
:1050080083F31344B3F80624C2F30902A369934255
:1050180046D39B1AA361A369002B44D016F4804F92
:105028000DD1286830F821309BB223F4E04323F0F7
:10503800700343F4404343F0800320F8213094F890
:105048002430012B7FF4E0AE636913446361E369A4
:105058001344E361216A23699942C0F09C80C91A0C
:10506800216229686278002A40F0C180B1F8502096
:1050780011FA82F2217802EBC102B2F80614C1F3E8
:105088000901A2F80614002B40F09180B2F806142A
:105098006FEA41416FEA514189B2A2F80614A8E0CB
:1050A8000023A361B7E76378002B49D12A68B2F8D7
:1050B800503012FA83F31844B0F80234C3F30903EA
:1050C800A0F80234B0F802346FEA43436FEA53435E
:1050D8009BB2A0F8023429686278002A3CD1B1F862
:1050E800503011FA83F3227803EBC203B3F8062495
:1050F800C2F30902A3F80624B3F806246FEA424271
:105108006FEA524292B2A3F80624E378022B30D019
:105118002178284603F0B6FC16F4804F7FF485AE5C
:105128002A68217832F821309BB223F4E04323F037
:10513800700343F4404343F0800322F8213074E6BF
:10514800012BC8D12A68B2F8503012FA83F31844F8
:105158000023A0F80234BEE7012AD6D1B1F85030B6
:1051680011FA83F3217803EBC1030022A3F8062484
:10517800CBE72A68217832F821309BB223F4E04348
:1051880023F0400383F0200343F4004343F08003FB
:1051980022F82130BCE721B9002384F824301346D3
:1051A8005FE70023236284F824300B4659E73E2B3F
:1051B8000DD8590813F0010F00D00131B2F80604D8
:1051C80080B2890289B20143A2F8061411E0580995
:1051D80013F01F0F00D10138B2F8061489B280020B
:1051E80080B2014341F40041A2F8061401E0012A0B
:1051F80006D09BB262896169286802F0EAF803E682
:10520800B1F8502011FA82F1227801EBC2019AB26A
:10521800A1F80624EDE72DE9F04105462868B0F825
:10522800443013F4004F00F05182B0F84440A3B268
:1052380014F00F0440F09F8013F0100F4AD0038839
:105248009AB213F4006F75D112F4004FE6D00388B8
:1052580023F070031B051B0D43F0800303802868AF
:10526800B0F8503095F85021D20012FA83F3034475
:10527800B3F80634C3F30903C5F86C318BB1D5F81C
:10528800641171B1B5F8562102F078FBD5F86C219C
:10529800D5F864311344C5F864310021284603F079
:1052A800E5FB2A68138899B213F4006FB6D101F4AC
:1052B8004051B1F5405FB1D013889BB223F48043CD
:1052C80023F0700383F4405343F4004343F0800316
:1052D8001380A3E703889BB223F4E14323F0700310
:1052E8006FEA43436FEA53439BB203802968B1F8DE
:1052F80050302A7CD20012FA83F30B44B3F80234FC
:10530800C3F30903EB626A6A13446B6200212846FF
:1053180003F0B8FB2B7B002B80D0AB6A002B7FF40B
:105328007DAF2B7B2A6843F08003A2F84C30002322
:105338002B7373E7B0F8503095F85021D20012FA69
:1053480083F30344B3F80634C3F30903C5F86C3197
:10535800B5F8562105F5267102F010FB2A68138866
:1053680023F070031B051B0D43F0800313802846B0
:1053780003F074FB52E730F824309EB213F4004F68
:105388004ED116F0800F3FF449AF04EB8401C900F9
:10539800103129442A6832F824309BB223F4E143BF
:1053A80023F070036FEA43436FEA53439BB222F83A
:1053B800243004EB840305EBC303DB7C012B00F0F2
:1053C800E98016F4807F40F07C812868B0F850307E
:1053D80004EB840205EBC202167CF20012FA83F396
:1053E8000344B3F80234C3F30903621C02EB8202DC
:1053F80055F832209A4240F24B81671C07EB870729
:10540800D21A45F83720621C02EB820255F8322086
:10541800002A40F044813146284603F033FBFDE67C
:1054280030F8243023F070031B051B0D43F0800374
:1054380020F8243004EB8401C90001F5A87105EBBC
:10544800010804EB840305EBC30393F85C31002BDC
:1054580040D12868B0F8503004EB840205EBC20252
:1054680092F85021D20012FA83F30344B3F8067479
:10547800C7F3090717BB04EB840305EBC303D3F891
:105488006C213A44C3F86C21D3F864213A44C3F838
:105498006421D3F868313BB104EB840305EBC30303
:1054A800D3F860319F4270D204EB840305EBC30349
:1054B80093F85011284603F0D9FA62E704EB840107
:1054C80005EBC1013B46B1F85621D1F8641102F051
:1054D80055FAD0E704EB840305EBC30393F8533183
:1054E800022B33D0296804EB840205EBC20292F840
:1054F800500131F820309BB223F4E04323F07003CD
:1055080043F4004343F0C00321F82030286892F8A0
:10551800503130F8232012F4804F1ED0B0F85020BC
:10552800DB0013FA82F30344B3F80274C7F30907E4
:10553800002FA0D004EB840105EBC1013B46B1F874
:105548005821D1F8641102F019FA94E7324641461D
:105558002846FFF72BFB07468DE7B0F85020DB0005
:1055680013FA82F30344B3F80674C7F30907002F4C
:1055780081D004EB840105EBC1013B46B1F85A2107
:10558800D1F8641102F0FAF975E74146286801F08C
:1055980033FFF6E6631C03EB8303DB000022EA50CB
:1055A80004EB840305EBC3031B7F1BB316F0400F0A
:1055B8003BD004EB840305EBC3035B7C1BBB2A686D
:1055C800B2F8503012FA83F304EB840205EBC202FE
:1055D800127C03EBC203B3F80224C2F30902A3F856
:1055E8000224B3F802246FEA42426FEA524292B2AE
:1055F800A3F8022404EB840405EBC404217C2846A8
:1056080003F040FA0AE6012BF4D12A68B2F85030C8
:1056180012FA83F304EB840205EBC202127C03EB5B
:10562800C2030022A3F80224E4E72A6804EB8403F7
:1056380005EBC3035B7CD3B9B2F8503012FA83F39D
:1056480004EB840205EBC202127C03EBC203B3F83D
:105658000624C2F30902A3F80624B3F806246FEA65
:1056680042426FEA524292B2A3F80624C2E7012BE3
:10567800C0D1B2F8503012FA83F304EB840205EB80
:10568800C202127C03EBC2030022A3F80624B1E78E
:10569800621C02EB8202D2000027AF50B3E604EB93
:1056A800840205EBC202566A1E445662013404EBBA
:1056B800840205EBC20254682344536001F09CFE47
:1056C800ACE532462846FFF76DFBA7E50020BDE8AC
:1056D800F08190F89032012B0CD010B504460123CC
:1056E80080F890320173006801F05EFE002084F8B3
:1056F800900210BD0220704710B50446006801F002
:1057080064FE10F4004F23D110F4806F24D110F4FC
:10571800804F32D110F4005F39D110F4805F40D14E
:1057280010F4006F67D110F0800F40F0818010F402
:10573800007F40F0AD8010F4807F27D02268B2F857
:1057480044309BB223F480739BB2A2F844301DE02E
:105758002046FFF760FD19E02268B2F844309BB29A
:1057680023F480639BB2A2F84430204603F09BF9EF
:1057780000212046FFF7ADFF08E02268B2F8443068
:105788009BB223F480439BB2A2F8443010BD226838
:10579800B2F844309BB223F400539BB2A2F84430D1
:1057A800F4E72268B2F840309BB223F004039BB2BE
:1057B800A2F840302268B2F840309BB223F00803C8
:1057C8009BB2A2F8403094F8C832012B0CD0204686
:1057D80003F08CF92268B2F844309BB223F480536A
:1057E8009BB2A2F84430D1E7002184F8C8122046C1
:1057F80003F034FAEBE72268B2F840309BB243F08A
:105808000803A2F840302268B2F844309BB223F46F
:1058180000639BB2A2F844302268B2F840309BB2D1
:1058280043F00403A2F84030204603F04FF9ADE7F7
:105838002268B2F844309BB223F080039BB2A2F8EE
:10584800443094F8C832FBB92268B2F840309BB2B1
:1058580043F00403A2F840302268B2F840309BB20B
:1058680043F00803A2F84030012184F8C8122368E5
:10587800B3F85430C3F38D0303F03C03C4F8CC32BF
:10588800204603F0EBF981E7204603F01FF97DE796
:105898002268B2F844309BB223F400739BB2A2F89A
:1058A8004430204603F0F9F870E710B5044608467E
:1058B80011F0800F27D101F0070C0CEB8C01C90007
:1058C80001F5A87E04EB0E010CEB8C0C04EBCC0C60
:1058D8004FF0000E8CF851E100F007000870C2F399
:1058E8000A020A61CB70022B1DD094F89032012B6A
:1058F8001CD0012384F89032206801F068F9002058
:1059080084F8900210BD01F0070C0CEB8C01C90063
:10591800103121440CEB8C0C04EBCC0C4FF0010E35
:105928008CF811E0D8E700230B71DEE70220E9E7E5
:1059380010B504460A4611F0800F1FD101F0070088
:1059480000EB8003DB0003F5A873E11800EB80008F
:1059580004EBC000002380F8513102F007020A70FE
:1059680094F89032012B17D0012384F890322068E4
:1059780001F0BCFB002084F8900210BD01F0070084
:1059880000EB8003DB001033E11800EB800004EB30
:10599800C00001234374E0E70220EEE710B501F0F0
:1059A800070C0CEB8C01C90001F5A8710CEB8C0EEF
:1059B80000EBCE0ECEF86421CEF868310024CEF884
:1059C8006C418EF851418EF850C10144006801F0D5
:1059D80013FD204610BD01F0070101EB810100EB2A
:1059E800C101D1F86C01704738B501F0070C0CEB18
:1059F8008C01C90010310CEB8C0E00EBCE0ECEF8EA
:105A080024200CF1010202EB820440F83430012515
:105A18008EF83450CEF8303000EBC40200245460C5
:105A28008EF811508EF810C00144006801F0E4FCB3
:105A3800204638BD0B4601F00702017991422ED36A
:105A480010B5044613F0800F1DD103EB8301C90084
:105A580001F5A871014403EB830300EBC3030020A5
:105A680083F8510101238B700A7094F89032012B4E
:105A780017D0012384F89032206801F022FC00201E
:105A880084F8900210BD02EB8201C9001031014474
:105A980002EB820300EBC30301205874E2E7012004
:105AA80070470220EEE70B46017903F00F0291429E
:105AB80034D310B5044613F0800F21D103F0070248
:105AC80002EB8201C90001F5A871014402EB8202D0
