:020000040801F1
:1000000000800020390A01080509010809090108D2
:1000100051090108530901085509010800000000B1
:100020000000000000000000000000005709010867
:1000300059090108000000005B0901085D09010879
:10004000890A0108890A0108890A0108890A010840
:10005000890A0108890A0108890A0108890A010830
:10006000890A0108890A0108890A01086509010845
:10007000890A0108890A0108890A0108890A010810
:10008000890A010800000000890A0108890A01089C
:10009000890A01087509010885090108890A01080A
:1000A000890A0108890A0108890A0108890A0108E0
:1000B000890A0108890A0108890A0108890A0108D0
:1000C000890A0108890A0108890A0108890A0108C0
:1000D000890A0108890A0108890A0108890A0108B0
:1000E000890A0108890A0108890A0108890A0108A0
:1000F000890A0108890A0108890A0108000000002C
:1001000000000000890A010800000000890A0108B7
:10011000890A010800000000890A01089509010800
:10012000890A0108890A0108890A0108890A01085F
:10013000890A01080000000000000000890A010887
:10014000890A0108890A0108000000000000000077
:10015000000000000000000000000000000000009F
:10016000000000000000000000000000890A0108F3
:10017000890A0108000000000000000000000000E3
:1001800000000000890A01080000000000000000D3
:10019000000000000000000000000000000000005F
:1001A0000000000000000000890A0108890A010817
:1001B000890A0108890A0108890A0108000000006B
:1001C00000000000890A0108000000000000000093
:0801D000890A0108890A0108EF
:1001D80010B5054C237833B9044B13B10448AFF379
:1001E80000800123237010BD9C0400200000000043
:1001F8001C48010808B5034B1BB103490348AFF37A
:10020800008008BD00000000A00400201C48010870
:1002180000B589B020220021684604F039FA224846
:10022800224B03604FF40023436000238360C360C4
:10023800036101224261042181610377427702212F
:10024800016280F82430C362036380F83820C363F6
:1002580080F8403001F054F8E0B9154B00930623BC
:100268000193032302937F2303930423049300231E
:10027800059369460C4801F0B7F970B90D4B009326
:100288000C2301936946084801F0AEF940B909B05A
:100298005DF804FB00F072FADFE700F06FFAEDE7B3
:1002A80000F06CFAF3E700BFB8040020000100502A
:1002B8000800900C1000C01030B599B00446002119
:1002C80013911491159116911791442202A804F0E4
:1002D800DFF92268274B9A4201D019B030BD4FF49C
:1002E800004302934FF00053119302A803F018FE45
:1002F800002838D1204BDA6C42F40052DA64DA6C08
:1003080002F400520092009ADA6C42F00102DA64B8
:10031800DB6C03F001030193019BC02313930323B8
:1003280014930025159513A94FF0904002F014FC82
:100338001248134B0360242343608560C560802303
:1003480003614FF4807343614FF48063836120231A
:10035800C3614FF44053036201F074FD30B9074B99
:1003680063659C62B9E700F009FAC3E700F006FA92
:10037800F5E700BF000100500010024024050020EE
:100388000800024000B583B00E4B9A6C42F004029C
:100398009A649A6C02F004020092009A9A6C42F0F5
:1003A80001029A649B6C03F001030193019B0022F4
:1003B80011460B2001F08CFC0B2001F0C1FC03B0AE
:1003C8005DF804FB0010024010B51248124B0360A0
:1003D800002343604FF440728260C36001220274BC
:1003E8004374837408214161022181610F24C4612F
:1003F80004240462446282620724C4620163426383
:100408008363C36301F0ACFE00B910BD00F0B6F918
:10041800FBE700BF840500200064004010B598B0D9
:1004280004460021139114911591169117914422B5
:1004380002A804F02DF92268224B9A4201D018B084
:1004480010BD4FF4805302934FF000730E9302A82F
:1004580003F066FD002832D11B4B9A6D42F0007202
:100468009A659A6D02F000720092009ADA6C42F076
:100478000102DA64DB6C03F001030193019B4FF482
:10048800C05313930223149300241594169409233C
:10049800179313A94FF0904002F05EFB2246052106
:1004A800152001F015FC152001F04AFC2246052113
:1004B800162001F00DFC162001F042FCBFE700F009
:1004C8005DF9C9E7006400400010024070B588B0CB
:1004D800002403940494059406940794294BDA6C39
:1004E80042F00102DA64DA6C02F001020192019A28
:1004F800DA6C42F00202DA64DB6C03F00203029366
:10050800029B012238214FF0904002F01AFC1E4D48
:1005180001223821284602F014FC224640212846B0
:1005280002F00FFC0723039304940126059603A900
:100538004FF0904002F010FB382303930496059483
:10054800069403A94FF0904002F006FB039604942A
:10055800059403A9284602F0FFFA4FF4E0630393D9
:100568000494059403A94FF0904002F0F5FA78231B
:10057800039304960594069403A9284602F0ECFA1E
:1005880008B070BD001002400004004808B51248C9
:10059800124B0360124B4360002383600122C26048
:1005A800036143618361C361036202F0A8FD50B92E
:1005B8000021094802F0B4FF40B90021064802F0C2
:1005C800DDFF30B908BD00F0D9F8F1E700F0D6F842
:1005D800F3E700F0D3F8F5E7E80500200054004001
:1005E800822AF310F0B59BB00446002115911691AC
:1005F800179118911991442204A804F049F8226827
:10060800224B9A4201D01BB0F0BD4023049304A8AA
:1006180003F086FC002835D11D4CE36C43F0010340
:10062800E364E36C03F001030193019BE36C43F083
:100638000203E364E36C03F002030293029B4FF4AA
:100648000043159312271697002517951895042629
:10065800199615A94FF0904002F07EFA8023159361
:10066800169717951895199615A90A4802F074FA5D
:10067800A36D43F40013A365A36D03F40013039360
:10068800039BC0E700F07AF8C6E700BF00540040BB
:10069800001002400004004808B50848084B0360F1
:1006A800032343604FF40063C360836002F092FF4A
:1006B80000B908BD00F062F8FBE700BF3C06002067
:1006C8000030004000220FE002EB4201194403EB26
:1006D800430C1248604410F802C0114800F801C0E9
:1006E8000133022BF0DD0132022A01DC0023F8E796
:1006F800002306E003F109020A49C85C0849885446
:100708000133032BF6DD084A1188054B59735288CB
:100718009A73064A1278DA73704700BF34070020CC
:1007280054060020400700204C06002064060020E4
:1007380008B5104B1B78142B04D80E4B1B78132BC1
:100748000CD908BD01210C4802F0F4FA0128F4D1B3
:1007580000222021084802F0F4FAEEE701210648B9
:1007680002F0E8FA0128ECD101222021024802F027
:10077800E8FAE6E7640600200004004872B6FEE7DF
:1007880000B595B03822002106A803F081FF0020AB
:100798000190029003900490059002F055FF0A23FF
:1007A80006934FF48073099340230A9301220B9216
:1007B80002230D930E930F92142210921193129309
:1007C800139306A802F0FAFF80B90F2301930323BD
:1007D8000293002303930493059304210DEB010076
:1007E80003F0A2FA20B915B05DF804FBFFF7C6FFC5
:1007F800FFF7C4FF08B52D4B2D4A9A6000F04AFD5B
:10080800FFF7BEFFFFF762FEFFF7BCFDFFF700FD35
:10081800FFF7DAFDFFF7BAFEFFF73EFF00F0C0F87A
:10082800642000F059FD00F085F9224803F0EAFC45
:1008380000F098FB0221002000F0EAFB0A210120C9
:1008480000F0E6FB1421022000F0E2FB3221032035
:1008580000F0DEFB02221849184801F0A5F900F063
:10086800A7FA174800F0D8FA00F0DEFA00F030FCDA
:10087800002000F0E3FB01280FD0012000F0DEFB90
:1008880001280FD0022000F0D9FB032000F0D6FB8E
:100898000128EDD1FFF74CFFEAE7FFF713FF00F05F
:1008A8007DF9EAE700F0DAFAECE700BF00ED00E0D6
:1008B80000000108680600204C060020B80400204B
:1008C8005006002000B583B00B4B1A6E42F00102AF
:1008D8001A661A6E02F001020092009A9A6D42F0AE
:1008E80080529A659B6D03F080530193019B02F03F
:1008F80031FF03B05DF804FB00100240FEE7000082
:1009080000B583B000230193009303E010210C4845
:1009180002F01CFA019B01330193019A094B9A4298
:10092800F8D900230193009BB3FA83F35B09009382
:10093800009B002BEAD01021014802F007FAE9E7F2
:10094800000400483F420F00FEE7FEE7FEE770475D
:100958007047704708B500F0ADFC08BD08B50248FF
:1009680001F026FB08BD00BF2405002008B5024899
:1009780001F08FFE08BD00BF8405002008B50248BD
:1009880001F087FE08BD00BF8405002008B50248B5
:1009980003F07EFC08BD00BF680600207047000019
:1009A80000B585B000230193029303930E480F4AC4
:1009B80002609F22426083604FF47A72C260836152
:1009C80003F0C0FD50B900230193039301A9064821
:1009D80003F0E8FD28B905B05DF804FBFFF7CEFE8B
:1009E800F1E7FFF7CBFEF6E76806002000140040A9
:1009F80002680E4B9A4200D0704700B583B003F5E9
:100A0800FE339A6D42F020029A659B6D03F0200335
:100A18000193019B00220121372001F059F9372069
:100A280001F08EF903B05DF804FB00BF001400402C
:100A38000D488546FFF7B2FF0C480D490D4A0023C3
:100A480002E0D458C4500433C4188C42F9D30A4A7B
:100A58000A4C002301E013600432A242FBD303F0E6
:100A6800F3FDFFF7C7FEFEE700800020000000202E
:100A78009C040020644801089C0400209007002082
:100A8800FEE7000000B587B000230093019301231F
:100A9800039302934FF480730493084B5B7A43F4F7
:100AA800007305936946064801F044FC10B907B085
:100AB8005DF804FBFFF762FEF9E700BF00070020BE
:100AC8008405002000B583B00368B3F5807F1DD08E
:100AD800164A527A42F400729A4219D003B05DF86D
:100AE80004FBC85C03F108026A4402F8040C0133F1
:100AF800032BF6D90E4B1B68019A9A42EED10A795C
:100B08000A4B5A72012000F0FBF8E7E70023EFE7F1
:100B18000B78012B05D0BB2BE0D1022000F0F0F8B8
:100B2800DCE7012000F0ECF8D8E700BF0007002060
:100B38005006002010B5FFF7A5FF054C0022012143
:100B4800204601F019FD204601F024FC10BD00BF2D
:100B58008405002008B50F4B186000205860986085
:100B6800DA604FF000421A6158614FF400129A613E
:100B7800D8611862084B1B68D3F8C43013F4001FFF
:100B880001D0002008BD0A460249034801F019FCBB
:100B9800F8E700BFDC0600208405002000B583B01C
:100BA8000B4B587A60B90B4B1B68019304220DEB71
:100BB80002014FF48070FFF7CDFF03B05DF804FB2E
:100BC8000A22054940F48070FFF7C4FFF5E700BF2B
:100BD800000700205006002054060020164B9842BB
:100BE80000D0704730B591B0044611F0010504D12A
:100BF80011F0020F18D111B030BD104D6B462A46C6
:100C0800402101F007FC69462846FFF75BFF0022F8
:100C18000121204601F0B0FCEDE76B46074A402170
:100C2800204601F0F7FB0135012DF6D900220221FB
:100C3800014801F0A1FCDEE784050020B40600208D
:100C480000687047F8B505460F461646002406E0CA
:100C58002846FFF7F5FF47F8240004350134B4426D
:100C6800F6D3F8BD2DE9F04186B004460E460023C0
:100C7800019300EB820700F17848012383F3108881
:100C880001F0F0FD1D4B9C4227D94CF2503001F089
:100C98000FFE30B301F0FEFD002383F3108806B089
:100CA800BDE8F0810123039300220292CDF8108061
:100CB800059301A902A801F0D9FE0028E5D14CF25C
:100CC800503001F0F5FDBD42DFD22846FFF7B8FFEE
:100CD800B0F1FF3FE6D10435F1E74FEAD8282546C1
:100CE800F1E7BC42D6D2D6E900232146002001F024
:100CF8000FFE0028CED108340836F2E7FFFFEF1FB9
:100D080010B598B00446082210A92748FFF79AFFA3
:100D1800C4B9264B1A6808925B680993234B1A7A60
:100D28000A925A7A0B929A7A0C92DA7A0D929A89E6
:100D38000E929B7B0F9320220021684603F0A8FCAB
:100D4800002228E0012C0AD0022C0DD0032CE5D17A
:100D58004FF0AA330893119B01330993DEE7109BE8
:100D68000893119B0993D9E74FF0BB330893119B64
:100D78000993D3E75300013318A901EB830353F810
:100D8800401C18AB03EBC20353F8400C43F8600C4B
:100D980043F85C1C0132032AECDD0822694602484C
:100DA800FFF760FF18B010BD0050000800070020D2
:100DB80000B589B0164B4FF0AA321A6000225A606B
:100DC800112119725A72022199720121D9729A81DC
:100DD8009A73082269460F48FFF734FF029B112BCC
:100DE80005D00020FFF78CFF09B05DF804FB9DF8E3
:100DF8000C20074B5A729DF810209A729DF8142007
:100E0800DA72BDF818209A819DF81C209A73EBE7D6
:100E18000007002000500008024BD3F8903503600B
:100E2800704700BF0070FF1F00B589B02022002165
:100E3800684603F02DFC082269460748FFF702FFC1
:100E4800009BB3F1BB3F02D009B05DF804FB03205F
:100E5800FFF756FFF8E700BF0050000870B50025FF
:100E68003BE000F033FA05EB450211192B4B43F830
:100E780021002B4B13441E5514E00134022C22DCB4
:100E8800284B33F81410284B53F8240001F052FF74
:100E9800B0FA80F6760905EB4502214B13441B5D39
:100EA800B342DED100F012FA05EB450323441B4A96
:100EB80052F82330C01A0A28DFD905EB45021B4B2C
:100EC80013441E55D9E70122194B33F81510194B55
:100ED80053F8250001F035FF0135022D0DDC002205
:100EE800134B33F81510134B53F8250001F029FF65
:100EF800012000F0F1F90024C0E700240AE00E4BBD
:100F080033F814100D4B53F8240001F013FF0C4B69
:100F180018550134032CF2DD70BD00BF1007002006
:100F280044070020040000200C00002034070020A3
:100F38003000002038000020180000202000002089
:100F48004007002043684BB14368013B43602BB91D
:100F5800012343700378DBB2012B00D0704783680C
:100F68004360FBE700230FE0094803EB43018A00D5
:100F78000244002151609160517003EB430C4FEA29
:100F88008C0281540133DBB2032BEDD9704700BFCB
:100F9800580700200268194B9A4200D0704710B5D4
:100FA80000F088F9002407E004EB4400144B03EB3D
:100FB8008000FFF7C7FF0134032CF5D9114B1A68DD
:100FC80001321A601A686FF000439A420AD00E4A3A
:100FD800138801331BB2138013881BB2B3F57A7FD1
:100FE80004D010BD074B00221A60F0E71346002218
:100FF8001A80064802F022FBF3E700BF0014004005
:101008005807002050070020540700203C06002005
:10101800032800D9FEE772B6074A00EB400302EB4B
:101028008303596099600021597000EB40008300E8
:101038000121D15462B6704758070020034603289F
:1010480011D800EB4002094901EB82025078C0B286
:10105800012801D00020704703EB430301EB830311
:1010680000225A7070470020704700BF58070020C0
:1010780000B587B0024600238DF817304FF6FF738E
:101088000293012301930DF11703009302235321C7
:10109800034802F06DF99DF8170007B05DF804FBEE
:1010A800E805002000B587B002468DF81710FF2329
:1010B8000293012301930DF1170300930223522198
:1010C800024802F080F807B05DF804FBE80500204C
:1010D80008B51620FFF7CCFF012801D0012008BD74
:1010E800012140F20720FFF7DDFF01214FF40270D4
:1010F800FFF7D8FF00219620FFF7D4FFFD219720A6
:10110800FFF7D0FF0021E320FFF7CCFF0421E42004
:10111800FFF7C8FF0221E520FFF7C4FF0121E62001
:10112800FFF7C0FF0321E720FFF7BCFF0221F520EE
:10113800FFF7B8FF0521D920FFF7B4FFCE21DB2048
:10114800FFF7B0FF0321DC20FFF7ACFFF821DD201B
:10115800FFF7A8FF00219F20FFF7A4FF3C21A32051
:10116800FFF7A0FF0021B720FFF79CFF3C21BB2021
:10117800FFF798FF0921B220FFF794FF0921CA2041
:10118800FFF790FF01214FF4CC70FFF78BFF172179
:101198004FF4D870FFF786FF002140F2AD10FFF73B
:1011A80081FF0521FF20FFF77DFF05214FF48070A7
:1011B800FFF778FF052140F29910FFF773FF1B2115
:1011C8004FF4D370FFF76EFF3E214FF4D670FFF750
:1011D80069FF1F2140F2A710FFF764FF00213020AC
:1011E800FFF760FF10211120FFF75CFF30214FF45B
:1011F8008570FFF757FF46213F20FFF753FFFF2178
:101208003120FFF74FFF63214120FFF74BFF0121FA
:101218002E20FFF747FF09211B20FFF743FF31214D
:101228003E20FFF73FFF24211420FFF73BFF7F21DB
:101238002420FFF737FF00211620FFF733FF002097
:101248004DE70000104B1B680BB90120704710B523
:1012580004464FF47A70B0FBF3F30C4A1068B0FB05
:10126800F3F000F07BFD68B90F2C01D901200AE0EA
:10127800002221464FF0FF3000F02AFD044B1C608D
:10128800002000E0012010BD4400002000000020E4
:101298004800002010B5032000F008FD0F20FFF7DC
:1012A800D1FF10B10124204610BD0446FFF70AFB08
:1012B800F9E70000034A1368034909680B441360FF
:1012C800704700BF8807002044000020014B1868C1
:1012D800704700BF8807002038B50446FFF7F6FFBF
:1012E8000546B4F1FF3F02D0044B1B681C44FFF7CE
:1012F800EDFF401BA042FAD338BD00BF44000020D8
:1013080030B583B000230193002800F0078104461C
:10131800C36D13B323689A6812F0005F05D09A680A
:1013280022F0204222F03F029A602268936813F06C
:10133800805F1FD1936823F0104323F03F0343F0ED
:1013480080539360764B1B689B09764AA2FB032364
:101358009B0901335B00019309E0FEF7ADFF002311
:10136800236684F85830D5E7019B013B0193019B24
:10137800002BF9D12268936813F0805F40F09680C3
:10138800E36D43F01003E365236E43F00103236626
:101398000120936813F0040300D00123E16D11F0DC
:1013A800100F40F0B480002B40F0B180E36D23F4BF
:1013B800817343F00203E365936813F0010F15D1BD
:1013C8004FF0A0439B6813F0010300D00123564A55
:1013D800926812F0010200D00122134306D163681B
:1013E80052498A6822F47C1213438B60627FE36B54
:1013F80043EA4233E2681343A268134394F8242073
:1014080043EA0243012A53D0E26A22B102F4787215
:10141800216B0A4313432168CD68454A2A40134388
:10142800CB602268136923F04063616B0B4313613F
:101438002268936813F0080300D001233BBB217F87
:1014480094F838305B0043EA8131D36823F4804351
:1014580023F002030B43D360236973B32268136933
:1014680043F4803313612268D2F8C03023F47F53E9
:1014780023F03F0321690B43C2F8C03094F8403091
:10148800012B29D02268136923F0010313616369D2
:10149800012B33D02268136B23F00F031363E36D22
:1014A80023F0030343F00103E36535E0002070E710
:1014B800A26A013A43EA4243A6E72268136923F481
:1014C800803313612268D2F8C03023F47F5323F0AD
:1014D8003F03C2F8C030D1E721680B6923F4FF63EA
:1014E80023F00403626CA56C2A43E56C2A43256D3E
:1014F8002A43134343F001030B61C8E721680B6BD0
:1015080023F00F03226A013A13430B63C7E7E36D25
:1015180043F01003E365012003B030BD0120FBE771
:1015280000000020632D3E0500010050000300501C
:101538000740F0FF7047704708B5806AFFF7FBFF68
:1015480008BD704708B50346806AC26D12F0500F97
:1015580030D1C36D43F40073C36503681A6812F091
:10156800080F14D0DA6812F4406F20D1DB6813F446
:10157800005F1CD1C36D23F48073C365C36D13F47E
:10158800805F14D1C36D43F00103C3650FE0DB68CE
:1015980013F0020F0BD1C36D23F48073C365C36DC1
:1015A80013F4805F03D1C36D43F00103C365FFF7F4
:1015B800C1FF08BDC26D12F0100F04D1426D526B0D
:1015C80018469047F5E7FFF7BCFFF2E708B5806AD1
:1015D800C36D43F04003C365036E43F00403036621
:1015E800FFF7AFFF08BD0000F0B583B000220192FD
:1015F80090F85820012A00F05E820346012280F804
:1016080058200568A86810F0040F09D0DA6D42F078
:101618002002DA650120002283F8582003B0F0BDCB
:101628004C683035220A920002F00C02A85804F0E7
:101638001F0E1F2404FA0EF420EA04000C68C4F3F9
:10164800846C0CFA0EFC40EA0C00A85018688268FA
:1016580012F0040200D00122846814F0080400D0BB
:101668000124002A50D1002C4ED18D68B5F1004FCD
:1016780000F082800F6814307A0E920002F00402A3
:101688008658C7F3045E4FF0070C0CFA0EFC26EAE6
:101698000C0C05FA0EF54CEA0505855018684269E8
:1016A80022F0004242614D691868C268C2F3C10263
:1016B800520005FA02F20E69042E75D0603050F817
:1016C8002670A84D3D400F6807F0F8473A43154388
:1016D80045F0004540F826501A680E69886960325E
:1016E80052F8265025F08075284342F826001A68DB
:1016F8000D69087F012854D0603252F8250020F087
:101708000070044342F825401868826812F0010FFF
:1017180017D10A68CD68D0F8B040C2F3120C24EA99
:101728000C0405F0180C904D25FA0CF52A40C2F36C
:1017380012022243C0F8B020C8688C4A904200F0D8
:101748009B800A688A490A4200F0AD818949896804
:1017580001F0E070884CA24200F05C81874CA24204
:1017680000F05881864CA24200F07A81854CA24252
:1017780000F0888100204EE70D6814306A0E920050
:1017880002F004028658C5F30455072707FA05F541
:1017980026EA050585501868426942F00042426110
:1017A80081E74FF00074A7E7026E046EC4F3846407
:1017B8000A68C2F3120585BBC2F38462944234D02E
:1017C8001C68626E606EC0F384600A68C2F312051A
:1017D80085BBC2F38462904234D01C68A26EA06EAE
:1017E800C0F384600A68C2F3120585BBC2F3846241
:1017F800904234D01C68E26EE06EC0F384600A68E0
:10180800C2F3120585BBC2F3846290427FF47CAFB9
:10181800E26E22F00042E26676E792FAA2F212B194
:10182800B2FA82F2CAE72022C8E7026E22F000422A
:101838000266C5E792FAA2F212B1B2FA82F2CAE7D8
:101848002022C8E7626E22F000426266C5E792FA7B
:10185800A2F212B1B2FA82F2CAE72022C8E7A26E57
:1018680022F00042A266C5E792FAA2F212B1B2FAD9
:1018780082F2CAE72022C8E71C680A68C2F3120588
:10188800002D38D1900E013000F01F0009288CBFC0
:1018980000200120002877D0002D3BD1900E013088
:1018A800800600F0F840002D40D1960E013606F073
:1018B8001F070126BE403043002D45D1920E01324C
:1018C80002F01F0202EB420212050243886804F18B
:1018D8001406550EAD0005F004057459C2F3045200
:1018E8004FF0070C0CFA02FC24EA0C0C90404CEA6E
:1018F8000000705125E792FAA2F048B1B0FA80F0E2
:10190800013000F01F0009288CBF00200120C1E72A
:101918002020F5E792FAA2F030B1B0FA80F0013059
:10192800800600F0F840BEE72020F8E792FAA2F619
:1019380046B1B6FA86F6013606F01F06012707FA01
:1019480006F6B8E72026F6E792FAA2F242B1B2FA12
:1019580082F2013202F01F0202EB42021205B4E7E2
:101968002022F6E700F0FF03FFFF070000007F409A
:101978000000088000030050000021C31000C09040
:10198800000052C7000084CBCDB9900E013080060C
:1019980000F0F840FDB9960E013606F01F07012643
:1019A800BE4030432DBB920E013202F01F0202EB03
:1019B80042021E3A120542F00072024386E792FA8A
:1019C800A2F030B1B0FA80F00130800600F0F840A3
:1019D800E0E72020F8E792FAA2F646B1B6FA86F6D2
:1019E800013606F01F06012707FA06F6D9E7202672
:1019F800F6E792FAA2F25AB1B2FA82F2013202F092
:101A08001F0202EB42021E3A120542F00072D4E7AE
:101A18002022F3E711F4000F7FF4A4AE1A68B2F1A4
:101A2800A04F01D00020F6E540F4000023498A6861
:101A380022F0E07210438860214A12689209214915
:101A4800A1FB02129209013202EB420292000192BA
:101A5800019A1AB1019A013A0192F9E70020DAE5F0
:101A680011F0807F7FF482AE1968174A91421CD02A
:101A780040F0807011498A6822F0E0721043886053
:101A88000020C8E511F4800F11D119680E4A91425F
:101A98000FD040F480020948816821F0E0710A43C0
:101AA80082600020B7E50020B5E50020B3E50020FE
:101AB800B1E50020AFE50220B0E500BF000300500B
:101AC80000000020632D3E050001005030B583B0B2
:101AD8000023019303689A6812F0010F58D1044655
:101AE80099682D4A114219D19A6822F0004222F0D1
:101AF8003F0242F001029A60284B9B6813F4000FE2
:101B08001CD0274B1B689B09264AA2FB03239B0971
:101B1800013303EB43039B0001930CE0C36D43F0D7
:101B28001003C365036E43F001030366012030E030
:101B3800019B013B0193019B002BF9D1FFF7C6FBE9
:101B4800054623681A6812F0010F1FD19A6812F02F
:101B5800010F07D19A6822F0004222F03F0242F0BA
:101B680001029A60FFF7B2FB431B022BE9D92368F5
:101B78001B6813F0010FE4D1E36D43F01003E36534
:101B8800236E43F001032366012002E0002000E0F9
:101B9800002003B030BD00BF3F00008000030050AC
:101BA80000000020632D3E05F8B504463A4B9D68B9
:101BB8000068806810F0040F69D10E46174605F0DA
:101BC8001F0594F85830012B63D0012384F858304E
:101BD80045B1052D06D0092D04D0002384F85830CE
:101BE800012055E02046FFF771FF00284BD1E36D37
:101BF80023F4706323F0010343F48073E3652368DF
:101C0800264A934239D01A46934200D01DB9E36D53
:101C180023F48013E365E36D13F4805F30D0236E03
:101C280023F006032366636D1D4ADA62636D1D4A5D
:101C38001A63636D1C4A5A6323681C221A600023C6
:101C480084F858302268536843F0100353602268C0
:101C5800D36843F00103D36021683B4632464031E4
:101C6800606D00F05BF92268936823F0004323F06D
:101C78003F0343F0040393600AE04FF0A042C3E738
:101C880000232366CFE7002384F8583000E00220C1
:101C9800F8BD0220FCE700BF00030050000100501F
:101CA8004D15010841150108D5150108074AD368E3
:101CB80023F4E0631B041B0C000200F4E060034300
:101CC80043F0BF6343F40033D360704700ED00E096
:101CD80000B5194BDB68C3F30223C3F1070CBCF151
:101CE800040F28BF4FF0040C03F1040EBEF1060FD9
:101CF80018D9033B4FF0FF3E0EFA0CFC21EA0C0109
:101D080099400EFA03F322EA0303194300280BDB78
:101D18000901C9B200F1604000F5614080F8001384
:101D28005DF804FB0023E5E700F00F000901C9B2E4
:101D3800024B1954F4E700BF00ED00E014ED00E099
:101D4800002807DB00F01F02400901239340024AE4
:101D580042F82030704700BF00E100E00138B0F1E0
:101D6800807F0BD24FF0E0235861054AF02182F8BA
:101D780023100020986107221A61704701207047DC
:101D880000ED00E010B4C46CD0F850C0C4F804C032
:101D9800446D24B1846DD0F85CC0C4F804C0446CB0
:101DA80004F01F0C012404FA0CF4D0F840C0CCF85D
:101DB8000440046863608368102B05D00368996049
:101DC8000368DA6010BC704703689A600368D960DA
:101DD800F8E7000003680C4A934213D80B49DBB2BA
:101DE800083B0B4AA2FB0323426C22F003020A447D
:101DF8008264084AC264C3F30413012202FA03F39B
:101E0800036570470449EAE70704024000080240F6
:101E1800CDCCCCCC80080240200802400379074A88
:101E28001A4492004265064A8265013B03F01F038B
:101E3800012202FA03F3C365704700BF3F82001016
:101E48004009024000285BD010B5044601682D4BBC
:101E580099423DD82C4B0B442C4AA2FB03231B0967
:101E68009B0043642A4B0364022384F825300A68E4
:101E780022F4FF4222F07002A368E068034320695D
:101E8800034360690343A0690343E0690343206A8D
:101E9800034313430B602046FFF79CFFA368B3F589
:101EA800804F20D0A36C22791A60E36C226D5A60AF
:101EB8006368013B032B19D900236365A365E365B8
:101EC8000020E063012384F8253084F8240010BD45
:101ED800104B0B440D4AA2FB03231B099B004364D0
:101EE8000D4B0364C0E700236360DBE72046FFF780
:101EF80095FF636D00221A60A36DE26D5A60DFE7FB
:101F08000120704707040240F8FFFDBFCDCCCCCCC0
:101F180000000240F8FBFDBF0004024038B504464B
:101F280090F82400012841D0012084F8240094F876
:101F38002500C0B2012804D0002384F824300220F0
:101F480038BD022084F825000020E0632568286851
:101F580020F0010028602046FFF714FF236BD3B15F
:101F68002268136843F00E031360A36C1A6812F416
:101F7800803F03D01A6842F480721A60636D1BB107
:101F88001A6842F480721A602268136843F00103E9
:101F980013600020D4E72268136823F00403136059
:101FA8002268136843F00A031360DEE70220C7E7DC
:101FB80038B5036C196804682568436C03F01F037F
:101FC80004229A400A4215D015F0040F12D0236853
:101FD80013F0200F03D1236823F004032360436C1C
:101FE80003F01F02016C042393404B60036B03B1A1
:101FF800984738BD02229A400A421CD015F0020FB9
:1020080019D0236813F0200F06D1236823F00A03A0
:102018002360012380F82530436C03F01F02016C14
:10202800022393404B60002380F82430C36A002BBE
:10203800DFD09847DDE7082202FA03F30B42D8D035
:1020480015F0080FD5D0236823F00E032360436CE6
:1020580003F01F03016C012202FA03F34B60C26311
:1020680080F82520002380F82430436B002BC0D053
:102078009847BEE7144B03640168D1F8802022F426
:10208800F812D0F834C042EA0C42C1F880200F4A56
:1020980042640168D1F8802022F07062D0F838C01C
:1020A80042EA0C62C1F88020094A8264D832C264CC
:1020B800D83202651832426502E0002243F8042B48
:1020C800044A9342F9D9704700A4004070A4004024
:1020D800B0A400404FA7004070B54C68ECB90D693A
:1020E8008C6825430C6845EA8445CC690E6A44EA45
:1020F80006648E6934434E693443CE6844EA064424
:10210800406D03EBC30300EBC30E40F83350CEF829
:1021180004400EF1080E002019E00C698D68254373
:102128000C68254345F08045DFE702EB000C9CF87E
:1021380003409CF802301B0443EA04639CF8014006
:1021480043EA0423145C23434EF8043B0430CB6871
:10215800024CE35C8342E8D870BD00BF44480108E4
:10216800002800F0E38038B5044690F85C30D3B11D
:102178002268936923F010039361FFF7A7F80546D7
:1021880023689A6912F0080F12D0FFF79FF8401BD6
:102198000A28F5D9236E43F001032366032384F844
:1021A8005C30012038BD80F85D30FEF737F9DFE795
:1021B8009A6942F001029A61FFF788F80546236898
:1021C8009A6912F0010F0DD1FFF780F8401B0A2819
:1021D800F5D9236E43F001032366032384F85C30AA
:1021E8000120DFE79A6942F002029A612268504BA7
:1021F8009A4242D0237C012B45D02268936943F050
:1022080040039361637C012B43D02268936923F4D4
:1022180080439361A37C012B41D02268936943F4E6
:10222800805393612268936923F44073A1680B4338
:1022380093612268936923F0A40393612268136968
:1022480023F010031361E368012B2ED0002B31D04B
:10225800022B54D02268936943F08003936122686B
:10226800136943F010031361E368032B22D122683A
:10227800936943F0200393611CE06268A3F58063CF
:10228800C3F80025B6E72268936923F040039361F9
:10229800B8E72268936943F480439361BAE72268F8
:1022A800936923F480539361BCE72268936943F0F0
:1022B80004039361A3695A1EE369013B1B0243EAC5
:1022C8004263226A013A13436269013A216843EA88
:1022D8000243CB61A368B3F5407F16D02268D2F8D9
:1022E800C030E16B0B43C2F8C0302046FFF7C2FE96
:1022F8000020A0652066012384F85C3052E722683C
:10230800936943F020039361D4E7A36A013BE26A2F
:10231800013A43EA0223226B013A43EA0213626A52
:10232800013A216843EA0243CB60D7E701207047AE
:102338000064004090F85C30013BDBB2012B05D90A
:10234800036E43F002030366012070470B687BB9F4
:102358008A68CB68DB0643EA82730A6943EA024368
:102368004A691343026C496842F8213000207047DB
:10237800CA680B6943EA42724B69D1F808C043EA5C
:102388008C73406C496800EBC10C40F83120CCF8E4
:102398000430EBE790F85C30DBB2012B05D0036E1C
:1023A80043F00403036601207047022380F85C3081
:1023B8000268936923F001039361002303661846BA
:1023C800704738B5044690F85C30DBB2022B1BD15D
:1023D8000368D3F8C40010F4001F05D0236E43F43B
:1023E80000732366012014E0D3F8C450C5F30145F7
:1023F8002B462046FFF770FE22680123AB40C2F847
:10240800CC30A365002004E0036E43F008030366A4
:10241800012038BD70B590F85C40E4B2022C40F061
:10242800A28040290BD00468D4F8985015F00F0FFB
:102438002DD1036E43F480730366012098E004688D
:10244800D4F8905015F00F0F05D1036E43F4807344
:10245800036601208CE0D4F89050C5F3006C15F0A9
:10246800807F08D0D4F88050C5F3402C15F4007F45
:1024780001D04FF0010CD4F89040C4F301240CEBC8
:102488000405846C05EBC50C04EBCC0C1AE0D4F8FD
:102498009850C5F3006C15F0807F08D0D4F88050B0
:1024A800C5F3002C15F4807F01D04FF0010CD4F84F
:1024B8009840C4F301240CEB0405C46C05EBC50C6F
:1024C80004EBCC0CDCF8004004F08044546074BB8E
:1024D800DCF80040C4F38A441460DCF8004004F0DF
:1024E80000549460DCF8004004F000441461BCF827
:1024F8000440D461BCF8064004F00F04D460DCF852
:10250800044004F480145461DCF8044004F400141A
:1025180094619CF8074004F07F041462DCF80440DE
:10252800E40F54620CF1080E4FF0000C0BE0DCF8DD
:10253800004024F060441460CFE71EF80C4003F814
:102548000C400CF1010C0B4CD668A45D6445F4D822
:10255800402904D00368C3F89C50002008E00368B1
:10256800C3F89450F9E7036E43F0080303660120AB
:1025780070BD00BF4448010890F85C30013BDBB2F5
:10258800012B05D9036E43F002030366012070474F
:1025980070B40468A36D11F0070602D013F0010FA0
:1025A80023D011F0380F02D013F0020F1DD011F410
:1025B800E07F02D013F0040F17D011F4F05F02D0BF
:1025C80013F0080F11D011F4604F02D013F0100F60
:1025D8000BD011F4403F02D013F0200F05D011F4B6
:1025E8007C0F06D013F0400F03D1E56D45F00105CF
:1025F800E56516B113F0010F23D111F0380F02D0A1
:1026080013F0020F1DD111F4E07F02D013F0040F74
:1026180017D111F4F05F02D013F0080F11D111F4A3
:10262800604F02D013F0100F0BD111F4403F02D0CD
:1026380013F0200F05D111F47C0F07D013F0400FD1
:1026480004D00468E36D43F00203E36511F0800FE2
:1026580005D00468D4F8DC301343C4F8DC3011F436
:10266800807F05D00468D4F8E0301A43C4F8E0202D
:102678000268536D19435165002070BC704770475C
:10268800704770477047704770477047704770478A
:1026980070472DE9F84F044603681A6D02F4E05AB2
:1026A8005A6D0AEA020A1A6D02F007095A6D09EA18
:1026B80002091A6D02F038085A6D08EA02081E6D00
:1026C80006F471065A6D16401F6D07F460275A6D9F
:1026D8001740D3F854B01D6D15F0400F02D01BF011
:1026E800400F41D115F4807F02D01BF4807F40D188
:1026F800BAF1000F4AD1B9F1000F4FD1B8F1000F6C
:1027080054D115F4007F02D01BF4007F56D115F088
:10271800800F02D01BF0800F58D115F4005F02D053
:102728001BF4005F5ED115F4004F02D01BF4004F7C
:1027380060D115F4804F0AD01BF4804F07D023686E
:102748004FF480421A65236E43F080032366002FFE
:1027580058D126B123681E65236E1E432666236E54
:10276800002B56D1BDE8F88F40221A65FFF78EFF7F
:10277800B8E72368D3F8D810D3F8E0204FF4807076
:10278800186511402046FFF77EFFB1E72368C3F8BC
:1027980050A051462046FFF772FFACE72368C3F804
:1027A800509049462046FEF719FAA7E72368C3F870
:1027B800508041462046FFF763FFA2E723684FF4A5
:1027C80000721A652046FFF75CFFA0E72368D3F87C
:1027D800D410D3F8DC208020186511402046FFF77C
:1027E80051FF9AE723684FF400521A652046FFF715
:1027F8004BFF98E723684FF400421A652046FFF71D
:1028080044FF96E723681F6539462046FFF740FFD7
:102818009FE72046FFF73BFFA4E7000010B4054CF4
:10282800616941F0010161610260BFF36F8F43602C
:1028380010BC704700200240094A536943F48023C2
:102848005361EFF3108C72B6402351F8042B40F813
:10285800042B013B13F0FF03F7D18CF3108870476A
:1028680000200240094B5B69002B01DB0020704708
:10287800064B074A9A6002F188329A605B69002B1E
:1028880001DB002070470120704700BF0020024094
:1028980023016745054B5A6942F000425A615B695A
:1028A800002B01DB01207047002070470020024008
:1028B80038B50546FEF70AFD0446134B1B6913F4A9
:1028C800803F06D0FEF702FD001BA842F5D9032081
:1028D80038BD0D4B1B694CF2FA32134009D10A4B33
:1028E8001B6913F0010F0CD0074B01221A6100205D
:1028F800EEE706494A681A434A60034A1361012011
:10290800E6E70020E4E700BF002002404C0000207A
:102918002DE9F0411646284A1278012A49D0044682
:102928000D469846244B01221A704FF47A70FFF72F
:10293800BFFF074608BB204B00225A601F4B1B688D
:1029480013F4806F1FD01D4A136823F4806313604B
:10295800194B02221A77D4B1631E012B1ED9002409
:102968004FF47A70FFF7A4FF074624B1134A53695E
:1029780023EA0404546100F047F80F4B00221A7050
:102988003846BDE8F0810C4B00221A77E3E732465F
:1029980043462846FFF742FF0124E1E7314628462F
:1029A800FFF74AFF022C01D00024D9E74FF4802416
:1029B800D6E70227E4E700BF4C00002000200240D1
:1029C80010F0010F04D0054A536943F00403536122
:1029D800024A536943F48033536170470020024030
:1029E800084B5A6922F4FC72C00000F4FF600243ED
:1029F8005A615A6942F002025A615A6942F48032B5
:102A08005A61704700200240164B1B7FDBB2012B36
:102A180001D0032B10D1144A116821F40071116000
:102A2800116841F400611160116821F400611160BE
:102A3800116841F400711160023BDBB2012B03D92C
:102A4800084B00221A777047074B1A6842F48052E5
:102A58001A601A6822F480521A601A6842F4806276
:102A68001A60EDE74C00002000200240F8B5384B12
:102A78001B78012B69D004460E46354B01221A708B
:102A88004FF47A70FFF714FF0746002858D1304BEF
:102A980000225A602F4B1B6813F4007F2DD02D4B5A
:102AA8001B6813F4806F24D02A4A136823F48063C8
:102AB8001360274B03221A772368012B2FD04FF07E
:102AC800FF333360A568A368E2681344AB4235D985
:102AD80061682846FFF784FF4FF47A70FFF7E8FE35
:102AE8001C4A536923F4FD735361074628BB01351B
:102AF800E9E7174B01221A77DEE7164B1B6813F438
:102B0800806F08D0134A136823F480631360104B56
:102B180002221A77D0E70E4B00221A77CCE76068BA
:102B2800FFF74EFF4FF47A70FFF7C2FE0746094AD7
:102B3800536923F00403536100E03560FFF764FF35
:102B4800034B00221A703846F8BD0227FBE700BF86
:102B58004C0000200020024070B582B0002365E0E0
:102B680085685E000324B44025EA0405CC68B440B7
:102B78002C438460446824EA0C0C4C68C4F30014A9
:102B88009C4044EA0C04446061E0DD08083550F8D4
:102B9800256003F007044FEA840C0F2404FA0CF4B0
:102BA80026EA040E0C6904FA0CF444EA0E0440F810
:102BB800254063E0052400E0002404FA0EF42C43C9
:102BC8000CF1020C574D45F82C40574CA568D443DE
:102BD80025EA0206D1F804C01CF4801F01D042EA9D
:102BE8000506514DAE60ED6804EA0506D1F804C04B
:102BF8001CF4001F01D042EA05064B4DEE606D68DB
:102C080004EA0506D1F804C01CF4003F01D042EAEA
:102C18000506454D6E602D682C404E6816F4803FC1
:102C280001D042EA0504404A146001330A6832FAC6
:102C380003F474D04FF0010C0CFA03FC1CEA0202F6
:102C4800F3D04C6804F00304013C012C88D94C688B
:102C580004F00304032C0CD0C4685D004FF0030C8F
:102C68000CFA05FC24EA0C0C8C68AC4044EA0C0411
:102C7800C4604C6804F00304022C86D004684FEA50
:102C8800430E4FF0030C0CFA0EFC24EA0C0C4C68B3
:102C980004F0030404FA0EF444EA0C0404604C68DB
:102CA80014F4403FC1D0214C256E45F0010525663E
:102CB800246E04F001040194019C4FEA930C0CF17A
:102CC8000205184C54F8255003F003044FEA840E0B
:102CD8000F2404FA0EF425EA0405B0F1904F3FF4EE
:102CE8006BAF134CA04212D004F58064A04210D000
:102CF80004F58064A0420ED004F58064A0420CD094
:102D080004F58064A0423FF455AF062455E701243A
:102D180053E7022451E703244FE704244DE702B0A8
:102D280070BD00BF000001400004014000100240D7
:102D3800000400480369194201D0012070470020AF
:102D480070470AB18161704781627047436901EA3F
:102D5800030221EA030141EA0241816170470368E5
:102D68009A6912F0020F01D000229A6203689A69E8
:102D780012F0010F03D19A6942F001029A6170477B
:102D880010B4019CC1F3090141EA024119432143EE
:102D980021F0004102685368640D04F4806444F033
:102DA8007F7444F4583444F47F7444F0030423EAF1
:102DB80004042143516010BC70472DE9F0410446DA
:102DC80003689E6916F010067CD00D4690461022C6
:102DD800DA61002637462368986910F0200F30D151
:102DE8007FBBB5F1FF3FF6D0FEF770FAA0EB080005
:102DF800A84201D8002DEED121684B6803F4804326
:102E080094F84220D2B2886910F4004F02D00BB96E
:102E1800202A0ED123689B6913F0200FDBD1FEF71F
:102E280055FAA0EB08001928F4D946F02006012726
:102E3800D1E74B6843F480434B60FEF747FA80467E
:102E4800E8E70FB92022DA6146F004060125226876
:102E5800936913F4807F05D046F001064FF4807122
:102E6800D161012513F4806F06D046F00806226868
:102E78004FF48061D161012513F4007F24D046F01E
:102E8800020623684FF40072DA6101252046FFF735
:102E980066FF2268536823F0FF7323F48B3323F40F
:102EA800FF7323F001035360636C1E4366642023A1
:102EB80084F84130002384F8423084F840302846B2
:102EC800BDE8F0810025C2E7002DF8D0DEE770B537
:102ED80004460D46164623689B6913F0020F22D15B
:102EE800324629462046FFF768FFF0B9B5F1FF3FA3
:102EF800F1D0FEF7EBF9801BA84201D8002DEAD1EA
:102F080023689B6913F0020FE5D1636C43F020033B
:102F18006364202384F84130002384F8423084F825
:102F28004030012000E0002070BD0120FCE72DE9C1
:102F3800F04104460F4616461D46DDF81880236802
:102F48009B6937EA03030CBF01230023B34227D14F
:102F5800424629462046FFF730FF20BBB5F1FF3F28
:102F6800EDD0FEF7B3F9A0EB0800A84201D8002D78
:102F7800E5D123689B6937EA03030CBF01230023CB
:102F8800B342DCD1636C43F020036364202384F8EC
:102F98004130002384F8423084F84030012000E0BA
:102FA8000020BDE8F0810120FBE700002DE9F04199
:102FB80082B0044690461D46089E099F194B00930F
:102FC8004FF08073EAB2FFF7DBFE3A4631462046FF
:102FD800FFF77DFFF8B9012D0ED123685FFA88F25B
:102FE8009A6200973346002280212046FFF79FFF10
:102FF800A8B902B0BDE8F08123684FEA18229A62A6
:103008003A4631462046FFF762FF30B923685FFA37
:1030180088F29A62E5E70120EBE70120E9E7012061
:10302800E7E700BF002000802DE9F04182B00446A8
:1030380090461D46089E099F184B00930023EAB24C
:10304800FFF79EFE3A4631462046FFF740FFF8B9A3
:10305800012D0ED123685FFA88F29A6200973346F1
:10306800002240212046FFF762FFA8B902B0BDE860
:10307800F08123684FEA18229A623A463146204680
:10308800FFF725FF30B923685FFA88F29A62E5E70F
:103098000120EBE70120E9E70120E7E700200080B5
:1030A80070B504460D46164604E023689B6913F084
:1030B800200F12D023689B6913F0200F1BD13246D2
:1030C80029462046FFF779FEB8B9FEF7FFF8801BBE
:1030D800A842EAD8002DEDD1E7E7636C43F020035E
:1030E8006364202384F84130002384F8423084F854
:1030F8004030012000E0002070BD0120FCE70028DE
:103108005FD010B5044690F84130002B48D02423F6
:1031180084F841302268136823F001031360636860
:10312800226823F0706313612268936823F40043D4
:103138009360E368012B38D0A368226843F4044302
:103148009360E368022B36D02268536823F4006347
:1031580053602268536843F0007343F4004353609C
:103168002268D36823F40043D36023696269134358
:10317800A169226843EA0123D360E369216A2268CE
:103188000B4313602268136843F0010313600020A7
:103198006064202384F84130206384F8420010BD25
:1031A80080F84030FDF71EFAB1E7A368226843F4BF
:1031B80000439360C5E72268536843F40063536093
:1031C800C7E7012070472DE9F04F83B00E46BDF8E0
:1031D80034A00E9D90F84110C9B2202940F0BB8060
:1031E8000446904699460C9BCBB1BAF1000F16D015
:1031F80090F84030012B00F0B2804FF0010B80F8BE
:1032080040B0FEF763F80746009019235A464FF47A
:1032180000412046FFF78BFE30B101209CE04FF4BF
:1032280000736364012097E0212384F84130402330
:1032380084F84230002363640C9A6262A4F82AA0DE
:103248006363019700954B46424631462046FFF797
:10325800ADFE70B9638D9BB2FF2B0FD9FF2222857B
:10326800002300934FF0807331462046FFF788FD16
:1032780021E0002384F8403058466DE0628D92B218
:103288002285002300934FF00073D2B231462046C6
:10329800FFF776FD0FE0628D92B22285002300933E
:1032A8004FF00073D2B231462046FFF769FD638DB7
:1032B8009BB2002B33D03A4629462046FFF707FE3B
:1032C80000284ED1626A236812789A62636A0133D1
:1032D8006362638D9BB2013B9BB26385238D013B87
:1032E8009BB22385628D92B2002AE0D0002BDED1FA
:1032F80000972B46002280212046FFF718FE90BB3E
:10330800638D9BB2FF2BC6D9FF2222850023009331
:103318004FF0807331462046FFF732FDC7E73A4643
:1033280029462046FFF7BCFEF8B923682022DA6157
:1033380021684B6823F0FF7323F48B3323F4FF7366
:1033480023F001034B6084F84120002384F84230C5
:1033580084F8403000E0022003B0BDE8F08F02207E
:10336800FAE70120F8E70120F6E70120F4E700007A
:103378002DE9F04F83B00E46BDF834A00E9D90F8AD
:103388004110C9B2202940F0BC80044690469946B5
:103398000C9BCBB1BAF1000F16D090F84030012B3E
:1033A80000F0B3804FF0010B80F840B0FDF78EFFBE
:1033B8000746009019235A464FF400412046FFF76C
:1033C800B6FD30B101209DE04FF400736364012025
:1033D80098E0222384F84130402384F842300023C7
:1033E80063640C9A6262A4F82AA06363019700954B
:1033F8004B46424631462046FFF716FE70B9638DAC
:103408009BB2FF2B0FD9FF222285444B00934FF02C
:10341800807331462046FFF7B3FC21E0002384F88F
:10342800403058466EE0628D92B222853B4B009345
:103438004FF00073D2B231462046FFF7A1FC0FE0EF
:10344800628D92B22285002300934FF00073D2B2AE
:1034580031462046FFF794FC638D9BB2002B34D095
:1034680000972B46002204212046FFF760FD002824
:103478004DD123685A6A636A1A70636A01336362BA
:10348800228D013A92B22285638D9BB2013B9BB299
:103498006385638D9BB2002BDED0002ADCD10097B8
:1034A8002B4680212046FFF742FD90BB638D9BB2DF
:1034B800FF2BC5D9FF222285002300934FF080738C
:1034C80031462046FFF75CFCC6E73A4629462046C7
:1034D800FFF7E6FDF8B923682022DA6121684B6816
:1034E80023F0FF7323F48B3323F4FF7323F00103DA
:1034F8004B6084F84120002384F8423084F840303F
:1035080000E0022003B0BDE8F08F0220FAE70120B6
:10351800F8E70120F6E70120F4E700BF0024008067
:1035280090F84130DBB2202B24D190F84030012BA9
:1035380022D0012380F84030242380F841300268EB
:10354800136823F0010313600268136823F480539F
:10355800136002681368194311600268136843F026
:1035680001031360202380F84130002380F84030A5
:1035780018467047022070470220704790F8413083
:10358800DBB2202B22D190F84030012B20D0012330
:1035980080F84030242380F841300268136823F013
:1035A800010313600268136823F4706343EA01217E
:1035B80011600268136843F001031360202380F848
:1035C8004130002380F84030184670470220704789
:1035D8000220704700282FD038B5044603684CF6FF
:1035E800CC421A60036845F255521A600368426873
:1035F8005A60036882689A60FDF768FE054623688A
:10360800DA6812F0070F0BD0FDF760FE401B312877
:10361800F5D92368DB6813F0070FF0D0032005E025
:103628001969E268914202D01A61002038BD4AF651
:10363800AA221A600020F9E70120704703684AF6B9
:10364800AA221A6000207047002836D13E4B1B681A
:1036580003F4C063B3F5806F08D03B4AD2F88030DA
:1036680023F48073C2F8803000207047364AD2F8BD
:10367800803023F48073C2F88030136823F4C06369
:1036880043F400731360314B1B68322202FB03F3CF
:103698002F4AA2FB03239B0C013300E0013B2A4A7B
:1036A800526912F4806F01D0002BF7D1264B5B6969
:1036B80013F4806F44D100207047B0F5007F08D024
:1036C800214A136823F4C06343F480631360002025
:1036D80070471D4B1B6803F4C063B3F5806F08D0B7
:1036E800194AD2F8803043F48073C2F88030002041
:1036F8007047154AD2F8803043F48073C2F880309E
:10370800136823F4C06343F4007313600F4B1B6802
:10371800322202FB03F30E4AA2FB03239B0C013364
:1037280000E0013B084A526912F4806F01D0002B77
:10373800F7D1054B5B6913F4806F03D10020704704
:1037480003207047032070470070004000000020ED
:1037580083DE1B43024A936843F4804393607047B7
:1037680000700040124BDA6802F00302D868C0F318
:103778000310431C032A11D00E48B0FBF3F00C4B86
:10378800DB68C3F3062303FB00F0094BDB68C3F3D4
:10379800416301335B00B0FBF3F070470648B0FBB0
:1037A800F3F0034BDB68C3F3062303FB00F0ECE7FD
:1037B800001002400024F40000127A00002800F0F3
:1037C8004F8270B582B00446036813F0010F37D0FA
:1037D800A44A936803F00C03D26802F003020C2B8E
:1037E80023D0082B23D06368B3F5803F4ED0B3F5C0
:1037F800A02F51D09B4B1A6822F480321A601A68A5
:1038080022F480221A606368002B52D0FDF75EFD17
:103818000546944B1B6813F4003F11D1FDF756FD84
:10382800401B6428F5D9032023E2032AD9D18D4B04
:103838001B6813F4003F03D06368002B00F012826A
:10384800236813F0020F5DD0864A936803F00C03D7
:10385800D26802F003020C2B3AD0042B3AD0E3686A
:10386800002B75D07F4A136843F480731360FDF70B
:103878002DFD05467B4B1B6813F4806F5FD1FDF768
:1038880025FD401B0228F5D90320F2E1754A13688B
:1038980043F480331360B6E703F18043A3F53C3368
:1038A8001A6842F480221A601A6842F480321A6058
:1038B800A9E7FDF70BFD05466A4B1B6813F4003FAB
:1038C800BED0FDF703FD401B6428F5D90320D0E1E5
:1038D800022AC2D1634B1B6813F4806F03D0E368DC
:1038E800002B00F0C1815F4A536823F0FE43216931
:1038F80043EA016353605C4B1868FDF7A3FC00289A
:1039080040F0B481236813F0080F4CD063699BB36F
:10391800544AD2F8943043F00103C2F89430FDF7CA
:10392800D5FC05464F4BD3F8943013F0020F3AD12B
:10393800FDF7CCFC401B0228F4D9032099E1494A41
:10394800536823F0FE43216943EA01635360D9E7D2
:10395800444A136823F480731360FDF7B7FC0546E7
:10396800404B1B6813F4806FCCD0FDF7AFFC401BB5
:103978000228F5D903207CE13A4AD2F8943023F0A2
:103988000103C2F89430FDF7A1FC0546354BD3F886
:10399800943013F0020F06D0FDF798FC401B022864
:1039A800F4D9032065E1236813F0040F00F0818047
:1039B8002C4B9B6D13F0805F36D12A4B9A6D42F0E9
:1039C80080529A659B6D03F080530193019B0125FA
:1039D800264B1B6813F4807F28D0A368012B39D0AD
:1039E800052B45D01F4BD3F8902022F00102C3F8D5
:1039F8009020D3F8902022F00402C3F89020A36806
:103A0800002B43D0FDF762FC0646164BD3F89030E6
:103A180013F0020F4CD1FDF759FC801B41F288339B
:103A28009842F2D9032024E10025D1E70F4A136810
:103A380043F480731360FDF749FC06460B4B1B6883
:103A480013F4807FC9D1FDF741FC801B0228F5D90A
:103A580003200EE1034AD2F8903043F00103C2F884
:103A68009030CCE700100240480000200070004071
:103A7800884BD3F8902042F00402C3F89020D3F882
:103A8800902042F00102C3F89020B8E7FDF71EFC31
:103A98000646804BD3F8903013F0020F08D0FDF79C
:103AA80015FC801B41F288339842F2D90320E0E0EC
:103AB800E5B9236813F0200F35D0A369E3B1754A3F
:103AC800D2F8983043F00103C2F89830FDF7FEFBB6
:103AD8000546704BD3F8983013F0020F23D1FDF749
:103AE800F5FB401B0228F4D90320C2E0694A936D14
:103AF80023F080539365DCE7664AD2F8983023F0C8
:103B08000103C2F89830FDF7E1FB0546614BD3F895
:103B1800983013F0020F06D0FDF7D8FB401B02289F
:103B2800F4D90320A5E0E369002B00F0A180594AED
:103B3800926802F00C020C2A64D0022B13D0554A6A
:103B4800136823F080731360FDF7C0FB0446514BE4
:103B58001B6813F0007F4ED0FDF7B8FB001B02284E
:103B6800F5D9032085E04B4A136823F0807313606E
:103B7800FDF7ACFB0546474B1B6813F0007F06D0EA
:103B8800FDF7A4FB401B0228F5D9032071E0414A48
:103B9800D36841491940236A606A013843EA00132F
:103BA800A06A43EA0023206B4008013843EA4053E7
:103BB800606B4008013843EA4063E06A43EAC06347
:103BC8000B43D360136843F080731360D36843F0EA
:103BD8008073D360FDF77AFB04462E4B1B6813F005
:103BE800007F06D1FDF772FB001B0228F5D90320E0
:103BF8003FE000203DE0274AD168284B0B40D360C6
:103C0800002036E0012B36D0224BDB6803F003019D
:103C1800226A914231D103F0F002616A0139B2EBB4
:103C2800011F2CD103F4FE42A16AB2EB012F28D167
:103C380003F07842E16AB2EBC16F24D103F4C0010A
:103C4800226B5208013AB1EB425F1ED103F0C06308
:103C5800626B5208013AB3EB426F18D1002008E0BA
:103C680001207047012004E0012002E0012000E06B
:103C7800002002B070BD0120FBE70120F9E7012018
:103C8800F7E70120F5E70120F3E70120F1E701203C
:103C9800EFE700BF001002400C809F01FCFFEEFE22
:103CA8001E4B9B6803F00C03042B33D01B4B9B6803
:103CB80003F00C03082B2FD0184B9B6803F00C0360
:103CC8000C2B01D000207047144BDA6802F0030275
:103CD800D868C0F30310431C032A11D01048B0FB66
:103CE800F3F00E4BDB68C3F3062303FB00F00B4B2A
:103CF800DB68C3F3416301335B00B0FBF3F070474B
:103D08000848B0FBF3F0054BDB68C3F3062303FB5D
:103D180000F0ECE702487047024870470010024084
:103D28000024F40000127A00002800F0E680F8B5BC
:103D38000C460546744B1B6803F00F038B420BD2ED
:103D4800714A136823F00F030B431360136803F0E1
:103D58000F038B4240F0D3802E6816F001065FD027
:103D68006B68032B2FD0022B4DD0684B1B6813F4C4
:103D7800806F00F0C680FFF793FF654B98424DD9DE
:103D8800624A936823F0F00343F08003936080262F
:103D98005E4A936823F0030369680B439360FDF759
:103DA80095FA0746594B9B6803F00C036A68B3EB16
:103DB800820F35D0FDF78AFAC01B41F2883398424A
:103DC800F0D9032078E0514B1B6813F0007F01D134
:103DD800012071E0FFF7C6FC4D4B98421AD94B4BB6
:103DE8009B6813F0F00F05D02E6816F00206CFD0AE
:103DF800AB688BB9454A936823F0F00343F080031E
:103E080093608026C4E7414B1B6813F4003FB2D18E
:103E1800012051E00026BBE70026B9E70026B7E7F6
:103E28002B6813F0020F48D013F0040F04D0374A60
:103E3800936843F4E06393602B6813F0080F06D08F
:103E4800324A936823F47C5343F4E06393602F4A27
:103E5800936823F0F003A9680B4393602A4B1B680F
:103E680003F00F03A34230D82B6813F0040F06D0D9
:103E7800264A936823F4E063E9680B4393602B6850
:103E880013F0080F07D0214A936823F46053296977
:103E980043EAC1039360FFF703FF1C4B9B68C3F31E
:103EA80003131C4AD35C03F01F03D8401A4B186055
:103EB8001A4B1868FDF7C6F9F8BD802ECED1134A03
:103EC800936823F0F0039360C8E70F4A136823F060
:103ED8000F0323431360FDF7F9F906460A4B1B68E5
:103EE80003F00F03A342BFD0FDF7F0F9801B41F2A6
:103EF80088339842F2D90320DEE701207047012079
:103F0800DAE70120D8E700BF002002400010024095
:103F180000B4C40434480108000000204800002010
:103F2800F0B583B00446036813F4002F69D0AE4B94
:103F38009B6D13F0805F1ED1AB4B9A6D42F080529F
:103F48009A659B6D03F080530193019B0126A74A54
:103F5800136843F480731360FDF7B8F90546A34B63
:103F68001B6813F4807F08D1FDF7B0F9401B0228C5
:103F7800F5D9032502E00026E9E7002545BB9A4B61
:103F8800D3F8903013F4407315D0226C9A4212D0B3
:103F9800954AD2F8903023F44073D2F8901041F447
:103FA8008031C2F89010D2F8901021F48031C2F814
:103FB8009010C2F8903013F0010F10D145B98A4A19
:103FC800D2F8903023F44073216C0B43C2F8903040
:103FD800C6B1854A936D23F08053936512E0FDF7CF
:103FE80075F90746804BD3F8903013F0020FE5D1EE
:103FF800FDF76CF9C01B41F288339842F2D90325CA
:10400800DCE70025236813F0010F08D0764AD2F8C0
:10401800883023F0030361680B43C2F888302368B3
:1040280013F0020F08D0704AD2F8883023F00C033E
:10403800A1680B43C2F88830236813F0040F08D036
:10404800694AD2F8883023F03003E1680B43C2F89C
:104058008830236813F0080F08D0634AD2F88830F4
:1040680023F0C00321690B43C2F88830236813F09A
:10407800200F08D05C4AD2F8883023F44063616985
:104088000B43C2F88830236813F0400F08D0564A13
:10409800D2F8883023F44053A1690B43C2F8883022
:1040A800236813F0800F08D04F4AD2F8883023F4E1
:1040B8004043E1690B43C2F88830236813F4807FDA
:1040C80008D0494AD2F8883023F44033216A0B4398
:1040D800C2F88830236813F4007F08D0424AD2F827
:1040E800883023F44023616A0B43C2F88830236880
:1040F80013F4806F0CD03C4AD2F8883023F4401374
:10410800A16A0B43C2F88830A36AB3F5801F57D061
:10411800236813F4006F0CD0334AD2F8883023F4A4
:104128004003E16A0B43C2F88830E36AB3F5800FB5
:104138004BD0236813F4805F0CD02B4AD2F8883018
:1041480023F04073216B0B43C2F88830236BB3F123
:10415800807F3FD0236813F4005F0CD0224AD2F846
:10416800883023F04063616B0B43C2F88830636B7F
:10417800B3F1006F33D0236813F4804F0CD01A4A80
:10418800D2F8883023F04063A16B0B43C2F8883023
:10419800A36BB3F1006F2BD0236813F4004F0CD03E
:1041A800114AD2F8883023F04053E16B0B43C2F830
:1041B8008830E36BB3F1805F1FD0284603B0F0BDB1
:1041C800D36843F48013D360A2E7D36843F4801321
:1041D800D360AEE7D36843F48013D360BAE7D368FB
:1041E80043F48013D360C6E700100240007000401B
:1041F800D36843F48013D360CEE7D36843F48033A5
:10420800D360DAE790F83D30DBB2012B32D10223DC
:1042180080F83D300268D36843F00103D360036837
:10422800174A934218D0B3F1804F15D0A2F59432B3
:10423800934211D002F5806293420DD002F5963276
:10424800934209D002F54062934205D01A6842F0C1
:1042580001021A600020704799680A4A0A40062A33
:104268000AD0B2F5803F09D01A6842F001021A60FC
:1042780000207047012070470020704700207047D9
:10428800002C0140070001007047704770477047D5
:1042980070B505460368DE681C6914F0020F10D07B
:1042A80016F0020F0DD06FF002021A610123037796
:1042B80003689B6913F0030F7CD0FFF7E6FF002328
:1042C8002B7714F0040F12D016F0040F0FD02B68C0
:1042D8006FF004021A6102232B772B689B6913F491
:1042E800407F6DD02846FFF7D0FF00232B7714F0CE
:1042F800080F12D016F0080F0FD02B686FF00802C5
:104308001A6104232B772B68DB6913F0030F5ED047
:104318002846FFF7BAFF00232B7714F0100F12D0AE
:1043280016F0100F0FD02B686FF010021A610823D7
:104338002B772B68DB6913F4407F4FD02846FFF7B3
:10434800A4FF00232B7714F0010F02D016F0010F01
:104358004BD114F4025F02D016F0800F4DD114F443
:10436800807F02D016F0800F4FD114F0400F02D09A
:1043780016F0400F51D114F0200F02D016F0200F84
:1043880053D114F4801F02D016F4801F55D114F4B1
:10439800001F02D016F4001F57D114F4800F02D06A
:1043A80016F4800F59D114F4000F02D016F4000F40
:1043B8005BD170BDFFF768FF2846FFF767FF7EE710
:1043C8002846FFF761FF2846FFF760FF8DE728467C
:1043D800FFF75AFF2846FFF759FF9CE72846FFF7E3
:1043E80053FF2846FFF752FFABE72B686FF0010237
:1043F8001A612846FCF7CEFDABE72B686FF4025232
:104408001A61284600F019F9A9E72B686FF4807241
:104418001A61284600F012F9A7E72B686FF04002EE
:104428001A612846FFF733FFA5E72B686FF02002D3
:104438001A61284600F000F9A3E72B686FF4801290
:104448001A61284600F0FBF8A1E72B686FF4001208
:104458001A61284600F0F4F89FE72B686FF4800291
:104468001A61284600F0EDF89DE72B686FF400020A
:104478001A61284600F0E6F89BE700000368304A16
:1044880090420ED0B0F1804F0BD0A2F594329042FA
:1044980007D002F58062904203D002F5963290422E
:1044A80003D123F070034A681343254A90421AD077
:1044B800B0F1804F17D0A2F59432904213D002F594
:1044C800806290420FD002F5963290420BD002F5EE
:1044D8004062904207D002F58062904203D002F514
:1044E8008062904203D123F44073CA68134323F0D7
:1044F80080034A69134303608B68C3620B68836255
:104508000F4B98420FD003F5006398420BD003F588
:104518004063984207D003F58063984203D003F5BF
:104528008063984201D10B690363012343610369E6
:1045380013F0010F03D0036923F0010303617047EF
:10454800002C014060B310B5044690F83D3013B319
:10455800022384F83D30214651F8040BFFF78EFF03
:10456800012384F8483084F83E3084F83F3084F8DA
:10457800403084F8413084F8423084F8433084F87D
:10458800443084F8453084F8463084F8473084F85D
:104598003D30002010BD80F83C30FCF729FAD7E701
:1045A8000120704790F83C30012B40D030B40123F3
:1045B80080F83C30022380F83D30026853689468E4
:1045C8001C4DAA4203D005F50065AA4203D123F485
:1045D80070034D682B4323F0007323F070030D68BC
:1045E8002B4353600368134A934212D0B3F1804FB0
:1045F8000FD0A2F5943293420BD002F58062934219
:1046080007D002F59632934203D002F540629342F6
:1046180004D124F080048A6814439C60012380F844
:104628003D30002380F83C30184630BC70470220EB
:10463800704700BF002C01407047704770477047B3
:10464800704770477047000070B50D4E0D4D761BD2
:10465800B61006D0002455F8043B01349847A6420A
:10466800F9D1094E094D761B00F0D4F8B61006D0E2
:10467800002455F8043B01349847A642F9D170BD8F
:104688005848010858480108604801085848010876
:10469800830730B548D0541E002A3FD0CAB203461B
:1046A80001E0013C3AD303F8012B9D07F9D1032C13
:1046B8002DD9CDB245EA05250F2C45EA054536D951
:1046C800A4F1100222F00F0C03F1200EE6444FEA89
:1046D800121C03F1100242E9045542E90255103256
:1046E8007245F8D10CF1010214F00C0F03EB021221
:1046F80004F00F0C13D0ACF1040323F003030433CC
:10470800134442F8045B9342FBD10CF003042CB130
:10471800CAB21C4403F8012B9C42FBD130BD64464D
:104728001346002CF4D1F9E703461446BFE71A46AE
:10473800A446E0E7024B13B1024800F005B8704701
:10474800000000005D470108002301461A4618468C
:1047580000F01AB838B5084B084D5B1B9C1007D001
:10476800043B1D44013C55F804399847002CF9D105
:10477800BDE8384000F054B86448010860480108B2
:10478800704700BF704700BF2DE9F047DFF87CA0F5
:104798000646DAF8000098460F469146FFF7F0FF04
:1047A8001B4B1B68D3F8484124B365681F2D26DCD2
:1047B8005EB96B1C0235DAF80000636044F82570B6
:1047C800FFF7E0FF0020BDE8F08704EB8501012337
:1047D800C1F88890D4F88821AB401A43022EC4F857
:1047E8008821C1F80881E4D1D4F88C211343C4F896
:1047F8008C31DEE703F5A674C3F84841D5E7DAF84B
:104808000000FFF7BFFF4FF0FF30DCE798040020FF
:1048180054480108F8B500BFF8BC08BC9E4670476C
:0C482800F8B500BFF8BC08BC9E46704705
:10483400000000000000000001020304060708094C
:104844000001020304050607080C10141820304068
:0448540070000020D0
:084858003D470108FD010108C4
:04486000D901010871
:104864000024F400010002000400000000000048DD
:10487400000000480000004801000001000200049C
:104884000004004800000048000000480000004800
:10489400080010002000000000000048000000484C
:1048A40000000048010000001000000000000000AB
:1048B40000000000000000000000000001000000F3
:1048C40000000000000000000000000000000000E4
:1048D400000000005C030020C40300202C0400201E
:1048E40000000000000000000000000000000000C4
:1048F40000000000000000000000000000000000B4
:1049040000000000000000000000000000000000A3
:104914000000000000000000000000000000000093
:104924000000000000000000000000000000000083
:104934000000000000000000000000000000000073
:104944000000000000000000000000000000000063
:104954000000000000000000000000000000000053
:104964000000000000000000000000000000000043
:104974000000000000000000010000000000000032
:104984000E33CDAB34126DE6ECDE05000B000000F7
:104994000000000000000000000000000000000013
:1049A4000000000000000000000000000000000003
:1049B40000000000000000000000000000000000F3
:1049C40000000000000000000000000000000000E3
:0C4CF40000000000000000008C07002001
:0400000508010A39AB
:00000001FF
